{
  "_format": "hh-sol-artifact-1",
  "contractName": "ChessWager",
  "sourceName": "contracts/ChessWager.sol",
  "abi": [
    {
      "inputs": [
        {
          "internalType": "address",
          "name": "moveVerificationAddress",
          "type": "address"
        },
        {
          "internalType": "address",
          "name": "_ChessFishToken",
          "type": "address"
        },
        {
          "internalType": "address",
          "name": "_DividendSplitter",
          "type": "address"
        },
        {
          "internalType": "address",
          "name": "_ChessFishNFT",
          "type": "address"
        }
      ],
      "stateMutability": "nonpayable",
      "type": "constructor"
    },
    {
      "anonymous": false,
      "inputs": [
        {
          "indexed": false,
          "internalType": "address",
          "name": "wagerAddress",
          "type": "address"
        },
        {
          "indexed": false,
          "internalType": "address",
          "name": "userAddress",
          "type": "address"
        }
      ],
      "name": "acceptWagerEvent",
      "type": "event"
    },
    {
      "anonymous": false,
      "inputs": [
        {
          "indexed": false,
          "internalType": "address",
          "name": "wagerAddress",
          "type": "address"
        },
        {
          "indexed": false,
          "internalType": "address",
          "name": "userAddress",
          "type": "address"
        }
      ],
      "name": "cancelWagerEvent",
      "type": "event"
    },
    {
      "anonymous": false,
      "inputs": [
        {
          "indexed": false,
          "internalType": "address",
          "name": "wager",
          "type": "address"
        },
        {
          "indexed": false,
          "internalType": "address",
          "name": "wagerToken",
          "type": "address"
        },
        {
          "indexed": false,
          "internalType": "uint256",
          "name": "wagerAmount",
          "type": "uint256"
        },
        {
          "indexed": false,
          "internalType": "uint256",
          "name": "timeLimit",
          "type": "uint256"
        },
        {
          "indexed": false,
          "internalType": "uint256",
          "name": "numberOfGames",
          "type": "uint256"
        }
      ],
      "name": "createGameWagerEvent",
      "type": "event"
    },
    {
      "anonymous": false,
      "inputs": [
        {
          "indexed": false,
          "internalType": "address",
          "name": "wagerAddress",
          "type": "address"
        },
        {
          "indexed": false,
          "internalType": "address",
          "name": "winner",
          "type": "address"
        },
        {
          "indexed": false,
          "internalType": "address",
          "name": "wagerToken",
          "type": "address"
        },
        {
          "indexed": false,
          "internalType": "uint256",
          "name": "wagerAmount",
          "type": "uint256"
        },
        {
          "indexed": false,
          "internalType": "uint256",
          "name": "protocolFee",
          "type": "uint256"
        }
      ],
      "name": "payoutWagerEvent",
      "type": "event"
    },
    {
      "anonymous": false,
      "inputs": [
        {
          "indexed": false,
          "internalType": "address",
          "name": "wagerAddress",
          "type": "address"
        },
        {
          "indexed": false,
          "internalType": "uint16",
          "name": "move",
          "type": "uint16"
        }
      ],
      "name": "playMoveEvent",
      "type": "event"
    },
    {
      "inputs": [],
      "name": "ChessFishNFT",
      "outputs": [
        {
          "internalType": "address",
          "name": "",
          "type": "address"
        }
      ],
      "stateMutability": "view",
      "type": "function"
    },
    {
      "inputs": [],
      "name": "ChessFishToken",
      "outputs": [
        {
          "internalType": "address",
          "name": "",
          "type": "address"
        }
      ],
      "stateMutability": "view",
      "type": "function"
    },
    {
      "inputs": [],
      "name": "DividendSplitter",
      "outputs": [
        {
          "internalType": "address",
          "name": "",
          "type": "address"
        }
      ],
      "stateMutability": "view",
      "type": "function"
    },
    {
      "inputs": [],
      "name": "TournamentHandler",
      "outputs": [
        {
          "internalType": "address",
          "name": "",
          "type": "address"
        }
      ],
      "stateMutability": "view",
      "type": "function"
    },
    {
      "inputs": [
        {
          "internalType": "address",
          "name": "wagerAddress",
          "type": "address"
        }
      ],
      "name": "acceptWager",
      "outputs": [],
      "stateMutability": "nonpayable",
      "type": "function"
    },
    {
      "inputs": [
        {
          "internalType": "address",
          "name": "_tournamentHandler",
          "type": "address"
        }
      ],
      "name": "addTournamentHandler",
      "outputs": [],
      "stateMutability": "nonpayable",
      "type": "function"
    },
    {
      "inputs": [
        {
          "internalType": "uint256",
          "name": "",
          "type": "uint256"
        }
      ],
      "name": "allWagers",
      "outputs": [
        {
          "internalType": "address",
          "name": "",
          "type": "address"
        }
      ],
      "stateMutability": "view",
      "type": "function"
    },
    {
      "inputs": [
        {
          "internalType": "address",
          "name": "wagerAddress",
          "type": "address"
        }
      ],
      "name": "cancelWager",
      "outputs": [
        {
          "internalType": "bool",
          "name": "",
          "type": "bool"
        }
      ],
      "stateMutability": "nonpayable",
      "type": "function"
    },
    {
      "inputs": [
        {
          "internalType": "address",
          "name": "wagerAddress",
          "type": "address"
        }
      ],
      "name": "checkTimeRemaining",
      "outputs": [
        {
          "internalType": "int256",
          "name": "",
          "type": "int256"
        },
        {
          "internalType": "int256",
          "name": "",
          "type": "int256"
        }
      ],
      "stateMutability": "view",
      "type": "function"
    },
    {
      "inputs": [
        {
          "internalType": "uint16",
          "name": "move",
          "type": "uint16"
        }
      ],
      "name": "convertFromMove",
      "outputs": [
        {
          "internalType": "uint8",
          "name": "",
          "type": "uint8"
        },
        {
          "internalType": "uint8",
          "name": "",
          "type": "uint8"
        }
      ],
      "stateMutability": "pure",
      "type": "function"
    },
    {
      "inputs": [
        {
          "internalType": "uint8",
          "name": "fromPos",
          "type": "uint8"
        },
        {
          "internalType": "uint8",
          "name": "toPos",
          "type": "uint8"
        }
      ],
      "name": "convertToMove",
      "outputs": [
        {
          "internalType": "uint16",
          "name": "",
          "type": "uint16"
        }
      ],
      "stateMutability": "pure",
      "type": "function"
    },
    {
      "inputs": [
        {
          "internalType": "string",
          "name": "",
          "type": "string"
        }
      ],
      "name": "coordinates",
      "outputs": [
        {
          "internalType": "uint256",
          "name": "",
          "type": "uint256"
        }
      ],
      "stateMutability": "view",
      "type": "function"
    },
    {
      "inputs": [
        {
          "internalType": "address",
          "name": "player1",
          "type": "address"
        },
        {
          "internalType": "address",
          "name": "wagerToken",
          "type": "address"
        },
        {
          "internalType": "uint256",
          "name": "wager",
          "type": "uint256"
        },
        {
          "internalType": "uint256",
          "name": "timeLimit",
          "type": "uint256"
        },
        {
          "internalType": "uint256",
          "name": "numberOfGames",
          "type": "uint256"
        }
      ],
      "name": "createGameWager",
      "outputs": [
        {
          "internalType": "address",
          "name": "wagerAddress",
          "type": "address"
        }
      ],
      "stateMutability": "payable",
      "type": "function"
    },
    {
      "inputs": [
        {
          "internalType": "address",
          "name": "player0",
          "type": "address"
        },
        {
          "internalType": "address",
          "name": "player1",
          "type": "address"
        },
        {
          "internalType": "address",
          "name": "wagerToken",
          "type": "address"
        },
        {
          "internalType": "uint256",
          "name": "wagerAmount",
          "type": "uint256"
        },
        {
          "internalType": "uint256",
          "name": "numberOfGames",
          "type": "uint256"
        },
        {
          "internalType": "uint256",
          "name": "timeLimit",
          "type": "uint256"
        }
      ],
      "name": "createGameWagerTournamentSingle",
      "outputs": [
        {
          "internalType": "address",
          "name": "wagerAddress",
          "type": "address"
        }
      ],
      "stateMutability": "nonpayable",
      "type": "function"
    },
    {
      "inputs": [
        {
          "internalType": "bytes",
          "name": "message",
          "type": "bytes"
        }
      ],
      "name": "decodeMoveMessage",
      "outputs": [
        {
          "internalType": "address",
          "name": "",
          "type": "address"
        },
        {
          "internalType": "uint16",
          "name": "",
          "type": "uint16"
        },
        {
          "internalType": "uint256",
          "name": "",
          "type": "uint256"
        },
        {
          "internalType": "uint256",
          "name": "",
          "type": "uint256"
        }
      ],
      "stateMutability": "pure",
      "type": "function"
    },
    {
      "inputs": [],
      "name": "deployer",
      "outputs": [
        {
          "internalType": "address",
          "name": "",
          "type": "address"
        }
      ],
      "stateMutability": "view",
      "type": "function"
    },
    {
      "inputs": [
        {
          "internalType": "address",
          "name": "wagerAddress",
          "type": "address"
        },
        {
          "internalType": "uint256",
          "name": "amount",
          "type": "uint256"
        }
      ],
      "name": "depositToWager",
      "outputs": [],
      "stateMutability": "nonpayable",
      "type": "function"
    },
    {
      "inputs": [
        {
          "internalType": "address",
          "name": "",
          "type": "address"
        }
      ],
      "name": "gameWagers",
      "outputs": [
        {
          "internalType": "address",
          "name": "player0",
          "type": "address"
        },
        {
          "internalType": "address",
          "name": "player1",
          "type": "address"
        },
        {
          "internalType": "address",
          "name": "wagerToken",
          "type": "address"
        },
        {
          "internalType": "uint256",
          "name": "wager",
          "type": "uint256"
        },
        {
          "internalType": "uint256",
          "name": "numberOfGames",
          "type": "uint256"
        },
        {
          "internalType": "bool",
          "name": "hasPlayerAccepted",
          "type": "bool"
        },
        {
          "internalType": "uint256",
          "name": "timeLimit",
          "type": "uint256"
        },
        {
          "internalType": "uint256",
          "name": "timeLastMove",
          "type": "uint256"
        },
        {
          "internalType": "uint256",
          "name": "timePlayer0",
          "type": "uint256"
        },
        {
          "internalType": "uint256",
          "name": "timePlayer1",
          "type": "uint256"
        },
        {
          "internalType": "bool",
          "name": "isTournament",
          "type": "bool"
        },
        {
          "internalType": "bool",
          "name": "isComplete",
          "type": "bool"
        }
      ],
      "stateMutability": "view",
      "type": "function"
    },
    {
      "inputs": [
        {
          "internalType": "address",
          "name": "wager",
          "type": "address"
        },
        {
          "internalType": "uint16",
          "name": "move",
          "type": "uint16"
        },
        {
          "internalType": "uint256",
          "name": "moveNumber",
          "type": "uint256"
        },
        {
          "internalType": "uint256",
          "name": "expiration",
          "type": "uint256"
        }
      ],
      "name": "generateMoveMessage",
      "outputs": [
        {
          "internalType": "bytes",
          "name": "",
          "type": "bytes"
        }
      ],
      "stateMutability": "pure",
      "type": "function"
    },
    {
      "inputs": [
        {
          "internalType": "address",
          "name": "player",
          "type": "address"
        }
      ],
      "name": "getAllUserGames",
      "outputs": [
        {
          "internalType": "address[]",
          "name": "",
          "type": "address[]"
        }
      ],
      "stateMutability": "view",
      "type": "function"
    },
    {
      "inputs": [],
      "name": "getAllWagerAddresses",
      "outputs": [
        {
          "internalType": "address[]",
          "name": "",
          "type": "address[]"
        }
      ],
      "stateMutability": "view",
      "type": "function"
    },
    {
      "inputs": [],
      "name": "getAllWagersCount",
      "outputs": [
        {
          "internalType": "uint256",
          "name": "",
          "type": "uint256"
        }
      ],
      "stateMutability": "view",
      "type": "function"
    },
    {
      "inputs": [
        {
          "internalType": "uint256",
          "name": "gameState",
          "type": "uint256"
        }
      ],
      "name": "getBoard",
      "outputs": [
        {
          "internalType": "string[64]",
          "name": "",
          "type": "string[64]"
        }
      ],
      "stateMutability": "view",
      "type": "function"
    },
    {
      "inputs": [
        {
          "internalType": "address",
          "name": "wagerAddress",
          "type": "address"
        }
      ],
      "name": "getGameLength",
      "outputs": [
        {
          "internalType": "uint256",
          "name": "",
          "type": "uint256"
        }
      ],
      "stateMutability": "view",
      "type": "function"
    },
    {
      "inputs": [
        {
          "internalType": "address",
          "name": "wagerAddress",
          "type": "address"
        },
        {
          "internalType": "uint256",
          "name": "gameID",
          "type": "uint256"
        }
      ],
      "name": "getGameMoves",
      "outputs": [
        {
          "components": [
            {
              "internalType": "uint16[]",
              "name": "moves",
              "type": "uint16[]"
            }
          ],
          "internalType": "struct ChessWager.Game",
          "name": "",
          "type": "tuple"
        }
      ],
      "stateMutability": "view",
      "type": "function"
    },
    {
      "inputs": [
        {
          "internalType": "address",
          "name": "wagerAddress",
          "type": "address"
        }
      ],
      "name": "getGameStatus",
      "outputs": [
        {
          "internalType": "uint8",
          "name": "",
          "type": "uint8"
        },
        {
          "internalType": "uint256",
          "name": "",
          "type": "uint256"
        },
        {
          "internalType": "uint32",
          "name": "",
          "type": "uint32"
        },
        {
          "internalType": "uint32",
          "name": "",
          "type": "uint32"
        }
      ],
      "stateMutability": "view",
      "type": "function"
    },
    {
      "inputs": [
        {
          "internalType": "uint8",
          "name": "piece",
          "type": "uint8"
        }
      ],
      "name": "getLetter",
      "outputs": [
        {
          "internalType": "string",
          "name": "",
          "type": "string"
        }
      ],
      "stateMutability": "view",
      "type": "function"
    },
    {
      "inputs": [
        {
          "internalType": "address",
          "name": "wager",
          "type": "address"
        },
        {
          "internalType": "uint16",
          "name": "move",
          "type": "uint16"
        },
        {
          "internalType": "uint256",
          "name": "moveNumber",
          "type": "uint256"
        },
        {
          "internalType": "uint256",
          "name": "expiration",
          "type": "uint256"
        }
      ],
      "name": "getMessageHash",
      "outputs": [
        {
          "internalType": "bytes32",
          "name": "",
          "type": "bytes32"
        }
      ],
      "stateMutability": "pure",
      "type": "function"
    },
    {
      "inputs": [
        {
          "internalType": "address",
          "name": "wagerAddress",
          "type": "address"
        }
      ],
      "name": "getPlayerMove",
      "outputs": [
        {
          "internalType": "address",
          "name": "",
          "type": "address"
        }
      ],
      "stateMutability": "view",
      "type": "function"
    },
    {
      "inputs": [
        {
          "internalType": "address",
          "name": "wagerAddress",
          "type": "address"
        }
      ],
      "name": "getWagerStatus",
      "outputs": [
        {
          "internalType": "address",
          "name": "",
          "type": "address"
        },
        {
          "internalType": "address",
          "name": "",
          "type": "address"
        },
        {
          "internalType": "uint256",
          "name": "",
          "type": "uint256"
        },
        {
          "internalType": "uint256",
          "name": "",
          "type": "uint256"
        }
      ],
      "stateMutability": "view",
      "type": "function"
    },
    {
      "inputs": [
        {
          "internalType": "uint16",
          "name": "hexMove",
          "type": "uint16"
        }
      ],
      "name": "hexToMove",
      "outputs": [
        {
          "internalType": "string",
          "name": "move",
          "type": "string"
        }
      ],
      "stateMutability": "view",
      "type": "function"
    },
    {
      "inputs": [
        {
          "internalType": "string[64]",
          "name": "coordinate",
          "type": "string[64]"
        },
        {
          "internalType": "uint256[64]",
          "name": "value",
          "type": "uint256[64]"
        }
      ],
      "name": "initCoordinates",
      "outputs": [],
      "stateMutability": "nonpayable",
      "type": "function"
    },
    {
      "inputs": [
        {
          "internalType": "address",
          "name": "wagerAddress",
          "type": "address"
        },
        {
          "internalType": "address",
          "name": "player",
          "type": "address"
        }
      ],
      "name": "isPlayerWhite",
      "outputs": [
        {
          "internalType": "bool",
          "name": "",
          "type": "bool"
        }
      ],
      "stateMutability": "view",
      "type": "function"
    },
    {
      "inputs": [
        {
          "internalType": "string",
          "name": "move",
          "type": "string"
        }
      ],
      "name": "moveToHex",
      "outputs": [
        {
          "internalType": "uint16",
          "name": "hexMove",
          "type": "uint16"
        }
      ],
      "stateMutability": "view",
      "type": "function"
    },
    {
      "inputs": [],
      "name": "moveVerification",
      "outputs": [
        {
          "internalType": "contract MoveVerification",
          "name": "",
          "type": "address"
        }
      ],
      "stateMutability": "view",
      "type": "function"
    },
    {
      "inputs": [
        {
          "internalType": "address",
          "name": "wagerAddress",
          "type": "address"
        }
      ],
      "name": "payoutWager",
      "outputs": [
        {
          "internalType": "bool",
          "name": "",
          "type": "bool"
        }
      ],
      "stateMutability": "nonpayable",
      "type": "function"
    },
    {
      "inputs": [
        {
          "internalType": "address",
          "name": "wagerAddress",
          "type": "address"
        },
        {
          "internalType": "uint16",
          "name": "move",
          "type": "uint16"
        }
      ],
      "name": "playMove",
      "outputs": [
        {
          "internalType": "bool",
          "name": "",
          "type": "bool"
        }
      ],
      "stateMutability": "nonpayable",
      "type": "function"
    },
    {
      "inputs": [],
      "name": "protocolFee",
      "outputs": [
        {
          "internalType": "uint256",
          "name": "",
          "type": "uint256"
        }
      ],
      "stateMutability": "view",
      "type": "function"
    },
    {
      "inputs": [
        {
          "internalType": "uint256",
          "name": "",
          "type": "uint256"
        }
      ],
      "name": "squareToCoordinate",
      "outputs": [
        {
          "internalType": "string",
          "name": "",
          "type": "string"
        }
      ],
      "stateMutability": "view",
      "type": "function"
    },
    {
      "inputs": [
        {
          "internalType": "address",
          "name": "wagerAddress",
          "type": "address"
        }
      ],
      "name": "startWagersInTournament",
      "outputs": [],
      "stateMutability": "nonpayable",
      "type": "function"
    },
    {
      "inputs": [
        {
          "internalType": "address",
          "name": "wagerAddress",
          "type": "address"
        }
      ],
      "name": "updateWagerStateInsufficientMaterial",
      "outputs": [
        {
          "internalType": "bool",
          "name": "",
          "type": "bool"
        }
      ],
      "stateMutability": "nonpayable",
      "type": "function"
    },
    {
      "inputs": [
        {
          "internalType": "address",
          "name": "wagerAddress",
          "type": "address"
        }
      ],
      "name": "updateWagerStateTime",
      "outputs": [
        {
          "internalType": "bool",
          "name": "",
          "type": "bool"
        }
      ],
      "stateMutability": "nonpayable",
      "type": "function"
    },
    {
      "inputs": [
        {
          "internalType": "address",
          "name": "",
          "type": "address"
        },
        {
          "internalType": "uint256",
          "name": "",
          "type": "uint256"
        }
      ],
      "name": "userGames",
      "outputs": [
        {
          "internalType": "address",
          "name": "",
          "type": "address"
        }
      ],
      "stateMutability": "view",
      "type": "function"
    },
    {
      "inputs": [
        {
          "internalType": "bytes[]",
          "name": "message",
          "type": "bytes[]"
        },
        {
          "internalType": "bytes[]",
          "name": "signature",
          "type": "bytes[]"
        }
      ],
      "name": "verifyGameUpdateState",
      "outputs": [
        {
          "internalType": "bool",
          "name": "",
          "type": "bool"
        }
      ],
      "stateMutability": "nonpayable",
      "type": "function"
    },
    {
      "inputs": [
        {
          "internalType": "bytes[]",
          "name": "messages",
          "type": "bytes[]"
        },
        {
          "internalType": "bytes[]",
          "name": "signatures",
          "type": "bytes[]"
        }
      ],
      "name": "verifyGameView",
      "outputs": [
        {
          "internalType": "address",
          "name": "wagerAddress",
          "type": "address"
        },
        {
          "internalType": "uint8",
          "name": "outcome",
          "type": "uint8"
        },
        {
          "internalType": "uint16[]",
          "name": "moves",
          "type": "uint16[]"
        }
      ],
      "stateMutability": "view",
      "type": "function"
    },
    {
      "inputs": [
        {
          "internalType": "address",
          "name": "",
          "type": "address"
        }
      ],
      "name": "wagerPrizes",
      "outputs": [
        {
          "internalType": "uint256",
          "name": "",
          "type": "uint256"
        }
      ],
      "stateMutability": "view",
      "type": "function"
    },
    {
      "inputs": [
        {
          "internalType": "address",
          "name": "",
          "type": "address"
        }
      ],
      "name": "wagerStatus",
      "outputs": [
        {
          "internalType": "bool",
          "name": "isPlayer0White",
          "type": "bool"
        },
        {
          "internalType": "uint256",
          "name": "winsPlayer0",
          "type": "uint256"
        },
        {
          "internalType": "uint256",
          "name": "winsPlayer1",
          "type": "uint256"
        }
      ],
      "stateMutability": "view",
      "type": "function"
    }
  ],
  "bytecode": "0x60806040526101f46005553480156200001757600080fd5b5060405162005f5038038062005f508339810160408190526200003a916200050f565b600480546001600160a01b0319166001600160a01b0386161790556200005f620000b0565b600d80546001600160a01b039485166001600160a01b031991821617909155600e805493851693821693909317909255600f80549190931690821617909155600380549091163317905550620006df565b6040805180820190915260018152601760f91b602080830191909152600080805290527fad3228b676f7d3cd4284a5443f17f1962b36e491b30a40b2405849e597ba5fb59062000101908262000613565b50604080518082019091526001808252600560fc1b6020808401919091526000918252527fada5013122d395ba3c54772283fb069b10426056ef8ca54750cb9bb552a59e7d9062000153908262000613565b506040805180820190915260018152602160f91b6020808301919091526002600090815290527fabbb5caa7dda850e60932de0934eb1f9d0f59695050f761dc64e443e5030a56990620001a7908262000613565b506040805180820190915260018152602760f91b6020808301919091526003600090815290527f101e368776582e57ab3d116ffe2517c0a585cd5b23174b01e275c2d8329c3d8390620001fb908262000613565b506040805180820190915260018152602960f91b6020808301919091526004600090815290527f52d75039926638d3c558b2bdefb945d5be8dae29dedd1c313212a4d472d9fde5906200024f908262000613565b506040805180820190915260018152605160f81b6020808301919091526005600090815290527f2b232c97452f0950c94e2539fdc7e69d21166113cf7a9bcb99b220a3fe5d720a90620002a3908262000613565b506040805180820190915260018152604b60f81b6020808301919091526006600090815290527f62103cf3131c85df57aad364d21cba02556d3092d6cb54c298c2e7726a7870bd90620002f7908262000613565b506040805180820190915260018152600760fc1b6020808301919091526009600090815290527f324fdf7bfe7bd2828491073f0b7868a9a19ee3eff384c2805040be3e426447f5906200034b908262000613565b506040805180820190915260018152603160f91b602080830191909152600a600090815290527f3e9abaca0aad9ede81f4474766c846d8539f70688e1c8f521bbe1597874e3dc4906200039f908262000613565b506040805180820190915260018152603760f91b602080830191909152600b600090815290527f9115655cbcdb654012cf1b2f7e5dbf11c9ef14e152a19d5f8ea75a329092d5a690620003f3908262000613565b506040805180820190915260018152603960f91b602080830191909152600c600090815290527fd0a75bf7ea87fba36ff8a17b4519c45fb727609e6c9161b106680b25b3e2705f9062000447908262000613565b506040805180820190915260018152607160f81b602080830191909152600d600090815290527f7ca5987043ac53676c6e30f77ff1a34e98a5fae86b27e5d0cf74ac1711b8a8db906200049b908262000613565b506040805180820190915260018152606b60f81b602080830191909152600e600090815290527fe9bc119772df33ac6a685b572c53e6a4988bbdde79a460a23bed029791109f3990620004ef908262000613565b50565b80516001600160a01b03811681146200050a57600080fd5b919050565b600080600080608085870312156200052657600080fd5b6200053185620004f2565b93506200054160208601620004f2565b92506200055160408601620004f2565b91506200056160608601620004f2565b905092959194509250565b634e487b7160e01b600052604160045260246000fd5b600181811c908216806200059757607f821691505b602082108103620005b857634e487b7160e01b600052602260045260246000fd5b50919050565b601f8211156200060e576000816000526020600020601f850160051c81016020861015620005e95750805b601f850160051c820191505b818110156200060a57828155600101620005f5565b5050505b505050565b81516001600160401b038111156200062f576200062f6200056c565b620006478162000640845462000582565b84620005be565b602080601f8311600181146200067f5760008415620006665750858301515b600019600386901b1c1916600185901b1785556200060a565b600085815260208120601f198616915b82811015620006b0578886015182559484019460019091019084016200068f565b5085821015620006cf5787850151600019600388901b60f8161c191681555b5050505050600190811b01905550565b61586180620006ef6000396000f3fe6080604052600436106103085760003560e01c80638e62569a1161019a578063d5f39488116100e1578063e7bbf8c91161008a578063f63045af11610064578063f63045af14610a8e578063fb7275e014610aae578063fe2cbfa814610bac57600080fd5b8063e7bbf8c9146109b8578063e9f0dac7146109e5578063f4b8dfbb14610a6e57600080fd5b8063d8b80bef116100bb578063d8b80bef14610918578063e113ced914610978578063e3e9956c1461099857600080fd5b8063d5f394881461088b578063d7fde3f0146108ab578063d865998d146108cb57600080fd5b8063b6c6c76211610143578063c244c1cc1161011d578063c244c1cc1461081e578063c50cf3ba1461084b578063ce897f831461086b57600080fd5b8063b6c6c762146107be578063bc0167cd146107de578063c0be6652146107fe57600080fd5b8063a9a8d7e111610174578063a9a8d7e114610768578063aab66de514610788578063b0e21e8a146107a857600080fd5b80638e62569a146106b65780639c2cc0ca146107135780639d44548c1461074857600080fd5b80633857eb371161025e5780634d943c37116102075780635d408c6e116101e15780635d408c6e146106325780636c51f038146106525780636f984f3d1461069657600080fd5b80634d943c371461059557806354e4437e146105b557806356e09bc11461060557600080fd5b80633fc9b5c7116102385780633fc9b5c7146105125780634393f7621461053257806345e09e541461056857600080fd5b80633857eb37146104bf57806339b86179146104df5780633d1f6de5146104ff57600080fd5b80631673b942116102c05780631d9f45ee1161029a5780631d9f45ee1461046a5780631e0e29cd1461048a57806335be391f146104aa57600080fd5b80631673b942146103f557806318071ef3146104285780631a596a091461044a57600080fd5b80630e8d4fa9116102f15780630e8d4fa91461037a5780631300e975146103a95780631608a4df146103c857600080fd5b806302d4defb1461030d57806302e3f0bf1461034a575b600080fd5b34801561031957600080fd5b50600d5461032d906001600160a01b031681565b6040516001600160a01b0390911681526020015b60405180910390f35b34801561035657600080fd5b5061036a610365366004614ba6565b610be4565b6040519015158152602001610341565b34801561038657600080fd5b5061039a610395366004614d41565b61103a565b60405161034193929190614de5565b3480156103b557600080fd5b50600c545b604051908152602001610341565b3480156103d457600080fd5b506103e86103e3366004614ba6565b611345565b6040516103419190614e19565b34801561040157600080fd5b50610415610410366004614e75565b6113bb565b60405161ffff9091168152602001610341565b34801561043457600080fd5b50610448610443366004614ba6565b6113dd565b005b34801561045657600080fd5b50600e5461032d906001600160a01b031681565b34801561047657600080fd5b5060045461032d906001600160a01b031681565b34801561049657600080fd5b506104486104a5366004614ec0565b611471565b3480156104b657600080fd5b506103e8611598565b3480156104cb57600080fd5b506104486104da366004614ba6565b6115fa565b3480156104eb57600080fd5b506103ba6104fa366004614f20565b611674565b61032d61050d366004614f66565b6116e0565b34801561051e57600080fd5b5061036a61052d366004614ba6565b611b34565b34801561053e57600080fd5b506103ba61054d366004614ba6565b6001600160a01b031660009081526009602052604090205490565b34801561057457600080fd5b50610588610583366004614fb7565b611d06565b6040516103419190615020565b3480156105a157600080fd5b5061036a6105b0366004614d41565b611e51565b3480156105c157600080fd5b506105d56105d0366004614ba6565b611ef0565b6040805160ff9095168552602085019390935263ffffffff91821692840192909252166060820152608001610341565b34801561061157600080fd5b50610625610620366004614fb7565b6120f7565b604051610341919061506e565b34801561063e57600080fd5b5061036a61064d366004615081565b612191565b34801561065e57600080fd5b5061067c61066d3660046150af565b603f600682901c811692911690565b6040805160ff938416815292909116602083015201610341565b3480156106a257600080fd5b5061036a6106b1366004614ba6565b6121fc565b3480156106c257600080fd5b506106f66106d1366004614ba6565b600a6020526000908152604090208054600182015460029092015460ff909116919083565b604080519315158452602084019290925290820152606001610341565b34801561071f57600080fd5b5061073361072e366004614ba6565b6123bf565b60408051928352602083019190915201610341565b34801561075457600080fd5b5061036a6107633660046150cc565b61249f565b34801561077457600080fd5b5061036a610783366004614ba6565b6127c5565b34801561079457600080fd5b5060105461032d906001600160a01b031681565b3480156107b457600080fd5b506103ba60055481565b3480156107ca57600080fd5b5061032d6107d9366004614ba6565b612b01565b3480156107ea57600080fd5b5061032d6107f93660046150fa565b612bf7565b34801561080a57600080fd5b506106256108193660046150af565b612c2f565b34801561082a57600080fd5b5061083e6108393660046150fa565b612db0565b6040516103419190615126565b34801561085757600080fd5b5061062561086636600461517a565b612e64565b34801561087757600080fd5b506104486108863660046150fa565b612f0c565b34801561089757600080fd5b5060035461032d906001600160a01b031681565b3480156108b757600080fd5b50600f5461032d906001600160a01b031681565b3480156108d757600080fd5b506108eb6108e6366004615197565b612fd8565b604080516001600160a01b03909516855261ffff9093166020850152918301526060820152608001610341565b34801561092457600080fd5b50610625610933366004614f20565b604080516001600160a01b0395909516602086015261ffff939093168484015260608401919091526080808401919091528151808403909101815260a0909201905290565b34801561098457600080fd5b506104156109933660046151cc565b61300b565b3480156109a457600080fd5b5061032d6109b3366004615215565b613239565b3480156109c457600080fd5b506103ba6109d3366004614ba6565b60076020526000908152604090205481565b3480156109f157600080fd5b50610a43610a00366004614ba6565b6001600160a01b0390811660009081526006602090815260408083208054600191820154600a909452919093209283015460029093015490841694919093169290565b604080516001600160a01b039586168152949093166020850152918301526060820152608001610341565b348015610a7a57600080fd5b5061032d610a89366004614fb7565b613687565b348015610a9a57600080fd5b50610448610aa9366004614ba6565b6136b1565b348015610aba57600080fd5b50610b40610ac9366004614ba6565b600660208190526000918252604090912080546001820154600283015460038401546004850154600586015496860154600787015460088801546009890154600a909901546001600160a01b039889169a9789169998909616979496939560ff94851695939492939192808216916101009004168c565b604080516001600160a01b039d8e1681529b8d1660208d015299909b16988a01989098526060890196909652608088019490945291151560a087015260c086015260e0850152610100840152610120830152151561014082015290151561016082015261018001610341565b348015610bb857600080fd5b506103ba610bc73660046151cc565b805160208183018101805160018252928201919093012091525481565b6001600160a01b03818116600090815260066020526040812054909116331480610c2a57506001600160a01b038281166000908152600660205260409020600101541633145b610c7b5760405162461bcd60e51b815260206004820152600a60248201527f6e6f74206c69737465640000000000000000000000000000000000000000000060448201526064015b60405180910390fd5b6001600160a01b0382166000908152600660205260409020600a015460ff610100909104161515600114610cf15760405162461bcd60e51b815260206004820152601260248201527f7761676572206e6f742066696e697368656400000000000000000000000000006044820152606401610c72565b6001600160a01b0382166000908152600660205260409020600a015460ff1615610d835760405162461bcd60e51b815260206004820152603160248201527f746f75726e616d656e74207061796d656e742068616e646c656420627920746f60448201527f75726e616d656e7420636f6e74726163740000000000000000000000000000006064820152608401610c72565b6001600160a01b0382166000908152600a60205260408120600281015460019091015403610de0576001600160a01b0383166000908152600660205260408120600401805491610dd2836152a9565b909155506000949350505050565b6001600160a01b0383166000908152600a6020526040902060028101546001909101541115610e2a57506001600160a01b0380831660009081526006602052604090205416610e4a565b506001600160a01b03808316600090815260066020526040902060010154165b610e5381613864565b6001600160a01b0380841660009081526006602052604081206002808201546003909201549190931692610e8791906152e1565b6001600160a01b038616600090815260076020818152604080842080546006845291852060030185905592909152908290556005549293509161271090610ece84866152f8565b610ed891906152e1565b610ee2919061533a565b9050600081610ef184866152f8565b610efb919061534e565b600e54909150610f18906001600160a01b038781169116846138dd565b610f2c6001600160a01b03861687836138dd565b600f546040517f74e7c8250000000000000000000000000000000000000000000000000000000081526001600160a01b0388811660048301528a81166024830152909116906374e7c825906044016020604051808303816000875af1158015610f99573d6000803e3d6000fd5b505050506040513d601f19601f82011682018060405250810190610fbd9190615361565b50610fc782613986565b610fd081613986565b600554604080516001600160a01b038b811682528981166020830152881681830152606081018490526080810192909252517f17ba55c6dfeb1e13fe6a10375284f63094ead0bb4ca2ac7864e62e18a9adc9129181900360a00190a1506001979650505050505050565b600080606083518551146110905760405162461bcd60e51b815260206004820152601260248201527f6d73672e6c656e203d3d207369672e6c656e00000000000000000000000000006044820152606401610c72565b6110b3856000815181106110a6576110a661537a565b60200260200101516139f9565b925060006110c084612b01565b6001600160a01b0380861660009081526006602052604090208054600190910154929350811691166110f58383838b8b613a1b565b6001600160a01b03871660009081526008602090815260408083206009835281842054845282528083208054825181850281018501909352808352949850929390929183018282801561118f57602002820191906000526020600020906000905b82829054906101000a900461ffff1661ffff16815260200190600201906020826001010492830192600103820291508084116111565790505b505050505090506000815111156112ab576000855182516111b091906152f8565b67ffffffffffffffff8111156111c8576111c8614bca565b6040519080825280602002602001820160405280156111f1578160200160208202803683370190505b50905060005b8251811015611247578281815181106112125761121261537a565b602002602001015182828151811061122c5761122c61537a565b61ffff909216602092830291909101909101526001016111f7565b5060005b86518110156112a7578681815181106112665761126661537a565b60200260200101518284518361127c91906152f8565b8151811061128c5761128c61537a565b61ffff9092166020928302919091019091015260010161124b565b5094505b600480546040517fc668ddb40000000000000000000000000000000000000000000000000000000081526001600160a01b039091169163c668ddb4916112f3918991016153a9565b608060405180830381865afa158015611310573d6000803e3d6000fd5b505050506040513d601f19601f8201168201806040525081019061133491906153d5565b509197505050505050509250925092565b6001600160a01b0381166000908152600b60209081526040918290208054835181840281018401909452808452606093928301828280156113af57602002820191906000526020600020905b81546001600160a01b03168152600190910190602001808311611391575b50505050509050919050565b6000613fc0600684901b166113d360ff841682615425565b9150505b92915050565b6003546001600160a01b031633146114375760405162461bcd60e51b815260206004820152600d60248201527f4f6e6c79206465706c6f796572000000000000000000000000000000000000006044820152606401610c72565b601080547fffffffffffffffffffffffff0000000000000000000000000000000000000000166001600160a01b0392909216919091179055565b6003546001600160a01b031633146114cb5760405162461bcd60e51b815260206004820152600d60248201527f4f6e6c79206465706c6f796572000000000000000000000000000000000000006044820152606401610c72565b60005b6040811215611593578181604081106114e9576114e961537a565b602002013560018483604081106115025761150261537a565b6020028101906115129190615447565b6040516115209291906154ac565b9081526020016040518091039020819055508281604081106115445761154461537a565b6020028101906115549190615447565b6002600085856040811061156a5761156a61537a565b60200201358152602001908152602001600020918261158a929190615557565b506001016114ce565b505050565b6060600c8054806020026020016040519081016040528092919081815260200182805480156115f057602002820191906000526020600020905b81546001600160a01b031681526001909101906020018083116115d2575b5050505050905090565b6010546001600160a01b031633146116545760405162461bcd60e51b815260206004820152601760248201527f6e6f7420746f75726e616d656e7420636f6e74726163740000000000000000006044820152606401610c72565b6001600160a01b0316600090815260066020526040902042600790910155565b604080516001600160a01b038616602082015261ffff8516818301526060810184905260808082018490528251808303909101815260a082019092526000916116bf9160c001615654565b6040516020818303038152906040528051906020012090505b949350505050565b6040805161018081018252338082526001600160a01b03888116602084015287169282018390526060820186905260808201849052600060a0830181905260c0830186905260e08301819052610100830181905261012083018190526101408301819052610160830181905292611758913088613d04565b61176181613d5b565b6001600160a01b0380821660009081526006602052604090205491935016156117cc5760405162461bcd60e51b815260206004820152601660248201527f6661696c656420746f20637265617465207761676572000000000000000000006044820152606401610c72565b8060066000846001600160a01b03166001600160a01b0316815260200190815260200160002060008201518160000160006101000a8154816001600160a01b0302191690836001600160a01b0316021790555060208201518160010160006101000a8154816001600160a01b0302191690836001600160a01b0316021790555060408201518160020160006101000a8154816001600160a01b0302191690836001600160a01b03160217905550606082015181600301556080820151816004015560a08201518160050160006101000a81548160ff02191690831515021790555060c0820151816006015560e082015181600701556101008201518160080155610120820151816009015561014082015181600a0160006101000a81548160ff02191690831515021790555061016082015181600a0160016101000a81548160ff02191690831515021790555090505060006040518060600160405280600015158152602001600081526020016000815250905080600a6000856001600160a01b03166001600160a01b0316815260200190815260200160002060008201518160000160006101000a81548160ff0219169083151502179055506020820151816001015560408201518160020155905050600b6000336001600160a01b03166001600160a01b03168152602001908152602001600020839080600181540180825580915050600190039060005260206000200160009091909190916101000a8154816001600160a01b0302191690836001600160a01b03160217905550600b6000896001600160a01b03166001600160a01b03168152602001908152602001600020839080600181540180825580915050600190039060005260206000200160009091909190916101000a8154816001600160a01b0302191690836001600160a01b03160217905550600c839080600181540180825580915050600190039060005260206000200160009091909190916101000a8154816001600160a01b0302191690836001600160a01b031602179055507f8b71196164839daf146c1f61cf5c3d0aa0590d17e7d96013d972d1ad72a459728388888888604051611b219594939291906001600160a01b03958616815293909416602084015260408301919091526060820152608081019190915260a00190565b60405180910390a1505095945050505050565b6001600160a01b038116600090815260066020526040812060040154611b5983613ed5565b1115611ba75760405162461bcd60e51b815260206004820152600b60248201527f776167657220656e6465640000000000000000000000000000000000000000006044820152606401610c72565b6001600160a01b0382166000908152600660205260408120600701549003611c115760405162461bcd60e51b815260206004820181905260248201527f746f75726e616d656e74206d61746368206e6f742073746172746564207965746044820152606401610c72565b600080611c1d846123bf565b915091506000821215611cc5576001600160a01b0384166000908152600a60205260408120600201805460019290611c569084906152f8565b9091555050506001600160a01b039092166000908152600a6020908152604080832080547fffffffffffffffffffffffffffffffffffffffffffffffffffffffffffffff00811660ff909116151790556009825282208054600181810183559184529190922081015592915050565b6000811215611cfc576001600160a01b0384166000908152600a602052604081206001908101805491929091611c569084906152f8565b5060009392505050565b611d0e614aab565b611d16614aab565b6000805b60078111611e485760006001611d308382615670565b611d3b906008615698565b611d4591906156e4565b90506000611d546007836156e4565b90505b808212611e3357600480546040517fa4a10e0b00000000000000000000000000000000000000000000000000000000815291820189905260ff841660248301526000916001600160a01b039091169063a4a10e0b90604401602060405180830381865afa158015611dcc573d6000803e3d6000fd5b505050506040513d601f19601f82011682018060405250810190611df09190615704565b9050611dfb81612e64565b868660408110611e0d57611e0d61537a565b602002015284611e1c816152a9565b955050508180611e2b90615721565b925050611d57565b50508080611e40906152a9565b915050611d1a565b50909392505050565b600080600080611e61868661103a565b6001600160a01b0383166000908152600960209081526040808320546008835281842081855283529220835195985060ff94909416965091945092611ea99291850190614ad3565b508215611ec757611eb984613ef9565b5060019450505050506113d7565b82600003611ee357611ed8846127c5565b9450505050506113d7565b60009450505050506113d7565b6001600160a01b03811660009081526009602090815260408083205460088352818420818552835281842080548351818602810186019094528084528594859485949385939192909190830182828015611f9157602002820191906000526020600020906000905b82829054906101000a900461ffff1661ffff1681526020019060020190602082600101049283019260010382029150808411611f585790505b505050505090508051600003612050576001600160a01b038716600090815260086020526040812090611fc560018561534e565b815260200190815260200160002060000180548060200260200160405190810160405280929190818152602001828054801561204857602002820191906000526020600020906000905b82829054906101000a900461ffff1661ffff168152602001906002019060208260010104928301926001038202915080841161200f5790505b505050505090505b600480546040517fc668ddb40000000000000000000000000000000000000000000000000000000081526000928392839283926001600160a01b039092169163c668ddb4916120a1918991016153a9565b608060405180830381865afa1580156120be573d6000803e3d6000fd5b505050506040513d601f19601f820116820180604052508101906120e291906153d5565b929e919d509b50909950975050505050505050565b60026020526000908152604090208054612110906154bc565b80601f016020809104026020016040519081016040528092919081815260200182805461213c906154bc565b80156121895780601f1061215e57610100808354040283529160200191612189565b820191906000526020600020905b81548152906001019060200180831161216c57829003601f168201915b505050505081565b6001600160a01b0382811660009081526006602052604081205490918084169116036121d957506001600160a01b0382166000908152600a602052604090205460ff166113d7565b506001600160a01b0382166000908152600a602052604090205460ff16156113d7565b6001600160a01b03811660009081526006602052604081206005015460ff16156122685760405162461bcd60e51b815260206004820152600b60248201527f696e2070726f67726573730000000000000000000000000000000000000000006044820152606401610c72565b6001600160a01b038281166000908152600660205260409020541633146122d15760405162461bcd60e51b815260206004820152600a60248201527f6e6f74206c6973746564000000000000000000000000000000000000000000006044820152606401610c72565b6001600160a01b0382166000908152600660205260409020600a015460ff161561233d5760405162461bcd60e51b815260206004820152601e60248201527f63616e6e6f742063616e63656c20746f75726e616d656e7420776167657200006044820152606401610c72565b6001600160a01b038083166000908152600660205260408120600281015460039091018054929055909116906123748233836138dd565b604080516001600160a01b03861681523360208201527fd7ac1994f37f26b02459758a4564d000ddb3e6b64c724bd513845d43b2a991c1910160405180910390a15060019392505050565b6001600160a01b03808216600090815260066020526040812080546008820154600983015460079093015493948594921692909184906123ff904261534e565b6001600160a01b03881660009081526006602081905260408220015491925061242789612b01565b9050600080876001600160a01b0316836001600160a01b03160361246c5761244f87866152f8565b61245990856156e4565b915061246586856156e4565b905061248f565b61247687856156e4565b915061248286866152f8565b61248c90856156e4565b90505b909a909950975050505050505050565b6000336124ab84612b01565b6001600160a01b0316146125015760405162461bcd60e51b815260206004820152600d60248201527f4e6f7420796f7572207475726e000000000000000000000000000000000000006044820152606401610c72565b6001600160a01b03831660009081526006602052604090206004015461252684613ed5565b11156125745760405162461bcd60e51b815260206004820152600b60248201527f576167657220656e6465640000000000000000000000000000000000000000006044820152606401610c72565b6001600160a01b03831660009081526006602052604081206007015490036125de5760405162461bcd60e51b815260206004820152601a60248201527f546f75726e616d656e74206e6f742073746172746564207965740000000000006044820152606401610c72565b6125e883336143b8565b60006125f384611b34565b905080156126055760019150506113d7565b6001600160a01b03841660009081526009602090815260408083205460088352818420818552909252822054909161263e8260016152f8565b67ffffffffffffffff81111561265657612656614bca565b60405190808252806020026020018201604052801561267f578160200160208202803683370190505b50905060005b82811015612713576001600160a01b038816600090815260086020908152604080832087845290915290208054829081106126c2576126c261537a565b90600052602060002090601091828204019190066002029054906101000a900461ffff168282815181106126f8576126f861537a565b61ffff90921660209283029190910190910152600101612685565b50858183815181106127275761272761537a565b61ffff9092166020928302919091018201526001600160a01b038816600090815260088252604080822086835283529020825161276692840190614ad3565b50600061277288613ef9565b604080516001600160a01b038b16815261ffff8a1660208201529192507f9fc19a6b17c82c9f9699088172073341a17ba160046632ca547fbc74ff5543fd910160405180910390a1979650505050505050565b6001600160a01b0381166000908152600660205260408120600401546127ea83613ed5565b11156128385760405162461bcd60e51b815260206004820152600b60248201527f776167657220656e6465640000000000000000000000000000000000000000006044820152606401610c72565b6001600160a01b03821660009081526009602090815260408083205460088352818420818552835281842080548351818602810186019094528084529194939091908301828280156128d157602002820191906000526020600020906000905b82829054906101000a900461ffff1661ffff16815260200190600201906020826001010492830192600103820291508084116128985790505b5050600480546040517fc668ddb40000000000000000000000000000000000000000000000000000000081529596506000956001600160a01b03909116945063c668ddb4935061292492508691016153a9565b608060405180830381865afa158015612941573d6000803e3d6000fd5b505050506040513d601f19601f8201168201806040525081019061296591906153d5565b5050600480546040517f40c02d2c000000000000000000000000000000000000000000000000000000008152929450600093506001600160a01b0316916340c02d2c916129b89186910190815260200190565b602060405180830381865afa1580156129d5573d6000803e3d6000fd5b505050506040513d601f19601f820116820180604052508101906129f99190615778565b90508015612af5576001600160a01b0386166000908152600a602052604081206001908101805491929091612a2f9084906152f8565b90915550506001600160a01b0386166000908152600a60205260408120600201805460019290612a609084906152f8565b90915550506001600160a01b0386166000818152600a6020908152604080832080547fffffffffffffffffffffffffffffffffffffffffffffffffffffffffffffff00811660ff9091161517905560098252808320805460018181018355918552838520810155938352600690915281206004018054909190612ae49084906152f8565b909155506001979650505050505050565b50600095945050505050565b6001600160a01b03811660008181526009602090815260408083205460088352818420818552835281842054948452600a9092528220549192909160ff168015612b9e57612b5060028361579a565b600103612b7c57505050506001600160a01b039081166000908152600660205260409020600101541690565b505050506001600160a01b039081166000908152600660205260409020541690565b612ba960028361579a565b600103612bd257505050506001600160a01b039081166000908152600660205260409020541690565b505050506001600160a01b039081166000908152600660205260409020600101541690565b600b6020528160005260406000208181548110612c1357600080fd5b6000918252602090912001546001600160a01b03169150829050565b600681901c60ff8116600090815260026020526040812080546060936103ff1692603f8616929091612c60906154bc565b80601f0160208091040260200160405190810160405280929190818152602001828054612c8c906154bc565b8015612cd95780601f10612cae57610100808354040283529160200191612cd9565b820191906000526020600020905b815481529060010190602001808311612cbc57829003601f168201915b505050505090506000600260008460ff1681526020019081526020016000208054612d03906154bc565b80601f0160208091040260200160405190810160405280929190818152602001828054612d2f906154bc565b8015612d7c5780601f10612d5157610100808354040283529160200191612d7c565b820191906000526020600020905b815481529060010190602001808311612d5f57829003601f168201915b505050505090508181604051602001612d969291906157ae565b604051602081830303815290604052945050505050919050565b6040805160208082018352606082526001600160a01b038516600090815260088252838120858252825283902083518154808402820186018652928101838152939490939192849291849190840182828015612e5357602002820191906000526020600020906000905b82829054906101000a900461ffff1661ffff1681526020019060020190602082600101049283019260010382029150808411612e1a5790505b505050505081525050905092915050565b60ff8116600090815260208190526040812080546060929190612e86906154bc565b80601f0160208091040260200160405190810160405280929190818152602001828054612eb2906154bc565b8015612eff5780601f10612ed457610100808354040283529160200191612eff565b820191906000526020600020905b815481529060010190602001808311612ee257829003601f168201915b5093979650505050505050565b6001600160a01b0382166000908152600660205260409020600a0154610100900460ff1615612f7d5760405162461bcd60e51b815260206004820152600f60248201527f776167657220636f6d706c6574656400000000000000000000000000000000006044820152606401610c72565b6001600160a01b03808316600090815260066020526040902060020154612fa79116333084613d04565b6001600160a01b03821660009081526007602052604081208054839290612fcf9084906152f8565b90915550505050565b60008060008060008060008088806020019051810190612ff891906157dd565b929c919b50995090975095505050505050565b60408051808201825260028082527f303000000000000000000000000000000000000000000000000000000000000060208084018290528451808601909552918452908301528251600092849291839085906130695761306961537a565b602001015160f81c60f81b826000815181106130875761308761537a565b60200101907effffffffffffffffffffffffffffffffffffffffffffffffffffffffffffff1916908160001a905350826001815181106130c9576130c961537a565b602001015160f81c60f81b826001815181106130e7576130e761537a565b60200101907effffffffffffffffffffffffffffffffffffffffffffffffffffffffffffff1916908160001a905350826002815181106131295761312961537a565b602001015160f81c60f81b816000815181106131475761314761537a565b60200101907effffffffffffffffffffffffffffffffffffffffffffffffffffffffffffff1916908160001a905350826003815181106131895761318961537a565b602001015160f81c60f81b816001815181106131a7576131a761537a565b60200101907effffffffffffffffffffffffffffffffffffffffffffffffffffffffffffff1916908160001a905350604051829082906000906001906131ee908590615654565b908152602001604051809103902054905060006001836040516132119190615654565b908152602001604051809103902054905061322c82826113bb565b9998505050505050505050565b6010546000906001600160a01b031633146132965760405162461bcd60e51b815260206004820152601760248201527f6e6f7420746f75726e616d656e7420636f6e74726163740000000000000000006044820152606401610c72565b6000604051806101800160405280896001600160a01b03168152602001886001600160a01b03168152602001876001600160a01b0316815260200186815260200185815260200160011515815260200184815260200160008152602001600081526020016000815260200160011515815260200160001515815250905061331c81613d5b565b91508060066000846001600160a01b03166001600160a01b0316815260200190815260200160002060008201518160000160006101000a8154816001600160a01b0302191690836001600160a01b0316021790555060208201518160010160006101000a8154816001600160a01b0302191690836001600160a01b0316021790555060408201518160020160006101000a8154816001600160a01b0302191690836001600160a01b03160217905550606082015181600301556080820151816004015560a08201518160050160006101000a81548160ff02191690831515021790555060c0820151816006015560e082015181600701556101008201518160080155610120820151816009015561014082015181600a0160006101000a81548160ff02191690831515021790555061016082015181600a0160016101000a81548160ff02191690831515021790555090505060006040518060600160405280600015158152602001600081526020016000815250905080600a6000856001600160a01b03166001600160a01b0316815260200190815260200160002060008201518160000160006101000a81548160ff0219169083151502179055506020820151816001015560408201518160020155905050600b60008a6001600160a01b03166001600160a01b03168152602001908152602001600020839080600181540180825580915050600190039060005260206000200160009091909190916101000a8154816001600160a01b0302191690836001600160a01b03160217905550600b6000896001600160a01b03166001600160a01b03168152602001908152602001600020839080600181540180825580915050600190039060005260206000200160009091909190916101000a8154816001600160a01b0302191690836001600160a01b03160217905550600c839080600181540180825580915050600190039060005260206000200160009091909190916101000a8154816001600160a01b0302191690836001600160a01b031602179055507f8b71196164839daf146c1f61cf5c3d0aa0590d17e7d96013d972d1ad72a4597283888887896040516136739594939291906001600160a01b03958616815293909416602084015260408301919091526060820152608081019190915260a00190565b60405180910390a150509695505050505050565b600c818154811061369757600080fd5b6000918252602090912001546001600160a01b0316905081565b6001600160a01b038082166000908152600660205260409020600101541680613747576001600160a01b038216600081815260066020908152604080832060019081018054337fffffffffffffffffffffffff00000000000000000000000000000000000000009182168117909255908552600b84529184208054918201815584529190922001805490911690911790556137b3565b6001600160a01b038281166000908152600660205260409020600101541633146137b35760405162461bcd60e51b815260206004820152601560248201527f6d73672e73656e64657220213d20706c617965723100000000000000000000006044820152606401610c72565b6001600160a01b038083166000908152600660205260409020600281015460038201546005830180547fffffffffffffffffffffffffffffffffffffffffffffffffffffffffffffff00166001179055426007909301929092559091169061381d82333084613d04565b604080516001600160a01b03861681523360208201527fc13e0ce4ce512479ea6017f275044e0b28a96539df1d5a8ccad20c8f4ba117e9910160405180910390a150505050565b6040516001600160a01b03821660248201526138da9060440160408051601f198184030181529190526020810180517bffffffffffffffffffffffffffffffffffffffffffffffffffffffff167f2c2ecbc2000000000000000000000000000000000000000000000000000000001790526144a1565b50565b6040516001600160a01b0383166024820152604481018290526115939084907fa9059cbb00000000000000000000000000000000000000000000000000000000906064015b60408051601f198184030181529190526020810180517bffffffffffffffffffffffffffffffffffffffffffffffffffffffff167fffffffff00000000000000000000000000000000000000000000000000000000909316929092179091526144aa565b6138da8160405160240161399c91815260200190565b60408051601f198184030181529190526020810180517bffffffffffffffffffffffffffffffffffffffffffffffffffffffff167ff82c50f1000000000000000000000000000000000000000000000000000000001790526144a1565b60008082806020019051810190613a1091906157dd565b509195945050505050565b6060825167ffffffffffffffff811115613a3757613a37614bca565b604051908082528060200260200182016040528015613a60578160200160208202803683370190505b5090506000835167ffffffffffffffff811115613a7f57613a7f614bca565b604051908082528060200260200182016040528015613aa8578160200160208202803683370190505b506040805160e0810182526000808252606082018190526080820181905260a0820181905260c082018190526001600160a01b038a811660208401528916928201929092529192505b8551811015613cf85760208201516001600160a01b038a8116911614613b1860028361579a565b1514613b28578160400151613b2e565b81602001515b6001600160a01b031682528551613b5e90879083908110613b5157613b5161537a565b6020026020010151612fd8565b60a08601819052608086019190915261ffff90911660608501524211159050613bc95760405162461bcd60e51b815260206004820152600c60248201527f6d6f7665206578706972656400000000000000000000000000000000000000006044820152606401610c72565b613bf5613be18783815181106110a6576110a661537a565b836060015184608001518560a00151611674565b60c083018190528551613c279190879084908110613c1557613c1561537a565b6020026020010151846000015161458f565b8015613ca357608082015183613c3e60018461534e565b81518110613c4e57613c4e61537a565b602002602001015110613ca35760405162461bcd60e51b815260206004820152601860248201527f6d6f766573206d7573742062652073657175656e7469616c00000000000000006044820152606401610c72565b8160800151838281518110613cba57613cba61537a565b6020026020010181815250508160600151848281518110613cdd57613cdd61537a565b61ffff90921660209283029190910190910152600101613af1565b50505095945050505050565b6040516001600160a01b0380851660248301528316604482015260648101829052613d559085907f23b872dd0000000000000000000000000000000000000000000000000000000090608401613922565b50505050565b600081602001516001600160a01b031682600001516001600160a01b031603613dc65760405162461bcd60e51b815260206004820152601960248201527f706c6179657273206d75737420626520646966666572656e74000000000000006044820152606401610c72565b60028260800151613dd7919061579a565b600114613e265760405162461bcd60e51b815260206004820152601b60248201527f6e756d626572206f662067616d6573206d757374206265206f646400000000006044820152606401610c72565b50805160208083015160408085015160608087015160c0880151608090980151845197831b7fffffffffffffffffffffffffffffffffffffffff0000000000000000000000009081168989015295831b8616603489015292821b9094166048870152605c860193909352607c850195909552609c8401949094524360bc84018190524660dc8501524060fc808501919091528451808503909101815261011c9093019093528151910120901c90565b6001600160a01b0381166000908152600960205260408120546113d79060016152f8565b6001600160a01b038116600090815260066020526040812060040154613f1e83613ed5565b1115613f6c5760405162461bcd60e51b815260206004820152600b60248201527f776167657220656e6465640000000000000000000000000000000000000000006044820152606401610c72565b6001600160a01b038216600090815260096020908152604080832054600883528184208185528352818420805483518186028101860190945280845291949390919083018282801561400557602002820191906000526020600020906000905b82829054906101000a900461ffff1661ffff1681526020019060020190602082600101049283019260010382029150808411613fcc5790505b5050600480546040517fc668ddb40000000000000000000000000000000000000000000000000000000081529596506000956001600160a01b03909116945063c668ddb4935061405892508691016153a9565b608060405180830381865afa158015614075573d6000803e3d6000fd5b505050506040513d601f19601f8201168201806040525081019061409991906153d5565b50505090508060ff166000036140b457506000949350505050565b8060ff166001036141b2576001600160a01b0385166000908152600a6020526040812060019081018054919290916140ed9084906152f8565b90915550506001600160a01b0385166000908152600a6020526040812060020180546001929061411e9084906152f8565b90915550506001600160a01b0385166000818152600a6020908152604080832080547fffffffffffffffffffffffffffffffffffffffffffffffffffffffffffffff00811660ff90911615179055600982528083208054600181810183559185528385208101559383526006909152812060040180549091906141a29084906152f8565b9091555060019695505050505050565b8060ff1660020361431d576001600160a01b038086166000908152600660205260409020546141e391879116612191565b15614221576001600160a01b0385166000908152600a6020526040812060019081018054919290916142169084906152f8565b909155506142539050565b6001600160a01b0385166000908152600a6020526040812060020180546001929061424d9084906152f8565b90915550505b6001600160a01b0385166000818152600a6020908152604080832080547fffffffffffffffffffffffffffffffffffffffffffffffffffffffffffffff00811660ff909116151790556009808352818420805460018101825581865284862081015594845260068352922060040154919052905403614312576001600160a01b0385166000908152600660205260409020600a0180547fffffffffffffffffffffffffffffffffffffffffffffffffffffffffffff00ff166101001790555b506001949350505050565b8060ff166003036143ad576001600160a01b0380861660009081526006602052604090205461434e91879116612191565b1561437f576001600160a01b0385166000908152600a602052604081206002018054600192906142169084906152f8565b6001600160a01b0385166000908152600a60205260408120600190810180549192909161424d9084906152f8565b506000949350505050565b6001600160a01b03828116600090815260066020526040812080546007909101548484169190931614919042906143ef838361534e565b9050831561444a576001600160a01b038616600090815260066020526040812060080180548392906144229084906152f8565b90915550506001600160a01b0386166000908152600660205260409020600701829055614499565b6001600160a01b038616600090815260066020526040812060090180548392906144759084906152f8565b90915550506001600160a01b03861660009081526006602052604090206007018290555b505050505050565b6138da81614654565b60006144ff826040518060400160405280602081526020017f5361666545524332303a206c6f772d6c6576656c2063616c6c206661696c6564815250856001600160a01b03166146759092919063ffffffff16565b805190915015611593578080602001905181019061451d9190615778565b6115935760405162461bcd60e51b815260206004820152602a60248201527f5361666545524332303a204552433230206f7065726174696f6e20646964206e60448201527f6f742073756363656564000000000000000000000000000000000000000000006064820152608401610c72565b60006145e8846040517f19457468657265756d205369676e6564204d6573736167653a0a3332000000006020820152603c8101829052600090605c01604051602081830303815290604052805190602001209050919050565b9050816001600160a01b03166145fe8285614684565b6001600160a01b031614613d555760405162461bcd60e51b815260206004820152600b60248201527f696e76616c6964207369670000000000000000000000000000000000000000006044820152606401610c72565b60006a636f6e736f6c652e6c6f679050600080835160208501845afa505050565b60606116d884846000856146a8565b6000806000614693858561479a565b915091506146a0816147df565b509392505050565b6060824710156147205760405162461bcd60e51b815260206004820152602660248201527f416464726573733a20696e73756666696369656e742062616c616e636520666f60448201527f722063616c6c00000000000000000000000000000000000000000000000000006064820152608401610c72565b600080866001600160a01b0316858760405161473c9190615654565b60006040518083038185875af1925050503d8060008114614779576040519150601f19603f3d011682016040523d82523d6000602084013e61477e565b606091505b509150915061478f87838387614944565b979650505050505050565b60008082516041036147d05760208301516040840151606085015160001a6147c4878285856149bd565b945094505050506147d8565b506000905060025b9250929050565b60008160048111156147f3576147f3615825565b036147fb5750565b600181600481111561480f5761480f615825565b0361485c5760405162461bcd60e51b815260206004820152601860248201527f45434453413a20696e76616c6964207369676e617475726500000000000000006044820152606401610c72565b600281600481111561487057614870615825565b036148bd5760405162461bcd60e51b815260206004820152601f60248201527f45434453413a20696e76616c6964207369676e6174757265206c656e677468006044820152606401610c72565b60038160048111156148d1576148d1615825565b036138da5760405162461bcd60e51b815260206004820152602260248201527f45434453413a20696e76616c6964207369676e6174757265202773272076616c60448201527f75650000000000000000000000000000000000000000000000000000000000006064820152608401610c72565b606083156149b35782516000036149ac576001600160a01b0385163b6149ac5760405162461bcd60e51b815260206004820152601d60248201527f416464726573733a2063616c6c20746f206e6f6e2d636f6e74726163740000006044820152606401610c72565b50816116d8565b6116d88383614a81565b6000807f7fffffffffffffffffffffffffffffff5d576e7357a4501ddfe92f46681b20a08311156149f45750600090506003614a78565b6040805160008082526020820180845289905260ff881692820192909252606081018690526080810185905260019060a0016020604051602081039080840390855afa158015614a48573d6000803e3d6000fd5b5050604051601f1901519150506001600160a01b038116614a7157600060019250925050614a78565b9150600090505b94509492505050565b815115614a915781518083602001fd5b8060405162461bcd60e51b8152600401610c72919061506e565b6040518061080001604052806040905b6060815260200190600190039081614abb5790505090565b82805482825590600052602060002090600f01601090048101928215614b6c5791602002820160005b83821115614b3c57835183826101000a81548161ffff021916908361ffff1602179055509260200192600201602081600101049283019260010302614afc565b8015614b6a5782816101000a81549061ffff0219169055600201602081600101049283019260010302614b3c565b505b50614b78929150614b7c565b5090565b5b80821115614b785760008155600101614b7d565b6001600160a01b03811681146138da57600080fd5b600060208284031215614bb857600080fd5b8135614bc381614b91565b9392505050565b7f4e487b7100000000000000000000000000000000000000000000000000000000600052604160045260246000fd5b604051601f8201601f1916810167ffffffffffffffff81118282101715614c2257614c22614bca565b604052919050565b600067ffffffffffffffff831115614c4457614c44614bca565b614c576020601f19601f86011601614bf9565b9050828152838383011115614c6b57600080fd5b828260208301376000602084830101529392505050565b600082601f830112614c9357600080fd5b614bc383833560208501614c2a565b600082601f830112614cb357600080fd5b8135602067ffffffffffffffff80831115614cd057614cd0614bca565b8260051b614cdf838201614bf9565b9384528581018301938381019088861115614cf957600080fd5b84880192505b85831015614d3557823584811115614d175760008081fd5b614d258a87838c0101614c82565b8352509184019190840190614cff565b98975050505050505050565b60008060408385031215614d5457600080fd5b823567ffffffffffffffff80821115614d6c57600080fd5b614d7886838701614ca2565b93506020850135915080821115614d8e57600080fd5b50614d9b85828601614ca2565b9150509250929050565b60008151808452602080850194506020840160005b83811015614dda57815161ffff1687529582019590820190600101614dba565b509495945050505050565b6001600160a01b038416815260ff83166020820152606060408201526000614e106060830184614da5565b95945050505050565b6020808252825182820181905260009190848201906040850190845b81811015614e5a5783516001600160a01b031683529284019291840191600101614e35565b50909695505050505050565b60ff811681146138da57600080fd5b60008060408385031215614e8857600080fd5b8235614e9381614e66565b91506020830135614ea381614e66565b809150509250929050565b8061080081018310156113d757600080fd5b6000806108208385031215614ed457600080fd5b823567ffffffffffffffff811115614eeb57600080fd5b614ef785828601614eae565b925050614f078460208501614eae565b90509250929050565b61ffff811681146138da57600080fd5b60008060008060808587031215614f3657600080fd5b8435614f4181614b91565b93506020850135614f5181614f10565b93969395505050506040820135916060013590565b600080600080600060a08688031215614f7e57600080fd5b8535614f8981614b91565b94506020860135614f9981614b91565b94979496505050506040830135926060810135926080909101359150565b600060208284031215614fc957600080fd5b5035919050565b60005b83811015614feb578181015183820152602001614fd3565b50506000910152565b6000815180845261500c816020860160208601614fd0565b601f01601f19169290920160200192915050565b6020808252600090610820830183820185845b604081101561506257601f19878503018352615050848351614ff4565b93509184019190840190600101615033565b50919695505050505050565b602081526000614bc36020830184614ff4565b6000806040838503121561509457600080fd5b823561509f81614b91565b91506020830135614ea381614b91565b6000602082840312156150c157600080fd5b8135614bc381614f10565b600080604083850312156150df57600080fd5b82356150ea81614b91565b91506020830135614ea381614f10565b6000806040838503121561510d57600080fd5b823561511881614b91565b946020939093013593505050565b6020808252825182820182905280516040840181905260009291820190839060608601905b8083101561516f57835161ffff16825292840192600192909201919084019061514b565b509695505050505050565b60006020828403121561518c57600080fd5b8135614bc381614e66565b6000602082840312156151a957600080fd5b813567ffffffffffffffff8111156151c057600080fd5b6116d884828501614c82565b6000602082840312156151de57600080fd5b813567ffffffffffffffff8111156151f557600080fd5b8201601f8101841361520657600080fd5b6116d884823560208401614c2a565b60008060008060008060c0878903121561522e57600080fd5b863561523981614b91565b9550602087013561524981614b91565b9450604087013561525981614b91565b959894975094956060810135955060808101359460a0909101359350915050565b7f4e487b7100000000000000000000000000000000000000000000000000000000600052601160045260246000fd5b60007fffffffffffffffffffffffffffffffffffffffffffffffffffffffffffffffff82036152da576152da61527a565b5060010190565b80820281158282048414176113d7576113d761527a565b808201808211156113d7576113d761527a565b7f4e487b7100000000000000000000000000000000000000000000000000000000600052601260045260246000fd5b6000826153495761534961530b565b500490565b818103818111156113d7576113d761527a565b60006020828403121561537357600080fd5b5051919050565b7f4e487b7100000000000000000000000000000000000000000000000000000000600052603260045260246000fd5b602081526000614bc36020830184614da5565b805163ffffffff811681146153d057600080fd5b919050565b600080600080608085870312156153eb57600080fd5b84516153f681614e66565b6020860151909450925061540c604086016153bc565b915061541a606086016153bc565b905092959194509250565b61ffff8181168382160190808211156154405761544061527a565b5092915050565b60008083357fffffffffffffffffffffffffffffffffffffffffffffffffffffffffffffffe184360301811261547c57600080fd5b83018035915067ffffffffffffffff82111561549757600080fd5b6020019150368190038213156147d857600080fd5b8183823760009101908152919050565b600181811c908216806154d057607f821691505b602082108103615509577f4e487b7100000000000000000000000000000000000000000000000000000000600052602260045260246000fd5b50919050565b601f821115611593576000816000526020600020601f850160051c810160208610156155385750805b601f850160051c820191505b8181101561449957828155600101615544565b67ffffffffffffffff83111561556f5761556f614bca565b6155838361557d83546154bc565b8361550f565b6000601f8411600181146155d5576000851561559f5750838201355b7fffffffffffffffffffffffffffffffffffffffffffffffffffffffffffffffff600387901b1c1916600186901b17835561564d565b600083815260209020601f19861690835b8281101561560657868501358255602094850194600190920191016155e6565b5086821015615641577fffffffffffffffffffffffffffffffffffffffffffffffffffffffffffffffff60f88860031b161c19848701351681555b505060018560011b0183555b5050505050565b60008251615666818460208701614fd0565b9190910192915050565b80820182811260008312801582168215821617156156905761569061527a565b505092915050565b808202600082127f8000000000000000000000000000000000000000000000000000000000000000841416156156d0576156d061527a565b81810583148215176113d7576113d761527a565b81810360008312801583831316838312821617156154405761544061527a565b60006020828403121561571657600080fd5b8151614bc381614e66565b60007f800000000000000000000000000000000000000000000000000000000000000082036157525761575261527a565b507fffffffffffffffffffffffffffffffffffffffffffffffffffffffffffffffff0190565b60006020828403121561578a57600080fd5b81518015158114614bc357600080fd5b6000826157a9576157a961530b565b500690565b600083516157c0818460208801614fd0565b8351908301906157d4818360208801614fd0565b01949350505050565b600080600080608085870312156157f357600080fd5b84516157fe81614b91565b602086015190945061580f81614f10565b6040860151606090960151949790965092505050565b7f4e487b7100000000000000000000000000000000000000000000000000000000600052602160045260246000fdfea164736f6c6343000816000a",
  "linkReferences": {},
  "deployedLinkReferences": {}
}