{
  "_format": "hh-sol-artifact-1",
  "contractName": "ChessWager",
  "sourceName": "contracts/ChessWager.sol",
  "abi": [
    {
      "inputs": [
        {
          "internalType": "address",
          "name": "moveVerificationAddress",
          "type": "address"
        },
        {
          "internalType": "address",
          "name": "_ChessFishToken",
          "type": "address"
        },
        {
          "internalType": "address",
          "name": "_DividendSplitter",
          "type": "address"
        },
        {
          "internalType": "address",
          "name": "_ChessFishNFT",
          "type": "address"
        }
      ],
      "stateMutability": "nonpayable",
      "type": "constructor"
    },
    {
      "anonymous": false,
      "inputs": [
        {
          "indexed": false,
          "internalType": "address",
          "name": "wagerAddress",
          "type": "address"
        },
        {
          "indexed": false,
          "internalType": "address",
          "name": "userAddress",
          "type": "address"
        }
      ],
      "name": "acceptWagerEvent",
      "type": "event"
    },
    {
      "anonymous": false,
      "inputs": [
        {
          "indexed": false,
          "internalType": "address",
          "name": "wagerAddress",
          "type": "address"
        },
        {
          "indexed": false,
          "internalType": "address",
          "name": "userAddress",
          "type": "address"
        }
      ],
      "name": "cancelWagerEvent",
      "type": "event"
    },
    {
      "anonymous": false,
      "inputs": [
        {
          "indexed": false,
          "internalType": "address",
          "name": "wager",
          "type": "address"
        },
        {
          "indexed": false,
          "internalType": "address",
          "name": "wagerToken",
          "type": "address"
        },
        {
          "indexed": false,
          "internalType": "uint256",
          "name": "wagerAmount",
          "type": "uint256"
        },
        {
          "indexed": false,
          "internalType": "uint256",
          "name": "timeLimit",
          "type": "uint256"
        },
        {
          "indexed": false,
          "internalType": "uint256",
          "name": "numberOfGames",
          "type": "uint256"
        }
      ],
      "name": "createGameWagerEvent",
      "type": "event"
    },
    {
      "anonymous": false,
      "inputs": [
        {
          "indexed": false,
          "internalType": "address",
          "name": "wagerAddress",
          "type": "address"
        },
        {
          "indexed": false,
          "internalType": "address",
          "name": "winner",
          "type": "address"
        },
        {
          "indexed": false,
          "internalType": "address",
          "name": "wagerToken",
          "type": "address"
        },
        {
          "indexed": false,
          "internalType": "uint256",
          "name": "wagerAmount",
          "type": "uint256"
        },
        {
          "indexed": false,
          "internalType": "uint256",
          "name": "protocolFee",
          "type": "uint256"
        }
      ],
      "name": "payoutWagerEvent",
      "type": "event"
    },
    {
      "anonymous": false,
      "inputs": [
        {
          "indexed": false,
          "internalType": "address",
          "name": "wagerAddress",
          "type": "address"
        },
        {
          "indexed": false,
          "internalType": "uint16",
          "name": "move",
          "type": "uint16"
        }
      ],
      "name": "playMoveEvent",
      "type": "event"
    },
    {
      "inputs": [],
      "name": "ChessFishNFT",
      "outputs": [
        {
          "internalType": "address",
          "name": "",
          "type": "address"
        }
      ],
      "stateMutability": "view",
      "type": "function"
    },
    {
      "inputs": [],
      "name": "ChessFishToken",
      "outputs": [
        {
          "internalType": "address",
          "name": "",
          "type": "address"
        }
      ],
      "stateMutability": "view",
      "type": "function"
    },
    {
      "inputs": [],
      "name": "DividendSplitter",
      "outputs": [
        {
          "internalType": "address",
          "name": "",
          "type": "address"
        }
      ],
      "stateMutability": "view",
      "type": "function"
    },
    {
      "inputs": [],
      "name": "TournamentHandler",
      "outputs": [
        {
          "internalType": "address",
          "name": "",
          "type": "address"
        }
      ],
      "stateMutability": "view",
      "type": "function"
    },
    {
      "inputs": [
        {
          "internalType": "address",
          "name": "wagerAddress",
          "type": "address"
        }
      ],
      "name": "acceptWager",
      "outputs": [],
      "stateMutability": "nonpayable",
      "type": "function"
    },
    {
      "inputs": [
        {
          "internalType": "address",
          "name": "_tournamentHandler",
          "type": "address"
        }
      ],
      "name": "addTournamentHandler",
      "outputs": [],
      "stateMutability": "nonpayable",
      "type": "function"
    },
    {
      "inputs": [
        {
          "internalType": "uint256",
          "name": "",
          "type": "uint256"
        }
      ],
      "name": "allWagers",
      "outputs": [
        {
          "internalType": "address",
          "name": "",
          "type": "address"
        }
      ],
      "stateMutability": "view",
      "type": "function"
    },
    {
      "inputs": [
        {
          "internalType": "address",
          "name": "wagerAddress",
          "type": "address"
        }
      ],
      "name": "cancelWager",
      "outputs": [
        {
          "internalType": "bool",
          "name": "",
          "type": "bool"
        }
      ],
      "stateMutability": "nonpayable",
      "type": "function"
    },
    {
      "inputs": [
        {
          "internalType": "address",
          "name": "wagerAddress",
          "type": "address"
        }
      ],
      "name": "checkTimeRemaining",
      "outputs": [
        {
          "internalType": "int256",
          "name": "",
          "type": "int256"
        },
        {
          "internalType": "int256",
          "name": "",
          "type": "int256"
        }
      ],
      "stateMutability": "view",
      "type": "function"
    },
    {
      "inputs": [
        {
          "internalType": "uint16",
          "name": "move",
          "type": "uint16"
        }
      ],
      "name": "convertFromMove",
      "outputs": [
        {
          "internalType": "uint8",
          "name": "",
          "type": "uint8"
        },
        {
          "internalType": "uint8",
          "name": "",
          "type": "uint8"
        }
      ],
      "stateMutability": "pure",
      "type": "function"
    },
    {
      "inputs": [
        {
          "internalType": "uint8",
          "name": "fromPos",
          "type": "uint8"
        },
        {
          "internalType": "uint8",
          "name": "toPos",
          "type": "uint8"
        }
      ],
      "name": "convertToMove",
      "outputs": [
        {
          "internalType": "uint16",
          "name": "",
          "type": "uint16"
        }
      ],
      "stateMutability": "pure",
      "type": "function"
    },
    {
      "inputs": [
        {
          "internalType": "string",
          "name": "",
          "type": "string"
        }
      ],
      "name": "coordinates",
      "outputs": [
        {
          "internalType": "uint256",
          "name": "",
          "type": "uint256"
        }
      ],
      "stateMutability": "view",
      "type": "function"
    },
    {
      "inputs": [
        {
          "internalType": "address",
          "name": "player1",
          "type": "address"
        },
        {
          "internalType": "address",
          "name": "wagerToken",
          "type": "address"
        },
        {
          "internalType": "uint256",
          "name": "wager",
          "type": "uint256"
        },
        {
          "internalType": "uint256",
          "name": "timeLimit",
          "type": "uint256"
        },
        {
          "internalType": "uint256",
          "name": "numberOfGames",
          "type": "uint256"
        }
      ],
      "name": "createGameWager",
      "outputs": [
        {
          "internalType": "address",
          "name": "wagerAddress",
          "type": "address"
        }
      ],
      "stateMutability": "payable",
      "type": "function"
    },
    {
      "inputs": [
        {
          "internalType": "address",
          "name": "player0",
          "type": "address"
        },
        {
          "internalType": "address",
          "name": "player1",
          "type": "address"
        },
        {
          "internalType": "address",
          "name": "wagerToken",
          "type": "address"
        },
        {
          "internalType": "uint256",
          "name": "wagerAmount",
          "type": "uint256"
        },
        {
          "internalType": "uint256",
          "name": "numberOfGames",
          "type": "uint256"
        },
        {
          "internalType": "uint256",
          "name": "timeLimit",
          "type": "uint256"
        }
      ],
      "name": "createGameWagerTournamentSingle",
      "outputs": [
        {
          "internalType": "address",
          "name": "wagerAddress",
          "type": "address"
        }
      ],
      "stateMutability": "nonpayable",
      "type": "function"
    },
    {
      "inputs": [
        {
          "internalType": "bytes",
          "name": "message",
          "type": "bytes"
        }
      ],
      "name": "decodeMoveMessage",
      "outputs": [
        {
          "internalType": "address",
          "name": "",
          "type": "address"
        },
        {
          "internalType": "uint16",
          "name": "",
          "type": "uint16"
        },
        {
          "internalType": "uint256",
          "name": "",
          "type": "uint256"
        },
        {
          "internalType": "uint256",
          "name": "",
          "type": "uint256"
        }
      ],
      "stateMutability": "pure",
      "type": "function"
    },
    {
      "inputs": [],
      "name": "deployer",
      "outputs": [
        {
          "internalType": "address",
          "name": "",
          "type": "address"
        }
      ],
      "stateMutability": "view",
      "type": "function"
    },
    {
      "inputs": [
        {
          "internalType": "address",
          "name": "",
          "type": "address"
        }
      ],
      "name": "gameWagers",
      "outputs": [
        {
          "internalType": "address",
          "name": "player0",
          "type": "address"
        },
        {
          "internalType": "address",
          "name": "player1",
          "type": "address"
        },
        {
          "internalType": "address",
          "name": "wagerToken",
          "type": "address"
        },
        {
          "internalType": "uint256",
          "name": "wager",
          "type": "uint256"
        },
        {
          "internalType": "uint256",
          "name": "numberOfGames",
          "type": "uint256"
        },
        {
          "internalType": "bool",
          "name": "hasPlayerAccepted",
          "type": "bool"
        },
        {
          "internalType": "uint256",
          "name": "timeLimit",
          "type": "uint256"
        },
        {
          "internalType": "uint256",
          "name": "timeLastMove",
          "type": "uint256"
        },
        {
          "internalType": "uint256",
          "name": "timePlayer0",
          "type": "uint256"
        },
        {
          "internalType": "uint256",
          "name": "timePlayer1",
          "type": "uint256"
        },
        {
          "internalType": "bool",
          "name": "isTournament",
          "type": "bool"
        },
        {
          "internalType": "bool",
          "name": "isComplete",
          "type": "bool"
        }
      ],
      "stateMutability": "view",
      "type": "function"
    },
    {
      "inputs": [
        {
          "internalType": "address",
          "name": "wager",
          "type": "address"
        },
        {
          "internalType": "uint16",
          "name": "move",
          "type": "uint16"
        },
        {
          "internalType": "uint256",
          "name": "moveNumber",
          "type": "uint256"
        },
        {
          "internalType": "uint256",
          "name": "expiration",
          "type": "uint256"
        }
      ],
      "name": "generateMoveMessage",
      "outputs": [
        {
          "internalType": "bytes",
          "name": "",
          "type": "bytes"
        }
      ],
      "stateMutability": "pure",
      "type": "function"
    },
    {
      "inputs": [
        {
          "internalType": "address",
          "name": "player",
          "type": "address"
        }
      ],
      "name": "getAllUserGames",
      "outputs": [
        {
          "internalType": "address[]",
          "name": "",
          "type": "address[]"
        }
      ],
      "stateMutability": "view",
      "type": "function"
    },
    {
      "inputs": [],
      "name": "getAllWagerAddresses",
      "outputs": [
        {
          "internalType": "address[]",
          "name": "",
          "type": "address[]"
        }
      ],
      "stateMutability": "view",
      "type": "function"
    },
    {
      "inputs": [],
      "name": "getAllWagersCount",
      "outputs": [
        {
          "internalType": "uint256",
          "name": "",
          "type": "uint256"
        }
      ],
      "stateMutability": "view",
      "type": "function"
    },
    {
      "inputs": [
        {
          "internalType": "uint256",
          "name": "gameState",
          "type": "uint256"
        }
      ],
      "name": "getBoard",
      "outputs": [
        {
          "internalType": "string[64]",
          "name": "",
          "type": "string[64]"
        }
      ],
      "stateMutability": "view",
      "type": "function"
    },
    {
      "inputs": [
        {
          "internalType": "address",
          "name": "wagerAddress",
          "type": "address"
        }
      ],
      "name": "getGameLength",
      "outputs": [
        {
          "internalType": "uint256",
          "name": "",
          "type": "uint256"
        }
      ],
      "stateMutability": "view",
      "type": "function"
    },
    {
      "inputs": [
        {
          "internalType": "address",
          "name": "wagerAddress",
          "type": "address"
        },
        {
          "internalType": "uint256",
          "name": "gameID",
          "type": "uint256"
        }
      ],
      "name": "getGameMoves",
      "outputs": [
        {
          "components": [
            {
              "internalType": "uint16[]",
              "name": "moves",
              "type": "uint16[]"
            }
          ],
          "internalType": "struct ChessWager.Game",
          "name": "",
          "type": "tuple"
        }
      ],
      "stateMutability": "view",
      "type": "function"
    },
    {
      "inputs": [
        {
          "internalType": "address",
          "name": "wagerAddress",
          "type": "address"
        }
      ],
      "name": "getGameStatus",
      "outputs": [
        {
          "internalType": "uint8",
          "name": "",
          "type": "uint8"
        },
        {
          "internalType": "uint256",
          "name": "",
          "type": "uint256"
        },
        {
          "internalType": "uint32",
          "name": "",
          "type": "uint32"
        },
        {
          "internalType": "uint32",
          "name": "",
          "type": "uint32"
        }
      ],
      "stateMutability": "view",
      "type": "function"
    },
    {
      "inputs": [
        {
          "internalType": "uint8",
          "name": "piece",
          "type": "uint8"
        }
      ],
      "name": "getLetter",
      "outputs": [
        {
          "internalType": "string",
          "name": "",
          "type": "string"
        }
      ],
      "stateMutability": "view",
      "type": "function"
    },
    {
      "inputs": [
        {
          "internalType": "address",
          "name": "wager",
          "type": "address"
        },
        {
          "internalType": "uint16",
          "name": "move",
          "type": "uint16"
        },
        {
          "internalType": "uint256",
          "name": "moveNumber",
          "type": "uint256"
        },
        {
          "internalType": "uint256",
          "name": "expiration",
          "type": "uint256"
        }
      ],
      "name": "getMessageHash",
      "outputs": [
        {
          "internalType": "bytes32",
          "name": "",
          "type": "bytes32"
        }
      ],
      "stateMutability": "pure",
      "type": "function"
    },
    {
      "inputs": [
        {
          "internalType": "address",
          "name": "wagerAddress",
          "type": "address"
        }
      ],
      "name": "getPlayerMove",
      "outputs": [
        {
          "internalType": "address",
          "name": "",
          "type": "address"
        }
      ],
      "stateMutability": "view",
      "type": "function"
    },
    {
      "inputs": [
        {
          "internalType": "address",
          "name": "wagerAddress",
          "type": "address"
        }
      ],
      "name": "getWagerStatus",
      "outputs": [
        {
          "internalType": "address",
          "name": "",
          "type": "address"
        },
        {
          "internalType": "address",
          "name": "",
          "type": "address"
        },
        {
          "internalType": "uint256",
          "name": "",
          "type": "uint256"
        },
        {
          "internalType": "uint256",
          "name": "",
          "type": "uint256"
        }
      ],
      "stateMutability": "view",
      "type": "function"
    },
    {
      "inputs": [
        {
          "internalType": "uint16",
          "name": "hexMove",
          "type": "uint16"
        }
      ],
      "name": "hexToMove",
      "outputs": [
        {
          "internalType": "string",
          "name": "move",
          "type": "string"
        }
      ],
      "stateMutability": "view",
      "type": "function"
    },
    {
      "inputs": [
        {
          "internalType": "string[64]",
          "name": "coordinate",
          "type": "string[64]"
        },
        {
          "internalType": "uint256[64]",
          "name": "value",
          "type": "uint256[64]"
        }
      ],
      "name": "initCoordinates",
      "outputs": [],
      "stateMutability": "nonpayable",
      "type": "function"
    },
    {
      "inputs": [
        {
          "internalType": "address",
          "name": "wagerAddress",
          "type": "address"
        },
        {
          "internalType": "address",
          "name": "player",
          "type": "address"
        }
      ],
      "name": "isPlayerWhite",
      "outputs": [
        {
          "internalType": "bool",
          "name": "",
          "type": "bool"
        }
      ],
      "stateMutability": "view",
      "type": "function"
    },
    {
      "inputs": [
        {
          "internalType": "string",
          "name": "move",
          "type": "string"
        }
      ],
      "name": "moveToHex",
      "outputs": [
        {
          "internalType": "uint16",
          "name": "hexMove",
          "type": "uint16"
        }
      ],
      "stateMutability": "view",
      "type": "function"
    },
    {
      "inputs": [],
      "name": "moveVerification",
      "outputs": [
        {
          "internalType": "contract MoveVerification",
          "name": "",
          "type": "address"
        }
      ],
      "stateMutability": "view",
      "type": "function"
    },
    {
      "inputs": [
        {
          "internalType": "address",
          "name": "wagerAddress",
          "type": "address"
        }
      ],
      "name": "payoutWager",
      "outputs": [
        {
          "internalType": "bool",
          "name": "",
          "type": "bool"
        }
      ],
      "stateMutability": "nonpayable",
      "type": "function"
    },
    {
      "inputs": [
        {
          "internalType": "address",
          "name": "wagerAddress",
          "type": "address"
        },
        {
          "internalType": "uint16",
          "name": "move",
          "type": "uint16"
        }
      ],
      "name": "playMove",
      "outputs": [
        {
          "internalType": "bool",
          "name": "",
          "type": "bool"
        }
      ],
      "stateMutability": "nonpayable",
      "type": "function"
    },
    {
      "inputs": [],
      "name": "protocolFee",
      "outputs": [
        {
          "internalType": "uint256",
          "name": "",
          "type": "uint256"
        }
      ],
      "stateMutability": "view",
      "type": "function"
    },
    {
      "inputs": [
        {
          "internalType": "uint256",
          "name": "",
          "type": "uint256"
        }
      ],
      "name": "squareToCoordinate",
      "outputs": [
        {
          "internalType": "string",
          "name": "",
          "type": "string"
        }
      ],
      "stateMutability": "view",
      "type": "function"
    },
    {
      "inputs": [
        {
          "internalType": "address",
          "name": "wagerAddress",
          "type": "address"
        }
      ],
      "name": "startWagersInTournament",
      "outputs": [],
      "stateMutability": "nonpayable",
      "type": "function"
    },
    {
      "inputs": [
        {
          "internalType": "address",
          "name": "wagerAddress",
          "type": "address"
        }
      ],
      "name": "updateWagerStateTime",
      "outputs": [
        {
          "internalType": "bool",
          "name": "",
          "type": "bool"
        }
      ],
      "stateMutability": "nonpayable",
      "type": "function"
    },
    {
      "inputs": [
        {
          "internalType": "address",
          "name": "",
          "type": "address"
        },
        {
          "internalType": "uint256",
          "name": "",
          "type": "uint256"
        }
      ],
      "name": "userGames",
      "outputs": [
        {
          "internalType": "address",
          "name": "",
          "type": "address"
        }
      ],
      "stateMutability": "view",
      "type": "function"
    },
    {
      "inputs": [
        {
          "internalType": "bytes[]",
          "name": "message",
          "type": "bytes[]"
        },
        {
          "internalType": "bytes[]",
          "name": "signature",
          "type": "bytes[]"
        }
      ],
      "name": "verifyGameUpdateState",
      "outputs": [
        {
          "internalType": "bool",
          "name": "",
          "type": "bool"
        }
      ],
      "stateMutability": "nonpayable",
      "type": "function"
    },
    {
      "inputs": [
        {
          "internalType": "bytes[]",
          "name": "messages",
          "type": "bytes[]"
        },
        {
          "internalType": "bytes[]",
          "name": "signatures",
          "type": "bytes[]"
        }
      ],
      "name": "verifyGameView",
      "outputs": [
        {
          "internalType": "address",
          "name": "wagerAddress",
          "type": "address"
        },
        {
          "internalType": "uint8",
          "name": "outcome",
          "type": "uint8"
        },
        {
          "internalType": "uint16[]",
          "name": "moves",
          "type": "uint16[]"
        }
      ],
      "stateMutability": "view",
      "type": "function"
    },
    {
      "inputs": [
        {
          "internalType": "address",
          "name": "",
          "type": "address"
        }
      ],
      "name": "wagerStatus",
      "outputs": [
        {
          "internalType": "bool",
          "name": "isPlayer0White",
          "type": "bool"
        },
        {
          "internalType": "uint256",
          "name": "winsPlayer0",
          "type": "uint256"
        },
        {
          "internalType": "uint256",
          "name": "winsPlayer1",
          "type": "uint256"
        }
      ],
      "stateMutability": "view",
      "type": "function"
    }
  ],
  "bytecode": "0x60806040526101f46005553480156200001757600080fd5b50604051620059f4380380620059f48339810160408190526200003a916200050f565b600480546001600160a01b0319166001600160a01b0386161790556200005f620000b0565b600c80546001600160a01b039485166001600160a01b031991821617909155600d805493851693821693909317909255600e80549190931690821617909155600380549091163317905550620006df565b6040805180820190915260018152601760f91b602080830191909152600080805290527fad3228b676f7d3cd4284a5443f17f1962b36e491b30a40b2405849e597ba5fb59062000101908262000613565b50604080518082019091526001808252600560fc1b6020808401919091526000918252527fada5013122d395ba3c54772283fb069b10426056ef8ca54750cb9bb552a59e7d9062000153908262000613565b506040805180820190915260018152602160f91b6020808301919091526002600090815290527fabbb5caa7dda850e60932de0934eb1f9d0f59695050f761dc64e443e5030a56990620001a7908262000613565b506040805180820190915260018152602760f91b6020808301919091526003600090815290527f101e368776582e57ab3d116ffe2517c0a585cd5b23174b01e275c2d8329c3d8390620001fb908262000613565b506040805180820190915260018152602960f91b6020808301919091526004600090815290527f52d75039926638d3c558b2bdefb945d5be8dae29dedd1c313212a4d472d9fde5906200024f908262000613565b506040805180820190915260018152605160f81b6020808301919091526005600090815290527f2b232c97452f0950c94e2539fdc7e69d21166113cf7a9bcb99b220a3fe5d720a90620002a3908262000613565b506040805180820190915260018152604b60f81b6020808301919091526006600090815290527f62103cf3131c85df57aad364d21cba02556d3092d6cb54c298c2e7726a7870bd90620002f7908262000613565b506040805180820190915260018152600760fc1b6020808301919091526009600090815290527f324fdf7bfe7bd2828491073f0b7868a9a19ee3eff384c2805040be3e426447f5906200034b908262000613565b506040805180820190915260018152603160f91b602080830191909152600a600090815290527f3e9abaca0aad9ede81f4474766c846d8539f70688e1c8f521bbe1597874e3dc4906200039f908262000613565b506040805180820190915260018152603760f91b602080830191909152600b600090815290527f9115655cbcdb654012cf1b2f7e5dbf11c9ef14e152a19d5f8ea75a329092d5a690620003f3908262000613565b506040805180820190915260018152603960f91b602080830191909152600c600090815290527fd0a75bf7ea87fba36ff8a17b4519c45fb727609e6c9161b106680b25b3e2705f9062000447908262000613565b506040805180820190915260018152607160f81b602080830191909152600d600090815290527f7ca5987043ac53676c6e30f77ff1a34e98a5fae86b27e5d0cf74ac1711b8a8db906200049b908262000613565b506040805180820190915260018152606b60f81b602080830191909152600e600090815290527fe9bc119772df33ac6a685b572c53e6a4988bbdde79a460a23bed029791109f3990620004ef908262000613565b50565b80516001600160a01b03811681146200050a57600080fd5b919050565b600080600080608085870312156200052657600080fd5b6200053185620004f2565b93506200054160208601620004f2565b92506200055160408601620004f2565b91506200056160608601620004f2565b905092959194509250565b634e487b7160e01b600052604160045260246000fd5b600181811c908216806200059757607f821691505b602082108103620005b857634e487b7160e01b600052602260045260246000fd5b50919050565b601f8211156200060e576000816000526020600020601f850160051c81016020861015620005e95750805b601f850160051c820191505b818110156200060a57828155600101620005f5565b5050505b505050565b81516001600160401b038111156200062f576200062f6200056c565b620006478162000640845462000582565b84620005be565b602080601f8311600181146200067f5760008415620006665750858301515b600019600386901b1c1916600185901b1785556200060a565b600085815260208120601f198616915b82811015620006b0578886015182559484019460019091019084016200068f565b5085821015620006cf5787850151600019600388901b60f8161c191681555b5050505050600190811b01905550565b61530580620006ef6000396000f3fe6080604052600436106102e75760003560e01c80636f984f3d11610184578063d5f39488116100d6578063e3e9956c1161008a578063f63045af11610064578063f63045af14610a00578063fb7275e014610a20578063fe2cbfa814610b1e57600080fd5b8063e3e9956c14610937578063e9f0dac714610957578063f4b8dfbb146109e057600080fd5b8063d865998d116100bb578063d865998d1461086a578063d8b80bef146108b7578063e113ced91461091757600080fd5b8063d5f394881461082a578063d7fde3f01461084a57600080fd5b8063b0e21e8a11610138578063c0be665211610112578063c0be6652146107bd578063c244c1cc146107dd578063c50cf3ba1461080a57600080fd5b8063b0e21e8a14610767578063b6c6c7621461077d578063bc0167cd1461079d57600080fd5b80639c2cc0ca116101695780639c2cc0ca146106f25780639d44548c14610727578063aab66de51461074757600080fd5b80636f984f3d146106755780638e62569a1461069557600080fd5b80633857eb371161023d57806345e09e54116101f157806356e09bc1116101cb57806356e09bc1146105e45780635d408c6e146106115780636c51f0381461063157600080fd5b806345e09e54146105475780634d943c371461057457806354e4437e1461059457600080fd5b80633d1f6de5116102225780633d1f6de5146104de5780633fc9b5c7146104f15780634393f7621461051157600080fd5b80633857eb371461049e57806339b86179146104be57600080fd5b80631673b9421161029f5780631d9f45ee116102795780631d9f45ee146104495780631e0e29cd1461046957806335be391f1461048957600080fd5b80631673b942146103d457806318071ef3146104075780631a596a091461042957600080fd5b80630e8d4fa9116102d05780630e8d4fa9146103595780631300e975146103885780631608a4df146103a757600080fd5b806302d4defb146102ec57806302e3f0bf14610329575b600080fd5b3480156102f857600080fd5b50600c5461030c906001600160a01b031681565b6040516001600160a01b0390911681526020015b60405180910390f35b34801561033557600080fd5b5061034961034436600461464a565b610b56565b6040519015158152602001610320565b34801561036557600080fd5b506103796103743660046147e5565b610fcf565b60405161032093929190614889565b34801561039457600080fd5b50600b545b604051908152602001610320565b3480156103b357600080fd5b506103c76103c236600461464a565b6112da565b60405161032091906148bd565b3480156103e057600080fd5b506103f46103ef366004614919565b611350565b60405161ffff9091168152602001610320565b34801561041357600080fd5b5061042761042236600461464a565b611372565b005b34801561043557600080fd5b50600d5461030c906001600160a01b031681565b34801561045557600080fd5b5060045461030c906001600160a01b031681565b34801561047557600080fd5b50610427610484366004614964565b611406565b34801561049557600080fd5b506103c761152d565b3480156104aa57600080fd5b506104276104b936600461464a565b61158f565b3480156104ca57600080fd5b506103996104d93660046149c4565b611609565b61030c6104ec366004614a0a565b611675565b3480156104fd57600080fd5b5061034961050c36600461464a565b611ac9565b34801561051d57600080fd5b5061039961052c36600461464a565b6001600160a01b031660009081526008602052604090205490565b34801561055357600080fd5b50610567610562366004614a5b565b611c9b565b6040516103209190614ac4565b34801561058057600080fd5b5061034961058f3660046147e5565b611de6565b3480156105a057600080fd5b506105b46105af36600461464a565b611e63565b6040805160ff9095168552602085019390935263ffffffff91821692840192909252166060820152608001610320565b3480156105f057600080fd5b506106046105ff366004614a5b565b61206a565b6040516103209190614b12565b34801561061d57600080fd5b5061034961062c366004614b25565b612104565b34801561063d57600080fd5b5061065b61064c366004614b53565b603f600682901c811692911690565b6040805160ff938416815292909116602083015201610320565b34801561068157600080fd5b5061034961069036600461464a565b61216f565b3480156106a157600080fd5b506106d56106b036600461464a565b60096020526000908152604090208054600182015460029092015460ff909116919083565b604080519315158452602084019290925290820152606001610320565b3480156106fe57600080fd5b5061071261070d36600461464a565b612358565b60408051928352602083019190915201610320565b34801561073357600080fd5b50610349610742366004614b70565b612438565b34801561075357600080fd5b50600f5461030c906001600160a01b031681565b34801561077357600080fd5b5061039960055481565b34801561078957600080fd5b5061030c61079836600461464a565b61275e565b3480156107a957600080fd5b5061030c6107b8366004614b9e565b612854565b3480156107c957600080fd5b506106046107d8366004614b53565b61288c565b3480156107e957600080fd5b506107fd6107f8366004614b9e565b612a0d565b6040516103209190614bca565b34801561081657600080fd5b50610604610825366004614c1e565b612ac1565b34801561083657600080fd5b5060035461030c906001600160a01b031681565b34801561085657600080fd5b50600e5461030c906001600160a01b031681565b34801561087657600080fd5b5061088a610885366004614c3b565b612b69565b604080516001600160a01b03909516855261ffff9093166020850152918301526060820152608001610320565b3480156108c357600080fd5b506106046108d23660046149c4565b604080516001600160a01b0395909516602086015261ffff939093168484015260608401919091526080808401919091528151808403909101815260a0909201905290565b34801561092357600080fd5b506103f4610932366004614c70565b612b9c565b34801561094357600080fd5b5061030c610952366004614cb9565b612dca565b34801561096357600080fd5b506109b561097236600461464a565b6001600160a01b03908116600090815260066020908152604080832080546001918201546009909452919093209283015460029093015490841694919093169290565b604080516001600160a01b039586168152949093166020850152918301526060820152608001610320565b3480156109ec57600080fd5b5061030c6109fb366004614a5b565b613218565b348015610a0c57600080fd5b50610427610a1b36600461464a565b613242565b348015610a2c57600080fd5b50610ab2610a3b36600461464a565b600660208190526000918252604090912080546001820154600283015460038401546004850154600586015496860154600787015460088801546009890154600a909901546001600160a01b039889169a9789169998909616979496939560ff94851695939492939192808216916101009004168c565b604080516001600160a01b039d8e1681529b8d1660208d015299909b16988a01989098526060890196909652608088019490945291151560a087015260c086015260e0850152610100840152610120830152151561014082015290151561016082015261018001610320565b348015610b2a57600080fd5b50610399610b39366004614c70565b805160208183018101805160018252928201919093012091525481565b6001600160a01b03818116600090815260066020526040812054909116331480610b9c57506001600160a01b038281166000908152600660205260409020600101541633145b610bed5760405162461bcd60e51b815260206004820152600a60248201527f6e6f74206c69737465640000000000000000000000000000000000000000000060448201526064015b60405180910390fd5b6001600160a01b0382166000908152600660205260409020600a015460ff610100909104161515600114610c635760405162461bcd60e51b815260206004820152601660248201527f7761676572206e6f742066696e697368656420796574000000000000000000006044820152606401610be4565b6001600160a01b038216600090815260066020526040902060030154610ccb5760405162461bcd60e51b815260206004820152601160248201527f776167657220616d6f756e7420697320300000000000000000000000000000006044820152606401610be4565b6001600160a01b0382166000908152600660205260409020600a015460ff1615610d5d5760405162461bcd60e51b815260206004820152603460248201527f546f75726e616d656e74207061796d656e742069732068616e646c656420627960448201527f20746f75726e616d656e7420636f6e74726163740000000000000000000000006064820152608401610be4565b6001600160a01b0382166000908152600960205260408120600281015460019091015403610dba576001600160a01b0383166000908152600660205260408120600401805491610dac83614d4d565b909155506000949350505050565b6001600160a01b038316600090815260096020526040902060028101546001909101541115610e0457506001600160a01b0380831660009081526006602052604090205416610e24565b506001600160a01b03808316600090815260066020526040902060010154165b6001600160a01b0380841660009081526006602052604081206002808201546003909201549190931692610e589190614d85565b6001600160a01b03861660009081526006602052604081206003018190556005549192509061271090610e8b9084614d85565b610e959190614dcb565b90506000610ea38284614ddf565b600d54909150610ec0906001600160a01b038681169116846133f5565b610ed46001600160a01b03851686836133f5565b600e546040517f74e7c8250000000000000000000000000000000000000000000000000000000081526001600160a01b0387811660048301528981166024830152909116906374e7c825906044016020604051808303816000875af1158015610f41573d6000803e3d6000fd5b505050506040513d601f19601f82011682018060405250810190610f659190614df2565b50600554604080516001600160a01b038a811682528881166020830152871681830152606081018490526080810192909252517f17ba55c6dfeb1e13fe6a10375284f63094ead0bb4ca2ac7864e62e18a9adc9129181900360a00190a15060019695505050505050565b600080606083518551146110255760405162461bcd60e51b815260206004820152601260248201527f6d73672e6c656e203d3d207369672e6c656e00000000000000000000000000006044820152606401610be4565b6110488560008151811061103b5761103b614e0b565b602002602001015161349e565b925060006110558461275e565b6001600160a01b03808616600090815260066020526040902080546001909101549293508116911661108a8383838b8b6134c0565b6001600160a01b03871660009081526007602090815260408083206008835281842054845282528083208054825181850281018501909352808352949850929390929183018282801561112457602002820191906000526020600020906000905b82829054906101000a900461ffff1661ffff16815260200190600201906020826001010492830192600103820291508084116110eb5790505b50505050509050600081511115611240576000855182516111459190614e3a565b67ffffffffffffffff81111561115d5761115d61466e565b604051908082528060200260200182016040528015611186578160200160208202803683370190505b50905060005b82518110156111dc578281815181106111a7576111a7614e0b565b60200260200101518282815181106111c1576111c1614e0b565b61ffff9092166020928302919091019091015260010161118c565b5060005b865181101561123c578681815181106111fb576111fb614e0b565b6020026020010151828451836112119190614e3a565b8151811061122157611221614e0b565b61ffff909216602092830291909101909101526001016111e0565b5094505b600480546040517fc668ddb40000000000000000000000000000000000000000000000000000000081526001600160a01b039091169163c668ddb49161128891899101614e4d565b608060405180830381865afa1580156112a5573d6000803e3d6000fd5b505050506040513d601f19601f820116820180604052508101906112c99190614e79565b509197505050505050509250925092565b6001600160a01b0381166000908152600a602090815260409182902080548351818402810184019094528084526060939283018282801561134457602002820191906000526020600020905b81546001600160a01b03168152600190910190602001808311611326575b50505050509050919050565b6000613fc0600684901b1661136860ff841682614ec9565b9150505b92915050565b6003546001600160a01b031633146113cc5760405162461bcd60e51b815260206004820152600d60248201527f4f6e6c79206465706c6f796572000000000000000000000000000000000000006044820152606401610be4565b600f80547fffffffffffffffffffffffff0000000000000000000000000000000000000000166001600160a01b0392909216919091179055565b6003546001600160a01b031633146114605760405162461bcd60e51b815260206004820152600d60248201527f4f6e6c79206465706c6f796572000000000000000000000000000000000000006044820152606401610be4565b60005b60408112156115285781816040811061147e5761147e614e0b565b6020020135600184836040811061149757611497614e0b565b6020028101906114a79190614eeb565b6040516114b5929190614f50565b9081526020016040518091039020819055508281604081106114d9576114d9614e0b565b6020028101906114e99190614eeb565b600260008585604081106114ff576114ff614e0b565b60200201358152602001908152602001600020918261151f929190614ffb565b50600101611463565b505050565b6060600b80548060200260200160405190810160405280929190818152602001828054801561158557602002820191906000526020600020905b81546001600160a01b03168152600190910190602001808311611567575b5050505050905090565b600f546001600160a01b031633146115e95760405162461bcd60e51b815260206004820152601760248201527f6e6f7420746f75726e616d656e7420636f6e74726163740000000000000000006044820152606401610be4565b6001600160a01b0316600090815260066020526040902042600790910155565b604080516001600160a01b038616602082015261ffff8516818301526060810184905260808082018490528251808303909101815260a082019092526000916116549160c0016150f8565b6040516020818303038152906040528051906020012090505b949350505050565b6040805161018081018252338082526001600160a01b03888116602084015287169282018390526060820186905260808201849052600060a0830181905260c0830186905260e083018190526101008301819052610120830181905261014083018190526101608301819052926116ed9130886137cf565b6116f681613826565b6001600160a01b0380821660009081526006602052604090205491935016156117615760405162461bcd60e51b815260206004820152601660248201527f6661696c656420746f20637265617465207761676572000000000000000000006044820152606401610be4565b8060066000846001600160a01b03166001600160a01b0316815260200190815260200160002060008201518160000160006101000a8154816001600160a01b0302191690836001600160a01b0316021790555060208201518160010160006101000a8154816001600160a01b0302191690836001600160a01b0316021790555060408201518160020160006101000a8154816001600160a01b0302191690836001600160a01b03160217905550606082015181600301556080820151816004015560a08201518160050160006101000a81548160ff02191690831515021790555060c0820151816006015560e082015181600701556101008201518160080155610120820151816009015561014082015181600a0160006101000a81548160ff02191690831515021790555061016082015181600a0160016101000a81548160ff0219169083151502179055509050506000604051806060016040528060001515815260200160008152602001600081525090508060096000856001600160a01b03166001600160a01b0316815260200190815260200160002060008201518160000160006101000a81548160ff0219169083151502179055506020820151816001015560408201518160020155905050600a6000336001600160a01b03166001600160a01b03168152602001908152602001600020839080600181540180825580915050600190039060005260206000200160009091909190916101000a8154816001600160a01b0302191690836001600160a01b03160217905550600a6000896001600160a01b03166001600160a01b03168152602001908152602001600020839080600181540180825580915050600190039060005260206000200160009091909190916101000a8154816001600160a01b0302191690836001600160a01b03160217905550600b839080600181540180825580915050600190039060005260206000200160009091909190916101000a8154816001600160a01b0302191690836001600160a01b031602179055507f8b71196164839daf146c1f61cf5c3d0aa0590d17e7d96013d972d1ad72a459728388888888604051611ab69594939291906001600160a01b03958616815293909416602084015260408301919091526060820152608081019190915260a00190565b60405180910390a1505095945050505050565b6001600160a01b038116600090815260066020526040812060040154611aee836139a0565b1115611b3c5760405162461bcd60e51b815260206004820152600b60248201527f576167657220656e6465640000000000000000000000000000000000000000006044820152606401610be4565b6001600160a01b0382166000908152600660205260408120600701549003611ba65760405162461bcd60e51b815260206004820181905260248201527f746f75726e616d656e74206d61746368206e6f742073746172746564207965746044820152606401610be4565b600080611bb284612358565b915091506000821215611c5a576001600160a01b0384166000908152600960205260408120600201805460019290611beb908490614e3a565b9091555050506001600160a01b03909216600090815260096020908152604080832080547fffffffffffffffffffffffffffffffffffffffffffffffffffffffffffffff00811660ff909116151790556008825282208054600181810183559184529190922081015592915050565b6000811215611c91576001600160a01b03841660009081526009602052604081206001908101805491929091611beb908490614e3a565b5060009392505050565b611ca361454f565b611cab61454f565b6000805b60078111611ddd5760006001611cc58382615114565b611cd090600861513c565b611cda9190615188565b90506000611ce9600783615188565b90505b808212611dc857600480546040517fa4a10e0b00000000000000000000000000000000000000000000000000000000815291820189905260ff841660248301526000916001600160a01b039091169063a4a10e0b90604401602060405180830381865afa158015611d61573d6000803e3d6000fd5b505050506040513d601f19601f82011682018060405250810190611d8591906151a8565b9050611d9081612ac1565b868660408110611da257611da2614e0b565b602002015284611db181614d4d565b955050508180611dc0906151c5565b925050611cec565b50508080611dd590614d4d565b915050611caf565b50909392505050565b600080600080611df68686610fcf565b925060ff169250925081600014611e57576001600160a01b03831660009081526008602090815260408083205460078352818420818552835292208351611e3f92850190614577565b50611e49846139c4565b50600194505050505061136c565b6000935050505061136c565b6001600160a01b03811660009081526008602090815260408083205460078352818420818552835281842080548351818602810186019094528084528594859485949385939192909190830182828015611f0457602002820191906000526020600020906000905b82829054906101000a900461ffff1661ffff1681526020019060020190602082600101049283019260010382029150808411611ecb5790505b505050505090508051600003611fc3576001600160a01b038716600090815260076020526040812090611f38600185614ddf565b8152602001908152602001600020600001805480602002602001604051908101604052809291908181526020018280548015611fbb57602002820191906000526020600020906000905b82829054906101000a900461ffff1661ffff1681526020019060020190602082600101049283019260010382029150808411611f825790505b505050505090505b600480546040517fc668ddb40000000000000000000000000000000000000000000000000000000081526000928392839283926001600160a01b039092169163c668ddb49161201491899101614e4d565b608060405180830381865afa158015612031573d6000803e3d6000fd5b505050506040513d601f19601f820116820180604052508101906120559190614e79565b929e919d509b50909950975050505050505050565b6002602052600090815260409020805461208390614f60565b80601f01602080910402602001604051908101604052809291908181526020018280546120af90614f60565b80156120fc5780601f106120d1576101008083540402835291602001916120fc565b820191906000526020600020905b8154815290600101906020018083116120df57829003601f168201915b505050505081565b6001600160a01b03828116600090815260066020526040812054909180841691160361214c57506001600160a01b03821660009081526009602052604090205460ff1661136c565b506001600160a01b03821660009081526009602052604090205460ff161561136c565b6001600160a01b03811660009081526006602052604081206005015460ff16156121db5760405162461bcd60e51b815260206004820152601160248201527f776167657220696e2070726f67726573730000000000000000000000000000006044820152606401610be4565b6001600160a01b038281166000908152600660205260409020541633146122445760405162461bcd60e51b815260206004820152600a60248201527f6e6f74206c6973746564000000000000000000000000000000000000000000006044820152606401610be4565b6001600160a01b0382166000908152600660205260409020600a015460ff16156122d65760405162461bcd60e51b815260206004820152602f60248201527f63616e6e6f742063616e63656c20746f75726e616d656e74207761676572206960448201527f6e207468697320636f6e747261637400000000000000000000000000000000006064820152608401610be4565b6001600160a01b0380831660009081526006602052604081206002810154600390910180549290559091169061230d8233836133f5565b604080516001600160a01b03861681523360208201527fd7ac1994f37f26b02459758a4564d000ddb3e6b64c724bd513845d43b2a991c1910160405180910390a15060019392505050565b6001600160a01b03808216600090815260066020526040812080546008820154600983015460079093015493948594921692909184906123989042614ddf565b6001600160a01b0388166000908152600660208190526040822001549192506123c08961275e565b9050600080876001600160a01b0316836001600160a01b031603612405576123e88786614e3a565b6123f29085615188565b91506123fe8685615188565b9050612428565b61240f8785615188565b915061241b8686614e3a565b6124259085615188565b90505b909a909950975050505050505050565b6000336124448461275e565b6001600160a01b03161461249a5760405162461bcd60e51b815260206004820152600d60248201527f4e6f7420796f7572207475726e000000000000000000000000000000000000006044820152606401610be4565b6001600160a01b0383166000908152600660205260409020600401546124bf846139a0565b111561250d5760405162461bcd60e51b815260206004820152600b60248201527f576167657220656e6465640000000000000000000000000000000000000000006044820152606401610be4565b6001600160a01b03831660009081526006602052604081206007015490036125775760405162461bcd60e51b815260206004820152601a60248201527f546f75726e616d656e74206e6f742073746172746564207965740000000000006044820152606401610be4565b6125818333613e83565b600061258c84611ac9565b9050801561259e57600191505061136c565b6001600160a01b0384166000908152600860209081526040808320546007835281842081855290925282205490916125d7826001614e3a565b67ffffffffffffffff8111156125ef576125ef61466e565b604051908082528060200260200182016040528015612618578160200160208202803683370190505b50905060005b828110156126ac576001600160a01b0388166000908152600760209081526040808320878452909152902080548290811061265b5761265b614e0b565b90600052602060002090601091828204019190066002029054906101000a900461ffff1682828151811061269157612691614e0b565b61ffff9092166020928302919091019091015260010161261e565b50858183815181106126c0576126c0614e0b565b61ffff9092166020928302919091018201526001600160a01b03881660009081526007825260408082208683528352902082516126ff92840190614577565b50600061270b886139c4565b604080516001600160a01b038b16815261ffff8a1660208201529192507f9fc19a6b17c82c9f9699088172073341a17ba160046632ca547fbc74ff5543fd910160405180910390a1979650505050505050565b6001600160a01b0381166000818152600860209081526040808320546007835281842081855283528184205494845260099092528220549192909160ff1680156127fb576127ad60028361521c565b6001036127d957505050506001600160a01b039081166000908152600660205260409020600101541690565b505050506001600160a01b039081166000908152600660205260409020541690565b61280660028361521c565b60010361282f57505050506001600160a01b039081166000908152600660205260409020541690565b505050506001600160a01b039081166000908152600660205260409020600101541690565b600a602052816000526040600020818154811061287057600080fd5b6000918252602090912001546001600160a01b03169150829050565b600681901c60ff8116600090815260026020526040812080546060936103ff1692603f86169290916128bd90614f60565b80601f01602080910402602001604051908101604052809291908181526020018280546128e990614f60565b80156129365780601f1061290b57610100808354040283529160200191612936565b820191906000526020600020905b81548152906001019060200180831161291957829003601f168201915b505050505090506000600260008460ff168152602001908152602001600020805461296090614f60565b80601f016020809104026020016040519081016040528092919081815260200182805461298c90614f60565b80156129d95780601f106129ae576101008083540402835291602001916129d9565b820191906000526020600020905b8154815290600101906020018083116129bc57829003601f168201915b5050505050905081816040516020016129f3929190615230565b604051602081830303815290604052945050505050919050565b6040805160208082018352606082526001600160a01b038516600090815260078252838120858252825283902083518154808402820186018652928101838152939490939192849291849190840182828015612ab057602002820191906000526020600020906000905b82829054906101000a900461ffff1661ffff1681526020019060020190602082600101049283019260010382029150808411612a775790505b505050505081525050905092915050565b60ff8116600090815260208190526040812080546060929190612ae390614f60565b80601f0160208091040260200160405190810160405280929190818152602001828054612b0f90614f60565b8015612b5c5780601f10612b3157610100808354040283529160200191612b5c565b820191906000526020600020905b815481529060010190602001808311612b3f57829003601f168201915b5093979650505050505050565b60008060008060008060008088806020019051810190612b89919061525f565b929c919b50995090975095505050505050565b60408051808201825260028082527f30300000000000000000000000000000000000000000000000000000000000006020808401829052845180860190955291845290830152825160009284929183908590612bfa57612bfa614e0b565b602001015160f81c60f81b82600081518110612c1857612c18614e0b565b60200101907effffffffffffffffffffffffffffffffffffffffffffffffffffffffffffff1916908160001a90535082600181518110612c5a57612c5a614e0b565b602001015160f81c60f81b82600181518110612c7857612c78614e0b565b60200101907effffffffffffffffffffffffffffffffffffffffffffffffffffffffffffff1916908160001a90535082600281518110612cba57612cba614e0b565b602001015160f81c60f81b81600081518110612cd857612cd8614e0b565b60200101907effffffffffffffffffffffffffffffffffffffffffffffffffffffffffffff1916908160001a90535082600381518110612d1a57612d1a614e0b565b602001015160f81c60f81b81600181518110612d3857612d38614e0b565b60200101907effffffffffffffffffffffffffffffffffffffffffffffffffffffffffffff1916908160001a90535060405182908290600090600190612d7f9085906150f8565b90815260200160405180910390205490506000600183604051612da291906150f8565b9081526020016040518091039020549050612dbd8282611350565b9998505050505050505050565b600f546000906001600160a01b03163314612e275760405162461bcd60e51b815260206004820152601760248201527f6e6f7420746f75726e616d656e7420636f6e74726163740000000000000000006044820152606401610be4565b6000604051806101800160405280896001600160a01b03168152602001886001600160a01b03168152602001876001600160a01b03168152602001868152602001858152602001600115158152602001848152602001600081526020016000815260200160008152602001600115158152602001600015158152509050612ead81613826565b91508060066000846001600160a01b03166001600160a01b0316815260200190815260200160002060008201518160000160006101000a8154816001600160a01b0302191690836001600160a01b0316021790555060208201518160010160006101000a8154816001600160a01b0302191690836001600160a01b0316021790555060408201518160020160006101000a8154816001600160a01b0302191690836001600160a01b03160217905550606082015181600301556080820151816004015560a08201518160050160006101000a81548160ff02191690831515021790555060c0820151816006015560e082015181600701556101008201518160080155610120820151816009015561014082015181600a0160006101000a81548160ff02191690831515021790555061016082015181600a0160016101000a81548160ff0219169083151502179055509050506000604051806060016040528060001515815260200160008152602001600081525090508060096000856001600160a01b03166001600160a01b0316815260200190815260200160002060008201518160000160006101000a81548160ff0219169083151502179055506020820151816001015560408201518160020155905050600a60008a6001600160a01b03166001600160a01b03168152602001908152602001600020839080600181540180825580915050600190039060005260206000200160009091909190916101000a8154816001600160a01b0302191690836001600160a01b03160217905550600a6000896001600160a01b03166001600160a01b03168152602001908152602001600020839080600181540180825580915050600190039060005260206000200160009091909190916101000a8154816001600160a01b0302191690836001600160a01b03160217905550600b839080600181540180825580915050600190039060005260206000200160009091909190916101000a8154816001600160a01b0302191690836001600160a01b031602179055507f8b71196164839daf146c1f61cf5c3d0aa0590d17e7d96013d972d1ad72a4597283888887896040516132049594939291906001600160a01b03958616815293909416602084015260408301919091526060820152608081019190915260a00190565b60405180910390a150509695505050505050565b600b818154811061322857600080fd5b6000918252602090912001546001600160a01b0316905081565b6001600160a01b0380821660009081526006602052604090206001015416806132d8576001600160a01b038216600081815260066020908152604080832060019081018054337fffffffffffffffffffffffff00000000000000000000000000000000000000009182168117909255908552600a8452918420805491820181558452919092200180549091169091179055613344565b6001600160a01b038281166000908152600660205260409020600101541633146133445760405162461bcd60e51b815260206004820152601560248201527f6d73672e73656e64657220213d20706c617965723100000000000000000000006044820152606401610be4565b6001600160a01b038083166000908152600660205260409020600281015460038201546005830180547fffffffffffffffffffffffffffffffffffffffffffffffffffffffffffffff0016600117905542600790930192909255909116906133ae823330846137cf565b604080516001600160a01b03861681523360208201527fc13e0ce4ce512479ea6017f275044e0b28a96539df1d5a8ccad20c8f4ba117e9910160405180910390a150505050565b6040516001600160a01b0383166024820152604481018290526115289084907fa9059cbb00000000000000000000000000000000000000000000000000000000906064015b60408051601f198184030181529190526020810180517bffffffffffffffffffffffffffffffffffffffffffffffffffffffff167fffffffff0000000000000000000000000000000000000000000000000000000090931692909217909152613f6c565b600080828060200190518101906134b5919061525f565b509195945050505050565b6060825167ffffffffffffffff8111156134dc576134dc61466e565b604051908082528060200260200182016040528015613505578160200160208202803683370190505b5090506000835167ffffffffffffffff8111156135245761352461466e565b60405190808252806020026020018201604052801561354d578160200160208202803683370190505b506040805160e0810182526000808252606082018190526080820181905260a0820181905260c082018190526001600160a01b038a811660208401528916928201929092529192505b85518110156137c35760208201516001600160a01b038a81169116146135bd60028361521c565b15146135cd5781604001516135d3565b81602001515b6001600160a01b031682528551613603908790839081106135f6576135f6614e0b565b6020026020010151612b69565b60a08601819052608086019190915261ffff9091166060850152421115905061366e5760405162461bcd60e51b815260206004820152601060248201527f4d6f7665206861732065787069726564000000000000000000000000000000006044820152606401610be4565b61369a61368687838151811061103b5761103b614e0b565b836060015184608001518560a00151611609565b60c0830181905285516136cc91908790849081106136ba576136ba614e0b565b60200260200101518460000151614051565b801561376e576080820151836136e3600184614ddf565b815181106136f3576136f3614e0b565b60200260200101511061376e5760405162461bcd60e51b815260206004820152602160248201527f4d6f766573206d75737420626520696e2073657175656e7469616c206f72646560448201527f72000000000000000000000000000000000000000000000000000000000000006064820152608401610be4565b816080015183828151811061378557613785614e0b565b60200260200101818152505081606001518482815181106137a8576137a8614e0b565b61ffff90921660209283029190910190910152600101613596565b50505095945050505050565b6040516001600160a01b03808516602483015283166044820152606481018290526138209085907f23b872dd000000000000000000000000000000000000000000000000000000009060840161343a565b50505050565b600081602001516001600160a01b031682600001516001600160a01b0316036138915760405162461bcd60e51b815260206004820152601960248201527f706c6179657273206d75737420626520646966666572656e74000000000000006044820152606401610be4565b600282608001516138a2919061521c565b6001146138f15760405162461bcd60e51b815260206004820152601b60248201527f6e756d626572206f662067616d6573206d757374206265206f646400000000006044820152606401610be4565b50805160208083015160408085015160608087015160c0880151608090980151845197831b7fffffffffffffffffffffffffffffffffffffffff0000000000000000000000009081168989015295831b8616603489015292821b9094166048870152605c860193909352607c850195909552609c8401949094524360bc84018190524660dc8501524060fc808501919091528451808503909101815261011c9093019093528151910120901c90565b6001600160a01b03811660009081526008602052604081205461136c906001614e3a565b6001600160a01b0381166000908152600660205260408120600401546139e9836139a0565b1115613a375760405162461bcd60e51b815260206004820152600b60248201527f576167657220656e6465640000000000000000000000000000000000000000006044820152606401610be4565b6001600160a01b0382166000908152600860209081526040808320546007835281842081855283528184208054835181860281018601909452808452919493909190830182828015613ad057602002820191906000526020600020906000905b82829054906101000a900461ffff1661ffff1681526020019060020190602082600101049283019260010382029150808411613a975790505b5050600480546040517fc668ddb40000000000000000000000000000000000000000000000000000000081529596506000956001600160a01b03909116945063c668ddb49350613b239250869101614e4d565b608060405180830381865afa158015613b40573d6000803e3d6000fd5b505050506040513d601f19601f82011682018060405250810190613b649190614e79565b50505090508060ff16600003613b7f57506000949350505050565b8060ff16600103613c7d576001600160a01b03851660009081526009602052604081206001908101805491929091613bb8908490614e3a565b90915550506001600160a01b0385166000908152600960205260408120600201805460019290613be9908490614e3a565b90915550506001600160a01b038516600081815260096020908152604080832080547fffffffffffffffffffffffffffffffffffffffffffffffffffffffffffffff00811660ff9091161517905560088252808320805460018181018355918552838520810155938352600690915281206004018054909190613c6d908490614e3a565b9091555060019695505050505050565b8060ff16600203613de8576001600160a01b03808616600090815260066020526040902054613cae91879116612104565b15613cec576001600160a01b03851660009081526009602052604081206001908101805491929091613ce1908490614e3a565b90915550613d1e9050565b6001600160a01b0385166000908152600960205260408120600201805460019290613d18908490614e3a565b90915550505b6001600160a01b038516600081815260096020908152604080832080547fffffffffffffffffffffffffffffffffffffffffffffffffffffffffffffff00811660ff909116151790556008808352818420805460018101825581865284862081015594845260068352922060040154919052905403613ddd576001600160a01b0385166000908152600660205260409020600a0180547fffffffffffffffffffffffffffffffffffffffffffffffffffffffffffff00ff166101001790555b506001949350505050565b8060ff16600303613e78576001600160a01b03808616600090815260066020526040902054613e1991879116612104565b15613e4a576001600160a01b0385166000908152600960205260408120600201805460019290613ce1908490614e3a565b6001600160a01b03851660009081526009602052604081206001908101805491929091613d18908490614e3a565b506000949350505050565b6001600160a01b0382811660009081526006602052604081208054600790910154848416919093161491904290613eba8383614ddf565b90508315613f15576001600160a01b03861660009081526006602052604081206008018054839290613eed908490614e3a565b90915550506001600160a01b0386166000908152600660205260409020600701829055613f64565b6001600160a01b03861660009081526006602052604081206009018054839290613f40908490614e3a565b90915550506001600160a01b03861660009081526006602052604090206007018290555b505050505050565b6000613fc1826040518060400160405280602081526020017f5361666545524332303a206c6f772d6c6576656c2063616c6c206661696c6564815250856001600160a01b03166141169092919063ffffffff16565b8051909150156115285780806020019051810190613fdf91906152a7565b6115285760405162461bcd60e51b815260206004820152602a60248201527f5361666545524332303a204552433230206f7065726174696f6e20646964206e60448201527f6f742073756363656564000000000000000000000000000000000000000000006064820152608401610be4565b60006140aa846040517f19457468657265756d205369676e6564204d6573736167653a0a3332000000006020820152603c8101829052600090605c01604051602081830303815290604052805190602001209050919050565b9050816001600160a01b03166140c08285614125565b6001600160a01b0316146138205760405162461bcd60e51b815260206004820152600b60248201527f696e76616c6964207369670000000000000000000000000000000000000000006044820152606401610be4565b606061166d8484600085614149565b6000806000614134858561423b565b9150915061414181614280565b509392505050565b6060824710156141c15760405162461bcd60e51b815260206004820152602660248201527f416464726573733a20696e73756666696369656e742062616c616e636520666f60448201527f722063616c6c00000000000000000000000000000000000000000000000000006064820152608401610be4565b600080866001600160a01b031685876040516141dd91906150f8565b60006040518083038185875af1925050503d806000811461421a576040519150601f19603f3d011682016040523d82523d6000602084013e61421f565b606091505b5091509150614230878383876143e8565b979650505050505050565b60008082516041036142715760208301516040840151606085015160001a61426587828585614461565b94509450505050614279565b506000905060025b9250929050565b6000816004811115614294576142946152c9565b0361429c5750565b60018160048111156142b0576142b06152c9565b036142fd5760405162461bcd60e51b815260206004820152601860248201527f45434453413a20696e76616c6964207369676e617475726500000000000000006044820152606401610be4565b6002816004811115614311576143116152c9565b0361435e5760405162461bcd60e51b815260206004820152601f60248201527f45434453413a20696e76616c6964207369676e6174757265206c656e677468006044820152606401610be4565b6003816004811115614372576143726152c9565b036143e55760405162461bcd60e51b815260206004820152602260248201527f45434453413a20696e76616c6964207369676e6174757265202773272076616c60448201527f75650000000000000000000000000000000000000000000000000000000000006064820152608401610be4565b50565b60608315614457578251600003614450576001600160a01b0385163b6144505760405162461bcd60e51b815260206004820152601d60248201527f416464726573733a2063616c6c20746f206e6f6e2d636f6e74726163740000006044820152606401610be4565b508161166d565b61166d8383614525565b6000807f7fffffffffffffffffffffffffffffff5d576e7357a4501ddfe92f46681b20a0831115614498575060009050600361451c565b6040805160008082526020820180845289905260ff881692820192909252606081018690526080810185905260019060a0016020604051602081039080840390855afa1580156144ec573d6000803e3d6000fd5b5050604051601f1901519150506001600160a01b0381166145155760006001925092505061451c565b9150600090505b94509492505050565b8151156145355781518083602001fd5b8060405162461bcd60e51b8152600401610be49190614b12565b6040518061080001604052806040905b606081526020019060019003908161455f5790505090565b82805482825590600052602060002090600f016010900481019282156146105791602002820160005b838211156145e057835183826101000a81548161ffff021916908361ffff16021790555092602001926002016020816001010492830192600103026145a0565b801561460e5782816101000a81549061ffff02191690556002016020816001010492830192600103026145e0565b505b5061461c929150614620565b5090565b5b8082111561461c5760008155600101614621565b6001600160a01b03811681146143e557600080fd5b60006020828403121561465c57600080fd5b813561466781614635565b9392505050565b7f4e487b7100000000000000000000000000000000000000000000000000000000600052604160045260246000fd5b604051601f8201601f1916810167ffffffffffffffff811182821017156146c6576146c661466e565b604052919050565b600067ffffffffffffffff8311156146e8576146e861466e565b6146fb6020601f19601f8601160161469d565b905082815283838301111561470f57600080fd5b828260208301376000602084830101529392505050565b600082601f83011261473757600080fd5b614667838335602085016146ce565b600082601f83011261475757600080fd5b8135602067ffffffffffffffff808311156147745761477461466e565b8260051b61478383820161469d565b938452858101830193838101908886111561479d57600080fd5b84880192505b858310156147d9578235848111156147bb5760008081fd5b6147c98a87838c0101614726565b83525091840191908401906147a3565b98975050505050505050565b600080604083850312156147f857600080fd5b823567ffffffffffffffff8082111561481057600080fd5b61481c86838701614746565b9350602085013591508082111561483257600080fd5b5061483f85828601614746565b9150509250929050565b60008151808452602080850194506020840160005b8381101561487e57815161ffff168752958201959082019060010161485e565b509495945050505050565b6001600160a01b038416815260ff831660208201526060604082015260006148b46060830184614849565b95945050505050565b6020808252825182820181905260009190848201906040850190845b818110156148fe5783516001600160a01b0316835292840192918401916001016148d9565b50909695505050505050565b60ff811681146143e557600080fd5b6000806040838503121561492c57600080fd5b82356149378161490a565b915060208301356149478161490a565b809150509250929050565b80610800810183101561136c57600080fd5b600080610820838503121561497857600080fd5b823567ffffffffffffffff81111561498f57600080fd5b61499b85828601614952565b9250506149ab8460208501614952565b90509250929050565b61ffff811681146143e557600080fd5b600080600080608085870312156149da57600080fd5b84356149e581614635565b935060208501356149f5816149b4565b93969395505050506040820135916060013590565b600080600080600060a08688031215614a2257600080fd5b8535614a2d81614635565b94506020860135614a3d81614635565b94979496505050506040830135926060810135926080909101359150565b600060208284031215614a6d57600080fd5b5035919050565b60005b83811015614a8f578181015183820152602001614a77565b50506000910152565b60008151808452614ab0816020860160208601614a74565b601f01601f19169290920160200192915050565b6020808252600090610820830183820185845b6040811015614b0657601f19878503018352614af4848351614a98565b93509184019190840190600101614ad7565b50919695505050505050565b6020815260006146676020830184614a98565b60008060408385031215614b3857600080fd5b8235614b4381614635565b9150602083013561494781614635565b600060208284031215614b6557600080fd5b8135614667816149b4565b60008060408385031215614b8357600080fd5b8235614b8e81614635565b91506020830135614947816149b4565b60008060408385031215614bb157600080fd5b8235614bbc81614635565b946020939093013593505050565b6020808252825182820182905280516040840181905260009291820190839060608601905b80831015614c1357835161ffff168252928401926001929092019190840190614bef565b509695505050505050565b600060208284031215614c3057600080fd5b81356146678161490a565b600060208284031215614c4d57600080fd5b813567ffffffffffffffff811115614c6457600080fd5b61166d84828501614726565b600060208284031215614c8257600080fd5b813567ffffffffffffffff811115614c9957600080fd5b8201601f81018413614caa57600080fd5b61166d848235602084016146ce565b60008060008060008060c08789031215614cd257600080fd5b8635614cdd81614635565b95506020870135614ced81614635565b94506040870135614cfd81614635565b959894975094956060810135955060808101359460a0909101359350915050565b7f4e487b7100000000000000000000000000000000000000000000000000000000600052601160045260246000fd5b60007fffffffffffffffffffffffffffffffffffffffffffffffffffffffffffffffff8203614d7e57614d7e614d1e565b5060010190565b808202811582820484141761136c5761136c614d1e565b7f4e487b7100000000000000000000000000000000000000000000000000000000600052601260045260246000fd5b600082614dda57614dda614d9c565b500490565b8181038181111561136c5761136c614d1e565b600060208284031215614e0457600080fd5b5051919050565b7f4e487b7100000000000000000000000000000000000000000000000000000000600052603260045260246000fd5b8082018082111561136c5761136c614d1e565b6020815260006146676020830184614849565b805163ffffffff81168114614e7457600080fd5b919050565b60008060008060808587031215614e8f57600080fd5b8451614e9a8161490a565b60208601519094509250614eb060408601614e60565b9150614ebe60608601614e60565b905092959194509250565b61ffff818116838216019080821115614ee457614ee4614d1e565b5092915050565b60008083357fffffffffffffffffffffffffffffffffffffffffffffffffffffffffffffffe1843603018112614f2057600080fd5b83018035915067ffffffffffffffff821115614f3b57600080fd5b60200191503681900382131561427957600080fd5b8183823760009101908152919050565b600181811c90821680614f7457607f821691505b602082108103614fad577f4e487b7100000000000000000000000000000000000000000000000000000000600052602260045260246000fd5b50919050565b601f821115611528576000816000526020600020601f850160051c81016020861015614fdc5750805b601f850160051c820191505b81811015613f6457828155600101614fe8565b67ffffffffffffffff8311156150135761501361466e565b615027836150218354614f60565b83614fb3565b6000601f84116001811461507957600085156150435750838201355b7fffffffffffffffffffffffffffffffffffffffffffffffffffffffffffffffff600387901b1c1916600186901b1783556150f1565b600083815260209020601f19861690835b828110156150aa578685013582556020948501946001909201910161508a565b50868210156150e5577fffffffffffffffffffffffffffffffffffffffffffffffffffffffffffffffff60f88860031b161c19848701351681555b505060018560011b0183555b5050505050565b6000825161510a818460208701614a74565b9190910192915050565b808201828112600083128015821682158216171561513457615134614d1e565b505092915050565b808202600082127f80000000000000000000000000000000000000000000000000000000000000008414161561517457615174614d1e565b818105831482151761136c5761136c614d1e565b8181036000831280158383131683831282161715614ee457614ee4614d1e565b6000602082840312156151ba57600080fd5b81516146678161490a565b60007f800000000000000000000000000000000000000000000000000000000000000082036151f6576151f6614d1e565b507fffffffffffffffffffffffffffffffffffffffffffffffffffffffffffffffff0190565b60008261522b5761522b614d9c565b500690565b60008351615242818460208801614a74565b835190830190615256818360208801614a74565b01949350505050565b6000806000806080858703121561527557600080fd5b845161528081614635565b6020860151909450615291816149b4565b6040860151606090960151949790965092505050565b6000602082840312156152b957600080fd5b8151801515811461466757600080fd5b7f4e487b7100000000000000000000000000000000000000000000000000000000600052602160045260246000fdfea164736f6c6343000816000a",
  "linkReferences": {},
  "deployedLinkReferences": {}
}