{
  "_format": "hh-sol-artifact-1",
  "contractName": "ChessWager",
  "sourceName": "contracts/ChessWager.sol",
  "abi": [
    {
      "inputs": [
        {
          "internalType": "address",
          "name": "moveVerificationAddress",
          "type": "address"
        },
        {
          "internalType": "address",
          "name": "_GaslessGame",
          "type": "address"
        },
        {
          "internalType": "address",
          "name": "_DividendSplitter",
          "type": "address"
        },
        {
          "internalType": "address",
          "name": "_ChessFishNFT",
          "type": "address"
        }
      ],
      "stateMutability": "nonpayable",
      "type": "constructor"
    },
    {
      "anonymous": false,
      "inputs": [
        {
          "indexed": false,
          "internalType": "address",
          "name": "wagerAddress",
          "type": "address"
        },
        {
          "indexed": false,
          "internalType": "address",
          "name": "userAddress",
          "type": "address"
        }
      ],
      "name": "acceptWagerEvent",
      "type": "event"
    },
    {
      "anonymous": false,
      "inputs": [
        {
          "indexed": false,
          "internalType": "address",
          "name": "wagerAddress",
          "type": "address"
        },
        {
          "indexed": false,
          "internalType": "address",
          "name": "userAddress",
          "type": "address"
        }
      ],
      "name": "cancelWagerEvent",
      "type": "event"
    },
    {
      "anonymous": false,
      "inputs": [
        {
          "indexed": false,
          "internalType": "address",
          "name": "wager",
          "type": "address"
        },
        {
          "indexed": false,
          "internalType": "address",
          "name": "wagerToken",
          "type": "address"
        },
        {
          "indexed": false,
          "internalType": "uint256",
          "name": "wagerAmount",
          "type": "uint256"
        },
        {
          "indexed": false,
          "internalType": "uint256",
          "name": "timeLimit",
          "type": "uint256"
        },
        {
          "indexed": false,
          "internalType": "uint256",
          "name": "numberOfGames",
          "type": "uint256"
        }
      ],
      "name": "createGameWagerEvent",
      "type": "event"
    },
    {
      "anonymous": false,
      "inputs": [
        {
          "indexed": false,
          "internalType": "address",
          "name": "wagerAddress",
          "type": "address"
        },
        {
          "indexed": false,
          "internalType": "address",
          "name": "winner",
          "type": "address"
        },
        {
          "indexed": false,
          "internalType": "address",
          "name": "wagerToken",
          "type": "address"
        },
        {
          "indexed": false,
          "internalType": "uint256",
          "name": "wagerAmount",
          "type": "uint256"
        },
        {
          "indexed": false,
          "internalType": "uint256",
          "name": "protocolFee",
          "type": "uint256"
        }
      ],
      "name": "payoutWagerEvent",
      "type": "event"
    },
    {
      "anonymous": false,
      "inputs": [
        {
          "indexed": false,
          "internalType": "address",
          "name": "wagerAddress",
          "type": "address"
        },
        {
          "indexed": false,
          "internalType": "uint16",
          "name": "move",
          "type": "uint16"
        }
      ],
      "name": "playMoveEvent",
      "type": "event"
    },
    {
      "inputs": [],
      "name": "ChessFishNFT",
      "outputs": [
        {
          "internalType": "address",
          "name": "",
          "type": "address"
        }
      ],
      "stateMutability": "view",
      "type": "function"
    },
    {
      "inputs": [],
      "name": "ChessFishToken",
      "outputs": [
        {
          "internalType": "address",
          "name": "",
          "type": "address"
        }
      ],
      "stateMutability": "view",
      "type": "function"
    },
    {
      "inputs": [],
      "name": "DividendSplitter",
      "outputs": [
        {
          "internalType": "address",
          "name": "",
          "type": "address"
        }
      ],
      "stateMutability": "view",
      "type": "function"
    },
    {
      "inputs": [],
      "name": "TournamentHandler",
      "outputs": [
        {
          "internalType": "address",
          "name": "",
          "type": "address"
        }
      ],
      "stateMutability": "view",
      "type": "function"
    },
    {
      "inputs": [
        {
          "internalType": "address",
          "name": "wagerAddress",
          "type": "address"
        }
      ],
      "name": "acceptWager",
      "outputs": [],
      "stateMutability": "nonpayable",
      "type": "function"
    },
    {
      "inputs": [
        {
          "internalType": "address",
          "name": "_tournamentHandler",
          "type": "address"
        }
      ],
      "name": "addTournamentHandler",
      "outputs": [],
      "stateMutability": "nonpayable",
      "type": "function"
    },
    {
      "inputs": [
        {
          "internalType": "uint256",
          "name": "",
          "type": "uint256"
        }
      ],
      "name": "allWagers",
      "outputs": [
        {
          "internalType": "address",
          "name": "",
          "type": "address"
        }
      ],
      "stateMutability": "view",
      "type": "function"
    },
    {
      "inputs": [
        {
          "internalType": "address",
          "name": "wagerAddress",
          "type": "address"
        }
      ],
      "name": "cancelWager",
      "outputs": [],
      "stateMutability": "nonpayable",
      "type": "function"
    },
    {
      "inputs": [
        {
          "internalType": "address",
          "name": "wagerAddress",
          "type": "address"
        }
      ],
      "name": "checkTimeRemaining",
      "outputs": [
        {
          "internalType": "int256",
          "name": "",
          "type": "int256"
        },
        {
          "internalType": "int256",
          "name": "",
          "type": "int256"
        }
      ],
      "stateMutability": "view",
      "type": "function"
    },
    {
      "inputs": [
        {
          "internalType": "uint16",
          "name": "move",
          "type": "uint16"
        }
      ],
      "name": "convertFromMove",
      "outputs": [
        {
          "internalType": "uint8",
          "name": "",
          "type": "uint8"
        },
        {
          "internalType": "uint8",
          "name": "",
          "type": "uint8"
        }
      ],
      "stateMutability": "pure",
      "type": "function"
    },
    {
      "inputs": [
        {
          "internalType": "uint8",
          "name": "fromPos",
          "type": "uint8"
        },
        {
          "internalType": "uint8",
          "name": "toPos",
          "type": "uint8"
        }
      ],
      "name": "convertToMove",
      "outputs": [
        {
          "internalType": "uint16",
          "name": "",
          "type": "uint16"
        }
      ],
      "stateMutability": "pure",
      "type": "function"
    },
    {
      "inputs": [
        {
          "internalType": "string",
          "name": "",
          "type": "string"
        }
      ],
      "name": "coordinates",
      "outputs": [
        {
          "internalType": "uint256",
          "name": "",
          "type": "uint256"
        }
      ],
      "stateMutability": "view",
      "type": "function"
    },
    {
      "inputs": [
        {
          "internalType": "address",
          "name": "player1",
          "type": "address"
        },
        {
          "internalType": "address",
          "name": "wagerToken",
          "type": "address"
        },
        {
          "internalType": "uint256",
          "name": "wager",
          "type": "uint256"
        },
        {
          "internalType": "uint256",
          "name": "timeLimit",
          "type": "uint256"
        },
        {
          "internalType": "uint256",
          "name": "numberOfGames",
          "type": "uint256"
        }
      ],
      "name": "createGameWager",
      "outputs": [
        {
          "internalType": "address",
          "name": "wagerAddress",
          "type": "address"
        }
      ],
      "stateMutability": "payable",
      "type": "function"
    },
    {
      "inputs": [
        {
          "internalType": "address",
          "name": "player0",
          "type": "address"
        },
        {
          "internalType": "address",
          "name": "player1",
          "type": "address"
        },
        {
          "internalType": "address",
          "name": "wagerToken",
          "type": "address"
        },
        {
          "internalType": "uint256",
          "name": "wagerAmount",
          "type": "uint256"
        },
        {
          "internalType": "uint256",
          "name": "numberOfGames",
          "type": "uint256"
        },
        {
          "internalType": "uint256",
          "name": "timeLimit",
          "type": "uint256"
        }
      ],
      "name": "createGameWagerTournamentSingle",
      "outputs": [
        {
          "internalType": "address",
          "name": "wagerAddress",
          "type": "address"
        }
      ],
      "stateMutability": "nonpayable",
      "type": "function"
    },
    {
      "inputs": [],
      "name": "deployer",
      "outputs": [
        {
          "internalType": "address",
          "name": "",
          "type": "address"
        }
      ],
      "stateMutability": "view",
      "type": "function"
    },
    {
      "inputs": [
        {
          "internalType": "address",
          "name": "wagerAddress",
          "type": "address"
        },
        {
          "internalType": "uint256",
          "name": "amount",
          "type": "uint256"
        }
      ],
      "name": "depositToWager",
      "outputs": [],
      "stateMutability": "nonpayable",
      "type": "function"
    },
    {
      "inputs": [
        {
          "internalType": "address",
          "name": "",
          "type": "address"
        }
      ],
      "name": "gameWagers",
      "outputs": [
        {
          "internalType": "address",
          "name": "player0",
          "type": "address"
        },
        {
          "internalType": "address",
          "name": "player1",
          "type": "address"
        },
        {
          "internalType": "address",
          "name": "wagerToken",
          "type": "address"
        },
        {
          "internalType": "uint256",
          "name": "wager",
          "type": "uint256"
        },
        {
          "internalType": "uint256",
          "name": "numberOfGames",
          "type": "uint256"
        },
        {
          "internalType": "bool",
          "name": "hasPlayerAccepted",
          "type": "bool"
        },
        {
          "internalType": "uint256",
          "name": "timeLimit",
          "type": "uint256"
        },
        {
          "internalType": "uint256",
          "name": "timeLastMove",
          "type": "uint256"
        },
        {
          "internalType": "uint256",
          "name": "timePlayer0",
          "type": "uint256"
        },
        {
          "internalType": "uint256",
          "name": "timePlayer1",
          "type": "uint256"
        },
        {
          "internalType": "bool",
          "name": "isTournament",
          "type": "bool"
        },
        {
          "internalType": "bool",
          "name": "isComplete",
          "type": "bool"
        },
        {
          "internalType": "bool",
          "name": "hasBeenPaid",
          "type": "bool"
        }
      ],
      "stateMutability": "view",
      "type": "function"
    },
    {
      "inputs": [],
      "name": "gaslessGame",
      "outputs": [
        {
          "internalType": "contract GaslessGame",
          "name": "",
          "type": "address"
        }
      ],
      "stateMutability": "view",
      "type": "function"
    },
    {
      "inputs": [
        {
          "internalType": "address",
          "name": "player",
          "type": "address"
        }
      ],
      "name": "getAllUserGames",
      "outputs": [
        {
          "internalType": "address[]",
          "name": "",
          "type": "address[]"
        }
      ],
      "stateMutability": "view",
      "type": "function"
    },
    {
      "inputs": [],
      "name": "getAllWagerAddresses",
      "outputs": [
        {
          "internalType": "address[]",
          "name": "",
          "type": "address[]"
        }
      ],
      "stateMutability": "view",
      "type": "function"
    },
    {
      "inputs": [],
      "name": "getAllWagersCount",
      "outputs": [
        {
          "internalType": "uint256",
          "name": "",
          "type": "uint256"
        }
      ],
      "stateMutability": "view",
      "type": "function"
    },
    {
      "inputs": [
        {
          "internalType": "uint256",
          "name": "gameState",
          "type": "uint256"
        }
      ],
      "name": "getBoard",
      "outputs": [
        {
          "internalType": "string[64]",
          "name": "",
          "type": "string[64]"
        }
      ],
      "stateMutability": "view",
      "type": "function"
    },
    {
      "inputs": [
        {
          "internalType": "address",
          "name": "wagerAddress",
          "type": "address"
        }
      ],
      "name": "getGameLength",
      "outputs": [
        {
          "internalType": "uint256",
          "name": "",
          "type": "uint256"
        }
      ],
      "stateMutability": "view",
      "type": "function"
    },
    {
      "inputs": [
        {
          "internalType": "address",
          "name": "wagerAddress",
          "type": "address"
        },
        {
          "internalType": "uint256",
          "name": "gameID",
          "type": "uint256"
        }
      ],
      "name": "getGameMoves",
      "outputs": [
        {
          "components": [
            {
              "internalType": "uint16[]",
              "name": "moves",
              "type": "uint16[]"
            }
          ],
          "internalType": "struct ChessWager.Game",
          "name": "",
          "type": "tuple"
        }
      ],
      "stateMutability": "view",
      "type": "function"
    },
    {
      "inputs": [
        {
          "internalType": "address",
          "name": "wagerAddress",
          "type": "address"
        }
      ],
      "name": "getGameStatus",
      "outputs": [
        {
          "internalType": "uint8",
          "name": "",
          "type": "uint8"
        },
        {
          "internalType": "uint256",
          "name": "",
          "type": "uint256"
        },
        {
          "internalType": "uint32",
          "name": "",
          "type": "uint32"
        },
        {
          "internalType": "uint32",
          "name": "",
          "type": "uint32"
        }
      ],
      "stateMutability": "view",
      "type": "function"
    },
    {
      "inputs": [
        {
          "internalType": "address",
          "name": "wagerAddress",
          "type": "address"
        }
      ],
      "name": "getGameWagers",
      "outputs": [
        {
          "components": [
            {
              "internalType": "address",
              "name": "player0",
              "type": "address"
            },
            {
              "internalType": "address",
              "name": "player1",
              "type": "address"
            },
            {
              "internalType": "address",
              "name": "wagerToken",
              "type": "address"
            },
            {
              "internalType": "uint256",
              "name": "wager",
              "type": "uint256"
            },
            {
              "internalType": "uint256",
              "name": "numberOfGames",
              "type": "uint256"
            },
            {
              "internalType": "bool",
              "name": "hasPlayerAccepted",
              "type": "bool"
            },
            {
              "internalType": "uint256",
              "name": "timeLimit",
              "type": "uint256"
            },
            {
              "internalType": "uint256",
              "name": "timeLastMove",
              "type": "uint256"
            },
            {
              "internalType": "uint256",
              "name": "timePlayer0",
              "type": "uint256"
            },
            {
              "internalType": "uint256",
              "name": "timePlayer1",
              "type": "uint256"
            },
            {
              "internalType": "bool",
              "name": "isTournament",
              "type": "bool"
            },
            {
              "internalType": "bool",
              "name": "isComplete",
              "type": "bool"
            },
            {
              "internalType": "bool",
              "name": "hasBeenPaid",
              "type": "bool"
            }
          ],
          "internalType": "struct ChessWager.GameWager",
          "name": "",
          "type": "tuple"
        }
      ],
      "stateMutability": "view",
      "type": "function"
    },
    {
      "inputs": [
        {
          "internalType": "address",
          "name": "wagerAddress",
          "type": "address"
        }
      ],
      "name": "getLatestGameMoves",
      "outputs": [
        {
          "internalType": "uint16[]",
          "name": "",
          "type": "uint16[]"
        }
      ],
      "stateMutability": "view",
      "type": "function"
    },
    {
      "inputs": [
        {
          "internalType": "uint8",
          "name": "piece",
          "type": "uint8"
        }
      ],
      "name": "getLetter",
      "outputs": [
        {
          "internalType": "string",
          "name": "",
          "type": "string"
        }
      ],
      "stateMutability": "view",
      "type": "function"
    },
    {
      "inputs": [
        {
          "internalType": "address",
          "name": "wagerAddress",
          "type": "address"
        }
      ],
      "name": "getPlayerMove",
      "outputs": [
        {
          "internalType": "address",
          "name": "",
          "type": "address"
        }
      ],
      "stateMutability": "view",
      "type": "function"
    },
    {
      "inputs": [
        {
          "internalType": "address",
          "name": "wagerAddress",
          "type": "address"
        }
      ],
      "name": "getWagerPlayers",
      "outputs": [
        {
          "internalType": "address",
          "name": "",
          "type": "address"
        },
        {
          "internalType": "address",
          "name": "",
          "type": "address"
        }
      ],
      "stateMutability": "view",
      "type": "function"
    },
    {
      "inputs": [
        {
          "internalType": "address",
          "name": "wagerAddress",
          "type": "address"
        }
      ],
      "name": "getWagerStatus",
      "outputs": [
        {
          "internalType": "address",
          "name": "",
          "type": "address"
        },
        {
          "internalType": "address",
          "name": "",
          "type": "address"
        },
        {
          "internalType": "uint256",
          "name": "",
          "type": "uint256"
        },
        {
          "internalType": "uint256",
          "name": "",
          "type": "uint256"
        }
      ],
      "stateMutability": "view",
      "type": "function"
    },
    {
      "inputs": [
        {
          "internalType": "uint16",
          "name": "hexMove",
          "type": "uint16"
        }
      ],
      "name": "hexToMove",
      "outputs": [
        {
          "internalType": "string",
          "name": "move",
          "type": "string"
        }
      ],
      "stateMutability": "view",
      "type": "function"
    },
    {
      "inputs": [
        {
          "internalType": "string[64]",
          "name": "coordinate",
          "type": "string[64]"
        },
        {
          "internalType": "uint256[64]",
          "name": "value",
          "type": "uint256[64]"
        }
      ],
      "name": "initCoordinates",
      "outputs": [],
      "stateMutability": "nonpayable",
      "type": "function"
    },
    {
      "inputs": [
        {
          "internalType": "address",
          "name": "wagerAddress",
          "type": "address"
        },
        {
          "internalType": "address",
          "name": "player",
          "type": "address"
        }
      ],
      "name": "isPlayerWhite",
      "outputs": [
        {
          "internalType": "bool",
          "name": "",
          "type": "bool"
        }
      ],
      "stateMutability": "view",
      "type": "function"
    },
    {
      "inputs": [
        {
          "internalType": "address",
          "name": "wagerAddress",
          "type": "address"
        }
      ],
      "name": "mintWinnerNFT",
      "outputs": [],
      "stateMutability": "nonpayable",
      "type": "function"
    },
    {
      "inputs": [
        {
          "internalType": "string",
          "name": "move",
          "type": "string"
        }
      ],
      "name": "moveToHex",
      "outputs": [
        {
          "internalType": "uint16",
          "name": "hexMove",
          "type": "uint16"
        }
      ],
      "stateMutability": "view",
      "type": "function"
    },
    {
      "inputs": [],
      "name": "moveVerification",
      "outputs": [
        {
          "internalType": "contract MoveVerification",
          "name": "",
          "type": "address"
        }
      ],
      "stateMutability": "view",
      "type": "function"
    },
    {
      "inputs": [
        {
          "internalType": "address",
          "name": "wagerAddress",
          "type": "address"
        }
      ],
      "name": "payoutWager",
      "outputs": [
        {
          "internalType": "bool",
          "name": "",
          "type": "bool"
        }
      ],
      "stateMutability": "nonpayable",
      "type": "function"
    },
    {
      "inputs": [
        {
          "internalType": "address",
          "name": "wagerAddress",
          "type": "address"
        },
        {
          "internalType": "uint16",
          "name": "move",
          "type": "uint16"
        }
      ],
      "name": "playMove",
      "outputs": [
        {
          "internalType": "bool",
          "name": "",
          "type": "bool"
        }
      ],
      "stateMutability": "nonpayable",
      "type": "function"
    },
    {
      "inputs": [],
      "name": "protocolFee",
      "outputs": [
        {
          "internalType": "uint256",
          "name": "",
          "type": "uint256"
        }
      ],
      "stateMutability": "view",
      "type": "function"
    },
    {
      "inputs": [
        {
          "internalType": "uint256",
          "name": "",
          "type": "uint256"
        }
      ],
      "name": "squareToCoordinate",
      "outputs": [
        {
          "internalType": "string",
          "name": "",
          "type": "string"
        }
      ],
      "stateMutability": "view",
      "type": "function"
    },
    {
      "inputs": [
        {
          "internalType": "address",
          "name": "wagerAddress",
          "type": "address"
        }
      ],
      "name": "startWagersInTournament",
      "outputs": [],
      "stateMutability": "nonpayable",
      "type": "function"
    },
    {
      "inputs": [
        {
          "internalType": "address",
          "name": "wagerAddress",
          "type": "address"
        }
      ],
      "name": "updateWagerStateInsufficientMaterial",
      "outputs": [
        {
          "internalType": "bool",
          "name": "",
          "type": "bool"
        }
      ],
      "stateMutability": "nonpayable",
      "type": "function"
    },
    {
      "inputs": [
        {
          "internalType": "address",
          "name": "wagerAddress",
          "type": "address"
        }
      ],
      "name": "updateWagerStateTime",
      "outputs": [
        {
          "internalType": "bool",
          "name": "",
          "type": "bool"
        }
      ],
      "stateMutability": "nonpayable",
      "type": "function"
    },
    {
      "inputs": [
        {
          "internalType": "address",
          "name": "",
          "type": "address"
        },
        {
          "internalType": "uint256",
          "name": "",
          "type": "uint256"
        }
      ],
      "name": "userGames",
      "outputs": [
        {
          "internalType": "address",
          "name": "",
          "type": "address"
        }
      ],
      "stateMutability": "view",
      "type": "function"
    },
    {
      "inputs": [
        {
          "internalType": "bytes[]",
          "name": "message",
          "type": "bytes[]"
        },
        {
          "internalType": "bytes[]",
          "name": "signature",
          "type": "bytes[]"
        }
      ],
      "name": "verifyGameUpdateState",
      "outputs": [
        {
          "internalType": "bool",
          "name": "",
          "type": "bool"
        }
      ],
      "stateMutability": "nonpayable",
      "type": "function"
    },
    {
      "inputs": [
        {
          "internalType": "bytes[2]",
          "name": "delegations",
          "type": "bytes[2]"
        },
        {
          "internalType": "bytes[]",
          "name": "messages",
          "type": "bytes[]"
        },
        {
          "internalType": "bytes[]",
          "name": "signatures",
          "type": "bytes[]"
        }
      ],
      "name": "verifyGameUpdateStateDelegated",
      "outputs": [
        {
          "internalType": "bool",
          "name": "",
          "type": "bool"
        }
      ],
      "stateMutability": "nonpayable",
      "type": "function"
    },
    {
      "inputs": [
        {
          "internalType": "address",
          "name": "",
          "type": "address"
        }
      ],
      "name": "wagerPrizes",
      "outputs": [
        {
          "internalType": "uint256",
          "name": "",
          "type": "uint256"
        }
      ],
      "stateMutability": "view",
      "type": "function"
    },
    {
      "inputs": [
        {
          "internalType": "address",
          "name": "",
          "type": "address"
        }
      ],
      "name": "wagerStatus",
      "outputs": [
        {
          "internalType": "bool",
          "name": "isPlayer0White",
          "type": "bool"
        },
        {
          "internalType": "uint256",
          "name": "winsPlayer0",
          "type": "uint256"
        },
        {
          "internalType": "uint256",
          "name": "winsPlayer1",
          "type": "uint256"
        }
      ],
      "stateMutability": "view",
      "type": "function"
    }
  ],
  "bytecode": "0x60806040526101f46005553480156200001757600080fd5b5060405162005d6538038062005d658339810160408190526200003a9162000518565b600480546001600160a01b038087166001600160a01b031992831617909255601080549286169290911691909117905562000074620000b9565b600e80546001600160a01b039384166001600160a01b031991821617909155600f80549290931691811691909117909155600380549091163317905550620006e89050565b6040805180820190915260018152601760f91b602080830191909152600080805290527fad3228b676f7d3cd4284a5443f17f1962b36e491b30a40b2405849e597ba5fb5906200010a90826200061c565b50604080518082019091526001808252600560fc1b6020808401919091526000918252527fada5013122d395ba3c54772283fb069b10426056ef8ca54750cb9bb552a59e7d906200015c90826200061c565b506040805180820190915260018152602160f91b6020808301919091526002600090815290527fabbb5caa7dda850e60932de0934eb1f9d0f59695050f761dc64e443e5030a56990620001b090826200061c565b506040805180820190915260018152602760f91b6020808301919091526003600090815290527f101e368776582e57ab3d116ffe2517c0a585cd5b23174b01e275c2d8329c3d83906200020490826200061c565b506040805180820190915260018152602960f91b6020808301919091526004600090815290527f52d75039926638d3c558b2bdefb945d5be8dae29dedd1c313212a4d472d9fde5906200025890826200061c565b506040805180820190915260018152605160f81b6020808301919091526005600090815290527f2b232c97452f0950c94e2539fdc7e69d21166113cf7a9bcb99b220a3fe5d720a90620002ac90826200061c565b506040805180820190915260018152604b60f81b6020808301919091526006600090815290527f62103cf3131c85df57aad364d21cba02556d3092d6cb54c298c2e7726a7870bd906200030090826200061c565b506040805180820190915260018152600760fc1b6020808301919091526009600090815290527f324fdf7bfe7bd2828491073f0b7868a9a19ee3eff384c2805040be3e426447f5906200035490826200061c565b506040805180820190915260018152603160f91b602080830191909152600a600090815290527f3e9abaca0aad9ede81f4474766c846d8539f70688e1c8f521bbe1597874e3dc490620003a890826200061c565b506040805180820190915260018152603760f91b602080830191909152600b600090815290527f9115655cbcdb654012cf1b2f7e5dbf11c9ef14e152a19d5f8ea75a329092d5a690620003fc90826200061c565b506040805180820190915260018152603960f91b602080830191909152600c600090815290527fd0a75bf7ea87fba36ff8a17b4519c45fb727609e6c9161b106680b25b3e2705f906200045090826200061c565b506040805180820190915260018152607160f81b602080830191909152600d600090815290527f7ca5987043ac53676c6e30f77ff1a34e98a5fae86b27e5d0cf74ac1711b8a8db90620004a490826200061c565b506040805180820190915260018152606b60f81b602080830191909152600e600090815290527fe9bc119772df33ac6a685b572c53e6a4988bbdde79a460a23bed029791109f3990620004f890826200061c565b50565b80516001600160a01b03811681146200051357600080fd5b919050565b600080600080608085870312156200052f57600080fd5b6200053a85620004fb565b93506200054a60208601620004fb565b92506200055a60408601620004fb565b91506200056a60608601620004fb565b905092959194509250565b634e487b7160e01b600052604160045260246000fd5b600181811c90821680620005a057607f821691505b602082108103620005c157634e487b7160e01b600052602260045260246000fd5b50919050565b601f82111562000617576000816000526020600020601f850160051c81016020861015620005f25750805b601f850160051c820191505b818110156200061357828155600101620005fe565b5050505b505050565b81516001600160401b0381111562000638576200063862000575565b62000650816200064984546200058b565b84620005c7565b602080601f8311600181146200068857600084156200066f5750858301515b600019600386901b1c1916600185901b17855562000613565b600085815260208120601f198616915b82811015620006b95788860151825594840194600190910190840162000698565b5085821015620006d85787850151600019600388901b60f8161c191681555b5050505050600190811b01905550565b61566d80620006f86000396000f3fe60806040526004361061031e5760003560e01c80636f984f3d116101a5578063c244c1cc116100ec578063e3e9956c11610095578063f4b8dfbb1161006f578063f4b8dfbb14610bda578063f63045af14610bfa578063fb7275e014610c1a578063fe2cbfa814610ccf57600080fd5b8063e3e9956c14610b04578063e7bbf8c914610b24578063e9f0dac714610b5157600080fd5b8063d5f39488116100c6578063d5f3948814610aa4578063d7fde3f014610ac4578063e113ced914610ae457600080fd5b8063c244c1cc14610a37578063c50cf3ba14610a64578063ce897f8314610a8457600080fd5b8063aab66de51161014e578063b6c6c76211610128578063b6c6c762146109d7578063bc0167cd146109f7578063c0be665214610a1757600080fd5b8063aab66de514610974578063b026e58f14610994578063b0e21e8a146109c157600080fd5b80639c2cc0ca1161017f5780639c2cc0ca146108ff5780639d44548c14610934578063a9a8d7e11461095457600080fd5b80636f984f3d1461081d5780638219d77c1461083d5780638e62569a146108a257600080fd5b80633857eb37116102695780634d943c37116102125780635d408c6e116101ec5780635d408c6e1461079957806365c74222146107b95780636c51f038146107d957600080fd5b80634d943c37146106fc57806354e4437e1461071c57806356e09bc11461076c57600080fd5b80634393f762116102435780634393f7621461067957806345e09e54146106af5780634d7519c2146106dc57600080fd5b80633857eb37146106265780633d1f6de5146106465780633fc9b5c71461065957600080fd5b80631a596a09116102cb5780632d6ae258116102a55780632d6ae2581461049157806335be391f146104b157806335cad3c0146104c657600080fd5b80631a596a09146104315780631d9f45ee146104515780631e0e29cd1461047157600080fd5b80631608a4df116102fc5780631608a4df146103af5780631673b942146103dc57806318071ef31461040f57600080fd5b806302d4defb1461032357806302e3f0bf146103605780631300e97514610390575b600080fd5b34801561032f57600080fd5b50600d54610343906001600160a01b031681565b6040516001600160a01b0390911681526020015b60405180910390f35b34801561036c57600080fd5b5061038061037b3660046146b8565b610d07565b6040519015158152602001610357565b34801561039c57600080fd5b50600c545b604051908152602001610357565b3480156103bb57600080fd5b506103cf6103ca3660046146b8565b6111ed565b60405161035791906146d5565b3480156103e857600080fd5b506103fc6103f7366004614731565b611263565b60405161ffff9091168152602001610357565b34801561041b57600080fd5b5061042f61042a3660046146b8565b611285565b005b34801561043d57600080fd5b50600e54610343906001600160a01b031681565b34801561045d57600080fd5b50600454610343906001600160a01b031681565b34801561047d57600080fd5b5061042f61048c36600461477c565b611319565b34801561049d57600080fd5b5061042f6104ac3660046146b8565b611440565b3480156104bd57600080fd5b506103cf611613565b3480156104d257600080fd5b506106196104e13660046146b8565b604080516101a081018252600080825260208201819052918101829052606081018290526080810182905260a0810182905260c0810182905260e081018290526101008101829052610120810182905261014081018290526101608101829052610180810191909152506001600160a01b0390811660009081526006602081815260409283902083516101a08101855281548616815260018201548616928101929092526002810154909416928101929092526003830154606083015260048301546080830152600583015460ff908116151560a08401529083015460c0830152600783015460e08301526008830154610100808401919091526009840154610120840152600a9093015480821615156101408401529283048116151561016083015262010000909204909116151561018082015290565b60405161035791906147cc565b34801561063257600080fd5b5061042f6106413660046146b8565b611675565b610343610654366004614897565b6116ef565b34801561066557600080fd5b506103806106743660046146b8565b611b6c565b34801561068557600080fd5b506103a16106943660046146b8565b6001600160a01b031660009081526009602052604090205490565b3480156106bb57600080fd5b506106cf6106ca3660046148e8565b611d3e565b6040516103579190614951565b3480156106e857600080fd5b50601054610343906001600160a01b031681565b34801561070857600080fd5b50610380610717366004614b54565b611e89565b34801561072857600080fd5b5061073c6107373660046146b8565b611fb1565b6040805160ff9095168552602085019390935263ffffffff91821692840192909252166060820152608001610357565b34801561077857600080fd5b5061078c6107873660046148e8565b6121b8565b6040516103579190614bb8565b3480156107a557600080fd5b506103806107b4366004614bcb565b612252565b3480156107c557600080fd5b506103806107d4366004614bf9565b6122bd565b3480156107e557600080fd5b506108036107f4366004614cec565b603f600682901c811692911690565b6040805160ff938416815292909116602083015201610357565b34801561082957600080fd5b5061042f6108383660046146b8565b6123ea565b34801561084957600080fd5b506108826108583660046146b8565b6001600160a01b039081166000908152600660205260409020805460019091015490821692911690565b604080516001600160a01b03938416815292909116602083015201610357565b3480156108ae57600080fd5b506108e26108bd3660046146b8565b600a6020526000908152604090208054600182015460029092015460ff909116919083565b604080519315158452602084019290925290820152606001610357565b34801561090b57600080fd5b5061091f61091a3660046146b8565b6125a8565b60408051928352602083019190915201610357565b34801561094057600080fd5b5061038061094f366004614d09565b612688565b34801561096057600080fd5b5061038061096f3660046146b8565b6129ae565b34801561098057600080fd5b50601154610343906001600160a01b031681565b3480156109a057600080fd5b506109b46109af3660046146b8565b612cea565b6040516103579190614d77565b3480156109cd57600080fd5b506103a160055481565b3480156109e357600080fd5b506103436109f23660046146b8565b612d8b565b348015610a0357600080fd5b50610343610a12366004614d8a565b612e81565b348015610a2357600080fd5b5061078c610a32366004614cec565b612eb9565b348015610a4357600080fd5b50610a57610a52366004614d8a565b61303a565b6040516103579190614db6565b348015610a7057600080fd5b5061078c610a7f366004614dd1565b6130ee565b348015610a9057600080fd5b5061042f610a9f366004614d8a565b613196565b348015610ab057600080fd5b50600354610343906001600160a01b031681565b348015610ad057600080fd5b50600f54610343906001600160a01b031681565b348015610af057600080fd5b506103fc610aff366004614dee565b613262565b348015610b1057600080fd5b50610343610b1f366004614e37565b613490565b348015610b3057600080fd5b506103a1610b3f3660046146b8565b60076020526000908152604090205481565b348015610b5d57600080fd5b50610baf610b6c3660046146b8565b6001600160a01b0390811660009081526006602090815260408083208054600191820154600a909452919093209283015460029093015490841694919093169290565b604080516001600160a01b039586168152949093166020850152918301526060820152608001610357565b348015610be657600080fd5b50610343610bf53660046148e8565b613908565b348015610c0657600080fd5b5061042f610c153660046146b8565b613932565b348015610c2657600080fd5b50610cb6610c353660046146b8565b600660208190526000918252604090912080546001820154600283015460038401546004850154600586015496860154600787015460088801546009890154600a909901546001600160a01b039889169a9789169998909616979496939560ff9485169593949293919280821691610100810482169162010000909104168d565b6040516103579d9c9b9a99989796959493929190614e9c565b348015610cdb57600080fd5b506103a1610cea366004614dee565b805160208183018101805160018252928201919093012091525481565b6001600160a01b03818116600090815260066020526040812054909116331480610d4d57506001600160a01b038281166000908152600660205260409020600101541633145b610d9e5760405162461bcd60e51b815260206004820152600a60248201527f6e6f74206c69737465640000000000000000000000000000000000000000000060448201526064015b60405180910390fd5b6001600160a01b0382166000908152600660205260409020600a015460ff610100909104161515600114610e145760405162461bcd60e51b815260206004820152601260248201527f7761676572206e6f742066696e697368656400000000000000000000000000006044820152606401610d95565b6001600160a01b0382166000908152600660205260409020600a015460ff1615610ea65760405162461bcd60e51b815260206004820152603160248201527f746f75726e616d656e74207061796d656e742068616e646c656420627920746f60448201527f75726e616d656e7420636f6e74726163740000000000000000000000000000006064820152608401610d95565b6001600160a01b0382166000908152600660205260409020600a015462010000900460ff1615610f185760405162461bcd60e51b815260206004820152600c60248201527f616c7265616479207061696400000000000000000000000000000000000000006044820152606401610d95565b6001600160a01b0382166000908152600660209081526040808320600a90810180547fffffffffffffffffffffffffffffffffffffffffffffffffffffffffff00ffff1662010000179055909152812060028101546001919091015403610fae576001600160a01b0383166000908152600660205260408120600401805491610fa083614f5f565b909155506000949350505050565b6001600160a01b0383166000908152600a6020526040902060028101546001909101541115610ff857506001600160a01b0380831660009081526006602052604090205416611018565b506001600160a01b03808316600090815260066020526040902060010154165b6001600160a01b038084166000908152600660205260408120600280820154600390920154919093169261104c9190614f97565b6001600160a01b0386166000908152600760208181526040808420805460068452918520600301859055929091529082905560055492935091612710906110938486614fae565b61109d9190614f97565b6110a79190614ff0565b90506000816110b68486614fae565b6110c09190615004565b600e549091506110dd906001600160a01b03878116911684613ae5565b6110f16001600160a01b0386168783613ae5565b600f546040517f74e7c8250000000000000000000000000000000000000000000000000000000081526001600160a01b0388811660048301528a81166024830152909116906374e7c825906044016020604051808303816000875af115801561115e573d6000803e3d6000fd5b505050506040513d601f19601f820116820180604052508101906111829190615017565b50600554604080516001600160a01b038b811682528981166020830152881681830152606081018490526080810192909252517f17ba55c6dfeb1e13fe6a10375284f63094ead0bb4ca2ac7864e62e18a9adc9129181900360a00190a1506001979650505050505050565b6001600160a01b0381166000908152600b602090815260409182902080548351818402810184019094528084526060939283018282801561125757602002820191906000526020600020905b81546001600160a01b03168152600190910190602001808311611239575b50505050509050919050565b6000613fc0600684901b1661127b60ff841682615030565b9150505b92915050565b6003546001600160a01b031633146112df5760405162461bcd60e51b815260206004820152600d60248201527f4f6e6c79206465706c6f796572000000000000000000000000000000000000006044820152606401610d95565b601180547fffffffffffffffffffffffff0000000000000000000000000000000000000000166001600160a01b0392909216919091179055565b6003546001600160a01b031633146113735760405162461bcd60e51b815260206004820152600d60248201527f4f6e6c79206465706c6f796572000000000000000000000000000000000000006044820152606401610d95565b60005b604081121561143b5781816040811061139157611391615052565b602002013560018483604081106113aa576113aa615052565b6020028101906113ba9190615081565b6040516113c89291906150ed565b9081526020016040518091039020819055508281604081106113ec576113ec615052565b6020028101906113fc9190615081565b6002600085856040811061141257611412615052565b602002013581526020019081526020016000209182611432929190615198565b50600101611376565b505050565b6001600160a01b0381166000908152600660205260409020600a015460ff6101009091041615156001146114b65760405162461bcd60e51b815260206004820152601260248201527f7761676572206e6f742066696e697368656400000000000000000000000000006044820152606401610d95565b6001600160a01b0381166000908152600660205260409020600a015462010000900460ff16156115285760405162461bcd60e51b815260206004820152600c60248201527f616c7265616479207061696400000000000000000000000000000000000000006044820152606401610d95565b6001600160a01b0381811660009081526006602090815260408083208054600191820154600a9094529184209081015460029091015491851694929092169281831115611576575083611579565b50825b600f546040517f74e7c8250000000000000000000000000000000000000000000000000000000081526001600160a01b0383811660048301528881166024830152909116906374e7c825906044016020604051808303816000875af11580156115e6573d6000803e3d6000fd5b505050506040513d601f19601f8201168201806040525081019061160a9190615017565b50505050505050565b6060600c80548060200260200160405190810160405280929190818152602001828054801561166b57602002820191906000526020600020905b81546001600160a01b0316815260019091019060200180831161164d575b5050505050905090565b6011546001600160a01b031633146116cf5760405162461bcd60e51b815260206004820152601760248201527f6e6f7420746f75726e616d656e7420636f6e74726163740000000000000000006044820152606401610d95565b6001600160a01b0316600090815260066020526040902042600790910155565b604080516101a081018252338082526001600160a01b03888116602084015287169282018390526060820186905260808201849052600060a0830181905260c0830186905260e08301819052610100830181905261012083018190526101408301819052610160830181905261018083018190529261176f913088613b8e565b61177881613be5565b6001600160a01b0380821660009081526006602052604090205491935016156117e35760405162461bcd60e51b815260206004820152601660248201527f6661696c656420746f20637265617465207761676572000000000000000000006044820152606401610d95565b8060066000846001600160a01b03166001600160a01b0316815260200190815260200160002060008201518160000160006101000a8154816001600160a01b0302191690836001600160a01b0316021790555060208201518160010160006101000a8154816001600160a01b0302191690836001600160a01b0316021790555060408201518160020160006101000a8154816001600160a01b0302191690836001600160a01b03160217905550606082015181600301556080820151816004015560a08201518160050160006101000a81548160ff02191690831515021790555060c0820151816006015560e082015181600701556101008201518160080155610120820151816009015561014082015181600a0160006101000a81548160ff02191690831515021790555061016082015181600a0160016101000a81548160ff02191690831515021790555061018082015181600a0160026101000a81548160ff02191690831515021790555090505060006040518060600160405280600015158152602001600081526020016000815250905080600a6000856001600160a01b03166001600160a01b0316815260200190815260200160002060008201518160000160006101000a81548160ff0219169083151502179055506020820151816001015560408201518160020155905050600b6000336001600160a01b03166001600160a01b03168152602001908152602001600020839080600181540180825580915050600190039060005260206000200160009091909190916101000a8154816001600160a01b0302191690836001600160a01b03160217905550600b6000896001600160a01b03166001600160a01b03168152602001908152602001600020839080600181540180825580915050600190039060005260206000200160009091909190916101000a8154816001600160a01b0302191690836001600160a01b03160217905550600c839080600181540180825580915050600190039060005260206000200160009091909190916101000a8154816001600160a01b0302191690836001600160a01b031602179055507f8b71196164839daf146c1f61cf5c3d0aa0590d17e7d96013d972d1ad72a459728388888888604051611b599594939291906001600160a01b03958616815293909416602084015260408301919091526060820152608081019190915260a00190565b60405180910390a1505095945050505050565b6001600160a01b038116600090815260066020526040812060040154611b9183613d5f565b1115611bdf5760405162461bcd60e51b815260206004820152600b60248201527f776167657220656e6465640000000000000000000000000000000000000000006044820152606401610d95565b6001600160a01b0382166000908152600660205260408120600701549003611c495760405162461bcd60e51b815260206004820181905260248201527f746f75726e616d656e74206d61746368206e6f742073746172746564207965746044820152606401610d95565b600080611c55846125a8565b915091506000821215611cfd576001600160a01b0384166000908152600a60205260408120600201805460019290611c8e908490614fae565b9091555050506001600160a01b039092166000908152600a6020908152604080832080547fffffffffffffffffffffffffffffffffffffffffffffffffffffffffffffff00811660ff909116151790556009825282208054600181810183559184529190922081015592915050565b6000811215611d34576001600160a01b0384166000908152600a602052604081206001908101805491929091611c8e908490614fae565b5060009392505050565b611d466145ba565b611d4e6145ba565b6000805b60078111611e805760006001611d688382615295565b611d739060086152b5565b611d7d9190615301565b90506000611d8c600783615301565b90505b808212611e6b57600480546040517fa4a10e0b00000000000000000000000000000000000000000000000000000000815291820189905260ff841660248301526000916001600160a01b039091169063a4a10e0b90604401602060405180830381865afa158015611e04573d6000803e3d6000fd5b505050506040513d601f19601f82011682018060405250810190611e289190615321565b9050611e33816130ee565b868660408110611e4557611e45615052565b602002015284611e5481614f5f565b955050508180611e639061533e565b925050611d8f565b50508080611e7890614f5f565b915050611d52565b50909392505050565b6010546040517f0e8d4fa90000000000000000000000000000000000000000000000000000000081526000918291829182916001600160a01b0390911690630e8d4fa990611edd90899089906004016153ef565b600060405180830381865afa158015611efa573d6000803e3d6000fd5b505050506040513d6000823e601f3d908101601f19168201604052611f22919081019061541d565b6001600160a01b0383166000908152600960209081526040808320546008835281842081855283529220835195985060ff94909416965091945092611f6a92918501906145e2565b508215611f8857611f7a84613d83565b50600194505050505061127f565b82600003611fa457611f99846129ae565b94505050505061127f565b600094505050505061127f565b6001600160a01b0381166000908152600960209081526040808320546008835281842081855283528184208054835181860281018601909452808452859485948594938593919290919083018282801561205257602002820191906000526020600020906000905b82829054906101000a900461ffff1661ffff16815260200190600201906020826001010492830192600103820291508084116120195790505b505050505090508051600003612111576001600160a01b038716600090815260086020526040812090612086600185615004565b815260200190815260200160002060000180548060200260200160405190810160405280929190818152602001828054801561210957602002820191906000526020600020906000905b82829054906101000a900461ffff1661ffff16815260200190600201906020826001010492830192600103820291508084116120d05790505b505050505090505b600480546040517fc668ddb40000000000000000000000000000000000000000000000000000000081526000928392839283926001600160a01b039092169163c668ddb49161216291899101614d77565b608060405180830381865afa15801561217f573d6000803e3d6000fd5b505050506040513d601f19601f820116820180604052508101906121a391906154fa565b929e919d509b50909950975050505050505050565b600260205260009081526040902080546121d1906150fd565b80601f01602080910402602001604051908101604052809291908181526020018280546121fd906150fd565b801561224a5780601f1061221f5761010080835404028352916020019161224a565b820191906000526020600020905b81548152906001019060200180831161222d57829003601f168201915b505050505081565b6001600160a01b03828116600090815260066020526040812054909180841691160361229a57506001600160a01b0382166000908152600a602052604090205460ff1661127f565b506001600160a01b0382166000908152600a602052604090205460ff161561127f565b6010546040517f788519ad0000000000000000000000000000000000000000000000000000000081526000918291829182916001600160a01b039091169063788519ad90612313908a908a908a9060040161554a565b600060405180830381865afa158015612330573d6000803e3d6000fd5b505050506040513d6000823e601f3d908101601f19168201604052612358919081019061541d565b6001600160a01b0383166000908152600960209081526040808320546008835281842081855283529220835195985060ff949094169650919450926123a092918501906145e2565b5082156123be576123b084613d83565b5060019450505050506123e3565b826000036123da576123cf846129ae565b9450505050506123e3565b60009450505050505b9392505050565b6001600160a01b03811660009081526006602052604090206005015460ff16156124565760405162461bcd60e51b815260206004820152600b60248201527f696e2070726f67726573730000000000000000000000000000000000000000006044820152606401610d95565b6001600160a01b038181166000908152600660205260409020541633146124bf5760405162461bcd60e51b815260206004820152600a60248201527f6e6f74206c6973746564000000000000000000000000000000000000000000006044820152606401610d95565b6001600160a01b0381166000908152600660205260409020600a015460ff161561252b5760405162461bcd60e51b815260206004820152601e60248201527f63616e6e6f742063616e63656c20746f75726e616d656e7420776167657200006044820152606401610d95565b6001600160a01b03808216600090815260066020526040812060028101546003909101805492905590911690612562823383613ae5565b604080516001600160a01b03851681523360208201527fd7ac1994f37f26b02459758a4564d000ddb3e6b64c724bd513845d43b2a991c1910160405180910390a1505050565b6001600160a01b03808216600090815260066020526040812080546008820154600983015460079093015493948594921692909184906125e89042615004565b6001600160a01b03881660009081526006602081905260408220015491925061261089612d8b565b9050600080876001600160a01b0316836001600160a01b031603612655576126388786614fae565b6126429085615301565b915061264e8685615301565b9050612678565b61265f8785615301565b915061266b8686614fae565b6126759085615301565b90505b909a909950975050505050505050565b60003361269484612d8b565b6001600160a01b0316146126ea5760405162461bcd60e51b815260206004820152600d60248201527f4e6f7420796f7572207475726e000000000000000000000000000000000000006044820152606401610d95565b6001600160a01b03831660009081526006602052604090206004015461270f84613d5f565b111561275d5760405162461bcd60e51b815260206004820152600b60248201527f576167657220656e6465640000000000000000000000000000000000000000006044820152606401610d95565b6001600160a01b03831660009081526006602052604081206007015490036127c75760405162461bcd60e51b815260206004820152601a60248201527f546f75726e616d656e74206e6f742073746172746564207965740000000000006044820152606401610d95565b6127d18333614242565b60006127dc84611b6c565b905080156127ee57600191505061127f565b6001600160a01b038416600090815260096020908152604080832054600883528184208185529092528220549091612827826001614fae565b67ffffffffffffffff81111561283f5761283f61499f565b604051908082528060200260200182016040528015612868578160200160208202803683370190505b50905060005b828110156128fc576001600160a01b038816600090815260086020908152604080832087845290915290208054829081106128ab576128ab615052565b90600052602060002090601091828204019190066002029054906101000a900461ffff168282815181106128e1576128e1615052565b61ffff9092166020928302919091019091015260010161286e565b508581838151811061291057612910615052565b61ffff9092166020928302919091018201526001600160a01b038816600090815260088252604080822086835283529020825161294f928401906145e2565b50600061295b88613d83565b604080516001600160a01b038b16815261ffff8a1660208201529192507f9fc19a6b17c82c9f9699088172073341a17ba160046632ca547fbc74ff5543fd910160405180910390a1979650505050505050565b6001600160a01b0381166000908152600660205260408120600401546129d383613d5f565b1115612a215760405162461bcd60e51b815260206004820152600b60248201527f776167657220656e6465640000000000000000000000000000000000000000006044820152606401610d95565b6001600160a01b0382166000908152600960209081526040808320546008835281842081855283528184208054835181860281018601909452808452919493909190830182828015612aba57602002820191906000526020600020906000905b82829054906101000a900461ffff1661ffff1681526020019060020190602082600101049283019260010382029150808411612a815790505b5050600480546040517fc668ddb40000000000000000000000000000000000000000000000000000000081529596506000956001600160a01b03909116945063c668ddb49350612b0d9250869101614d77565b608060405180830381865afa158015612b2a573d6000803e3d6000fd5b505050506040513d601f19601f82011682018060405250810190612b4e91906154fa565b5050600480546040517f40c02d2c000000000000000000000000000000000000000000000000000000008152929450600093506001600160a01b0316916340c02d2c91612ba19186910190815260200190565b602060405180830381865afa158015612bbe573d6000803e3d6000fd5b505050506040513d601f19601f82011682018060405250810190612be291906155df565b90508015612cde576001600160a01b0386166000908152600a602052604081206001908101805491929091612c18908490614fae565b90915550506001600160a01b0386166000908152600a60205260408120600201805460019290612c49908490614fae565b90915550506001600160a01b0386166000818152600a6020908152604080832080547fffffffffffffffffffffffffffffffffffffffffffffffffffffffffffffff00811660ff9091161517905560098252808320805460018181018355918552838520810155938352600690915281206004018054909190612ccd908490614fae565b909155506001979650505050505050565b50600095945050505050565b6001600160a01b03811660009081526008602090815260408083206009835281842054845282529182902080548351818402810184019094528084526060939283018282801561125757602002820191906000526020600020906000905b82829054906101000a900461ffff1661ffff1681526020019060020190602082600101049283019260010382029150808411612d48575094979650505050505050565b6001600160a01b03811660008181526009602090815260408083205460088352818420818552835281842054948452600a9092528220549192909160ff168015612e2857612dda600283615601565b600103612e0657505050506001600160a01b039081166000908152600660205260409020600101541690565b505050506001600160a01b039081166000908152600660205260409020541690565b612e33600283615601565b600103612e5c57505050506001600160a01b039081166000908152600660205260409020541690565b505050506001600160a01b039081166000908152600660205260409020600101541690565b600b6020528160005260406000208181548110612e9d57600080fd5b6000918252602090912001546001600160a01b03169150829050565b600681901c60ff8116600090815260026020526040812080546060936103ff1692603f8616929091612eea906150fd565b80601f0160208091040260200160405190810160405280929190818152602001828054612f16906150fd565b8015612f635780601f10612f3857610100808354040283529160200191612f63565b820191906000526020600020905b815481529060010190602001808311612f4657829003601f168201915b505050505090506000600260008460ff1681526020019081526020016000208054612f8d906150fd565b80601f0160208091040260200160405190810160405280929190818152602001828054612fb9906150fd565b80156130065780601f10612fdb57610100808354040283529160200191613006565b820191906000526020600020905b815481529060010190602001808311612fe957829003601f168201915b505050505090508181604051602001613020929190615615565b604051602081830303815290604052945050505050919050565b6040805160208082018352606082526001600160a01b0385166000908152600882528381208582528252839020835181548084028201860186529281018381529394909391928492918491908401828280156130dd57602002820191906000526020600020906000905b82829054906101000a900461ffff1661ffff16815260200190600201906020826001010492830192600103820291508084116130a45790505b505050505081525050905092915050565b60ff8116600090815260208190526040812080546060929190613110906150fd565b80601f016020809104026020016040519081016040528092919081815260200182805461313c906150fd565b80156131895780601f1061315e57610100808354040283529160200191613189565b820191906000526020600020905b81548152906001019060200180831161316c57829003601f168201915b5093979650505050505050565b6001600160a01b0382166000908152600660205260409020600a0154610100900460ff16156132075760405162461bcd60e51b815260206004820152600f60248201527f776167657220636f6d706c6574656400000000000000000000000000000000006044820152606401610d95565b6001600160a01b038083166000908152600660205260409020600201546132319116333084613b8e565b6001600160a01b03821660009081526007602052604081208054839290613259908490614fae565b90915550505050565b60408051808201825260028082527f303000000000000000000000000000000000000000000000000000000000000060208084018290528451808601909552918452908301528251600092849291839085906132c0576132c0615052565b602001015160f81c60f81b826000815181106132de576132de615052565b60200101907effffffffffffffffffffffffffffffffffffffffffffffffffffffffffffff1916908160001a9053508260018151811061332057613320615052565b602001015160f81c60f81b8260018151811061333e5761333e615052565b60200101907effffffffffffffffffffffffffffffffffffffffffffffffffffffffffffff1916908160001a9053508260028151811061338057613380615052565b602001015160f81c60f81b8160008151811061339e5761339e615052565b60200101907effffffffffffffffffffffffffffffffffffffffffffffffffffffffffffff1916908160001a905350826003815181106133e0576133e0615052565b602001015160f81c60f81b816001815181106133fe576133fe615052565b60200101907effffffffffffffffffffffffffffffffffffffffffffffffffffffffffffff1916908160001a90535060405182908290600090600190613445908590615644565b908152602001604051809103902054905060006001836040516134689190615644565b90815260200160405180910390205490506134838282611263565b9998505050505050505050565b6011546000906001600160a01b031633146134ed5760405162461bcd60e51b815260206004820152601760248201527f6e6f7420746f75726e616d656e7420636f6e74726163740000000000000000006044820152606401610d95565b6000604051806101a00160405280896001600160a01b03168152602001886001600160a01b03168152602001876001600160a01b0316815260200186815260200185815260200160011515815260200184815260200160008152602001600081526020016000815260200160011515815260200160001515815260200160001515815250905061357c81613be5565b91508060066000846001600160a01b03166001600160a01b0316815260200190815260200160002060008201518160000160006101000a8154816001600160a01b0302191690836001600160a01b0316021790555060208201518160010160006101000a8154816001600160a01b0302191690836001600160a01b0316021790555060408201518160020160006101000a8154816001600160a01b0302191690836001600160a01b03160217905550606082015181600301556080820151816004015560a08201518160050160006101000a81548160ff02191690831515021790555060c0820151816006015560e082015181600701556101008201518160080155610120820151816009015561014082015181600a0160006101000a81548160ff02191690831515021790555061016082015181600a0160016101000a81548160ff02191690831515021790555061018082015181600a0160026101000a81548160ff02191690831515021790555090505060006040518060600160405280600015158152602001600081526020016000815250905080600a6000856001600160a01b03166001600160a01b0316815260200190815260200160002060008201518160000160006101000a81548160ff0219169083151502179055506020820151816001015560408201518160020155905050600b60008a6001600160a01b03166001600160a01b03168152602001908152602001600020839080600181540180825580915050600190039060005260206000200160009091909190916101000a8154816001600160a01b0302191690836001600160a01b03160217905550600b6000896001600160a01b03166001600160a01b03168152602001908152602001600020839080600181540180825580915050600190039060005260206000200160009091909190916101000a8154816001600160a01b0302191690836001600160a01b03160217905550600c839080600181540180825580915050600190039060005260206000200160009091909190916101000a8154816001600160a01b0302191690836001600160a01b031602179055507f8b71196164839daf146c1f61cf5c3d0aa0590d17e7d96013d972d1ad72a4597283888887896040516138f49594939291906001600160a01b03958616815293909416602084015260408301919091526060820152608081019190915260a00190565b60405180910390a150509695505050505050565b600c818154811061391857600080fd5b6000918252602090912001546001600160a01b0316905081565b6001600160a01b0380821660009081526006602052604090206001015416806139c8576001600160a01b038216600081815260066020908152604080832060019081018054337fffffffffffffffffffffffff00000000000000000000000000000000000000009182168117909255908552600b8452918420805491820181558452919092200180549091169091179055613a34565b6001600160a01b03828116600090815260066020526040902060010154163314613a345760405162461bcd60e51b815260206004820152601560248201527f6d73672e73656e64657220213d20706c617965723100000000000000000000006044820152606401610d95565b6001600160a01b038083166000908152600660205260409020600281015460038201546005830180547fffffffffffffffffffffffffffffffffffffffffffffffffffffffffffffff001660011790554260079093019290925590911690613a9e82333084613b8e565b604080516001600160a01b03861681523360208201527fc13e0ce4ce512479ea6017f275044e0b28a96539df1d5a8ccad20c8f4ba117e9910160405180910390a150505050565b6040516001600160a01b03831660248201526044810182905261143b9084907fa9059cbb00000000000000000000000000000000000000000000000000000000906064015b60408051601f198184030181529190526020810180517bffffffffffffffffffffffffffffffffffffffffffffffffffffffff167fffffffff000000000000000000000000000000000000000000000000000000009093169290921790915261432b565b6040516001600160a01b0380851660248301528316604482015260648101829052613bdf9085907f23b872dd0000000000000000000000000000000000000000000000000000000090608401613b2a565b50505050565b600081602001516001600160a01b031682600001516001600160a01b031603613c505760405162461bcd60e51b815260206004820152601960248201527f706c6179657273206d75737420626520646966666572656e74000000000000006044820152606401610d95565b60028260800151613c619190615601565b600114613cb05760405162461bcd60e51b815260206004820152601b60248201527f6e756d626572206f662067616d6573206d757374206265206f646400000000006044820152606401610d95565b50805160208083015160408085015160608087015160c0880151608090980151845197831b7fffffffffffffffffffffffffffffffffffffffff0000000000000000000000009081168989015295831b8616603489015292821b9094166048870152605c860193909352607c850195909552609c8401949094524360bc84018190524660dc8501524060fc808501919091528451808503909101815261011c9093019093528151910120901c90565b6001600160a01b03811660009081526009602052604081205461127f906001614fae565b6001600160a01b038116600090815260066020526040812060040154613da883613d5f565b1115613df65760405162461bcd60e51b815260206004820152600b60248201527f776167657220656e6465640000000000000000000000000000000000000000006044820152606401610d95565b6001600160a01b0382166000908152600960209081526040808320546008835281842081855283528184208054835181860281018601909452808452919493909190830182828015613e8f57602002820191906000526020600020906000905b82829054906101000a900461ffff1661ffff1681526020019060020190602082600101049283019260010382029150808411613e565790505b5050600480546040517fc668ddb40000000000000000000000000000000000000000000000000000000081529596506000956001600160a01b03909116945063c668ddb49350613ee29250869101614d77565b608060405180830381865afa158015613eff573d6000803e3d6000fd5b505050506040513d601f19601f82011682018060405250810190613f2391906154fa565b50505090508060ff16600003613f3e57506000949350505050565b8060ff1660010361403c576001600160a01b0385166000908152600a602052604081206001908101805491929091613f77908490614fae565b90915550506001600160a01b0385166000908152600a60205260408120600201805460019290613fa8908490614fae565b90915550506001600160a01b0385166000818152600a6020908152604080832080547fffffffffffffffffffffffffffffffffffffffffffffffffffffffffffffff00811660ff909116151790556009825280832080546001818101835591855283852081015593835260069091528120600401805490919061402c908490614fae565b9091555060019695505050505050565b8060ff166002036141a7576001600160a01b0380861660009081526006602052604090205461406d91879116612252565b156140ab576001600160a01b0385166000908152600a6020526040812060019081018054919290916140a0908490614fae565b909155506140dd9050565b6001600160a01b0385166000908152600a602052604081206002018054600192906140d7908490614fae565b90915550505b6001600160a01b0385166000818152600a6020908152604080832080547fffffffffffffffffffffffffffffffffffffffffffffffffffffffffffffff00811660ff90911615179055600980835281842080546001810182558186528486208101559484526006835292206004015491905290540361419c576001600160a01b0385166000908152600660205260409020600a0180547fffffffffffffffffffffffffffffffffffffffffffffffffffffffffffff00ff166101001790555b506001949350505050565b8060ff16600303614237576001600160a01b038086166000908152600660205260409020546141d891879116612252565b15614209576001600160a01b0385166000908152600a602052604081206002018054600192906140a0908490614fae565b6001600160a01b0385166000908152600a6020526040812060019081018054919290916140d7908490614fae565b506000949350505050565b6001600160a01b03828116600090815260066020526040812080546007909101548484169190931614919042906142798383615004565b905083156142d4576001600160a01b038616600090815260066020526040812060080180548392906142ac908490614fae565b90915550506001600160a01b0386166000908152600660205260409020600701829055614323565b6001600160a01b038616600090815260066020526040812060090180548392906142ff908490614fae565b90915550506001600160a01b03861660009081526006602052604090206007018290555b505050505050565b6000614380826040518060400160405280602081526020017f5361666545524332303a206c6f772d6c6576656c2063616c6c206661696c6564815250856001600160a01b03166144139092919063ffffffff16565b90508051600014806143a15750808060200190518101906143a191906155df565b61143b5760405162461bcd60e51b815260206004820152602a60248201527f5361666545524332303a204552433230206f7065726174696f6e20646964206e60448201527f6f742073756363656564000000000000000000000000000000000000000000006064820152608401610d95565b6060614422848460008561442a565b949350505050565b6060824710156144a25760405162461bcd60e51b815260206004820152602660248201527f416464726573733a20696e73756666696369656e742062616c616e636520666f60448201527f722063616c6c00000000000000000000000000000000000000000000000000006064820152608401610d95565b600080866001600160a01b031685876040516144be9190615644565b60006040518083038185875af1925050503d80600081146144fb576040519150601f19603f3d011682016040523d82523d6000602084013e614500565b606091505b50915091506145118783838761451c565b979650505050505050565b6060831561458b578251600003614584576001600160a01b0385163b6145845760405162461bcd60e51b815260206004820152601d60248201527f416464726573733a2063616c6c20746f206e6f6e2d636f6e74726163740000006044820152606401610d95565b5081614422565b61442283838151156145a05781518083602001fd5b8060405162461bcd60e51b8152600401610d959190614bb8565b6040518061080001604052806040905b60608152602001906001900390816145ca5790505090565b82805482825590600052602060002090600f0160109004810192821561467b5791602002820160005b8382111561464b57835183826101000a81548161ffff021916908361ffff160217905550926020019260020160208160010104928301926001030261460b565b80156146795782816101000a81549061ffff021916905560020160208160010104928301926001030261464b565b505b5061468792915061468b565b5090565b5b80821115614687576000815560010161468c565b6001600160a01b03811681146146b557600080fd5b50565b6000602082840312156146ca57600080fd5b81356123e3816146a0565b6020808252825182820181905260009190848201906040850190845b818110156147165783516001600160a01b0316835292840192918401916001016146f1565b50909695505050505050565b60ff811681146146b557600080fd5b6000806040838503121561474457600080fd5b823561474f81614722565b9150602083013561475f81614722565b809150509250929050565b80610800810183101561127f57600080fd5b600080610820838503121561479057600080fd5b823567ffffffffffffffff8111156147a757600080fd5b6147b38582860161476a565b9250506147c3846020850161476a565b90509250929050565b81516001600160a01b031681526101a0810160208301516147f860208401826001600160a01b03169052565b50604083015161481360408401826001600160a01b03169052565b50606083015160608301526080830151608083015260a083015161483b60a084018215159052565b5060c0838101519083015260e0808401519083015261010080840151908301526101208084015190830152610140808401511515908301526101608084015115159083015261018080840151801515828501525b505092915050565b600080600080600060a086880312156148af57600080fd5b85356148ba816146a0565b945060208601356148ca816146a0565b94979496505050506040830135926060810135926080909101359150565b6000602082840312156148fa57600080fd5b5035919050565b60005b8381101561491c578181015183820152602001614904565b50506000910152565b6000815180845261493d816020860160208601614901565b601f01601f19169290920160200192915050565b6020808252600090610820830183820185845b604081101561499357601f19878503018352614981848351614925565b93509184019190840190600101614964565b50919695505050505050565b7f4e487b7100000000000000000000000000000000000000000000000000000000600052604160045260246000fd5b6040805190810167ffffffffffffffff811182821017156149f1576149f161499f565b60405290565b604051601f8201601f1916810167ffffffffffffffff81118282101715614a2057614a2061499f565b604052919050565b600067ffffffffffffffff821115614a4257614a4261499f565b5060051b60200190565b600067ffffffffffffffff831115614a6657614a6661499f565b614a796020601f19601f860116016149f7565b9050828152838383011115614a8d57600080fd5b828260208301376000602084830101529392505050565b600082601f830112614ab557600080fd5b6123e383833560208501614a4c565b600082601f830112614ad557600080fd5b81356020614aea614ae583614a28565b6149f7565b82815260059290921b84018101918181019086841115614b0957600080fd5b8286015b84811015614b4957803567ffffffffffffffff811115614b2d5760008081fd5b614b3b8986838b0101614aa4565b845250918301918301614b0d565b509695505050505050565b60008060408385031215614b6757600080fd5b823567ffffffffffffffff80821115614b7f57600080fd5b614b8b86838701614ac4565b93506020850135915080821115614ba157600080fd5b50614bae85828601614ac4565b9150509250929050565b6020815260006123e36020830184614925565b60008060408385031215614bde57600080fd5b8235614be9816146a0565b9150602083013561475f816146a0565b600080600060608486031215614c0e57600080fd5b833567ffffffffffffffff80821115614c2657600080fd5b818601915086601f830112614c3a57600080fd5b614c426149ce565b806040840189811115614c5457600080fd5b845b81811015614c8957803585811115614c6e5760008081fd5b614c7a8c828901614aa4565b85525060209384019301614c56565b5090965050506020860135915080821115614ca357600080fd5b614caf87838801614ac4565b93506040860135915080821115614cc557600080fd5b50614cd286828701614ac4565b9150509250925092565b61ffff811681146146b557600080fd5b600060208284031215614cfe57600080fd5b81356123e381614cdc565b60008060408385031215614d1c57600080fd5b8235614d27816146a0565b9150602083013561475f81614cdc565b60008151808452602080850194506020840160005b83811015614d6c57815161ffff1687529582019590820190600101614d4c565b509495945050505050565b6020815260006123e36020830184614d37565b60008060408385031215614d9d57600080fd5b8235614da8816146a0565b946020939093013593505050565b60208152600082516020808401526144226040840182614d37565b600060208284031215614de357600080fd5b81356123e381614722565b600060208284031215614e0057600080fd5b813567ffffffffffffffff811115614e1757600080fd5b8201601f81018413614e2857600080fd5b61442284823560208401614a4c565b60008060008060008060c08789031215614e5057600080fd5b8635614e5b816146a0565b95506020870135614e6b816146a0565b94506040870135614e7b816146a0565b959894975094956060810135955060808101359460a0909101359350915050565b60006101a0820190506001600160a01b038f1682526001600160a01b038e1660208301526001600160a01b038d1660408301528b60608301528a608083015289151560a08301528860c08301528760e08301528661010083015285610120830152841515610140830152614f1561016083018515159052565b8215156101808301529e9d5050505050505050505050505050565b7f4e487b7100000000000000000000000000000000000000000000000000000000600052601160045260246000fd5b60007fffffffffffffffffffffffffffffffffffffffffffffffffffffffffffffffff8203614f9057614f90614f30565b5060010190565b808202811582820484141761127f5761127f614f30565b8082018082111561127f5761127f614f30565b7f4e487b7100000000000000000000000000000000000000000000000000000000600052601260045260246000fd5b600082614fff57614fff614fc1565b500490565b8181038181111561127f5761127f614f30565b60006020828403121561502957600080fd5b5051919050565b61ffff81811683821601908082111561504b5761504b614f30565b5092915050565b7f4e487b7100000000000000000000000000000000000000000000000000000000600052603260045260246000fd5b60008083357fffffffffffffffffffffffffffffffffffffffffffffffffffffffffffffffe18436030181126150b657600080fd5b83018035915067ffffffffffffffff8211156150d157600080fd5b6020019150368190038213156150e657600080fd5b9250929050565b8183823760009101908152919050565b600181811c9082168061511157607f821691505b60208210810361514a577f4e487b7100000000000000000000000000000000000000000000000000000000600052602260045260246000fd5b50919050565b601f82111561143b576000816000526020600020601f850160051c810160208610156151795750805b601f850160051c820191505b8181101561432357828155600101615185565b67ffffffffffffffff8311156151b0576151b061499f565b6151c4836151be83546150fd565b83615150565b6000601f84116001811461521657600085156151e05750838201355b7fffffffffffffffffffffffffffffffffffffffffffffffffffffffffffffffff600387901b1c1916600186901b17835561528e565b600083815260209020601f19861690835b828110156152475786850135825560209485019460019092019101615227565b5086821015615282577fffffffffffffffffffffffffffffffffffffffffffffffffffffffffffffffff60f88860031b161c19848701351681555b505060018560011b0183555b5050505050565b808201828112600083128015821682158216171561488f5761488f614f30565b808202600082127f8000000000000000000000000000000000000000000000000000000000000000841416156152ed576152ed614f30565b818105831482151761127f5761127f614f30565b818103600083128015838313168383128216171561504b5761504b614f30565b60006020828403121561533357600080fd5b81516123e381614722565b60007f8000000000000000000000000000000000000000000000000000000000000000820361536f5761536f614f30565b507fffffffffffffffffffffffffffffffffffffffffffffffffffffffffffffffff0190565b60008282518085526020808601955060208260051b8401016020860160005b848110156153e257601f198684030189526153d0838351614925565b988401989250908301906001016153b4565b5090979650505050505050565b6040815260006154026040830185615395565b82810360208401526154148185615395565b95945050505050565b60008060006060848603121561543257600080fd5b835161543d816146a0565b8093505060208085015161545081614722565b604086015190935067ffffffffffffffff81111561546d57600080fd5b8501601f8101871361547e57600080fd5b805161548c614ae582614a28565b81815260059190911b820183019083810190898311156154ab57600080fd5b928401925b828410156154d25783516154c381614cdc565b825292840192908401906154b0565b80955050505050509250925092565b805163ffffffff811681146154f557600080fd5b919050565b6000806000806080858703121561551057600080fd5b845161551b81614722565b60208601519094509250615531604086016154e1565b915061553f606086016154e1565b905092959194509250565b606080825260009060a0830190830186835b60028110156155ac577fffffffffffffffffffffffffffffffffffffffffffffffffffffffffffffffa0868503018352615597848351614925565b9350602092830192919091019060010161555c565b50505082810360208401526155c18186615395565b905082810360408401526155d58185615395565b9695505050505050565b6000602082840312156155f157600080fd5b815180151581146123e357600080fd5b60008261561057615610614fc1565b500690565b60008351615627818460208801614901565b83519083019061563b818360208801614901565b01949350505050565b60008251615656818460208701614901565b919091019291505056fea164736f6c6343000817000a",
  "linkReferences": {},
  "deployedLinkReferences": {}
}