{
  "_format": "hh-sol-artifact-1",
  "contractName": "CrowdSale",
  "sourceName": "contracts/token/ERC20/CrowdSale.sol",
  "abi": [
    {
      "inputs": [
        {
          "internalType": "address",
          "name": "_chessFishToken",
          "type": "address"
        },
        {
          "internalType": "address",
          "name": "_USDC",
          "type": "address"
        },
        {
          "internalType": "uint256",
          "name": "_value",
          "type": "uint256"
        }
      ],
      "stateMutability": "nonpayable",
      "type": "constructor"
    },
    {
      "anonymous": false,
      "inputs": [
        {
          "indexed": true,
          "internalType": "address",
          "name": "buyer",
          "type": "address"
        },
        {
          "indexed": false,
          "internalType": "uint256",
          "name": "amountIn",
          "type": "uint256"
        },
        {
          "indexed": false,
          "internalType": "uint256",
          "name": "amountOut",
          "type": "uint256"
        }
      ],
      "name": "TokensPurchased",
      "type": "event"
    },
    {
      "inputs": [],
      "name": "ChessFishToken",
      "outputs": [
        {
          "internalType": "address",
          "name": "",
          "type": "address"
        }
      ],
      "stateMutability": "view",
      "type": "function"
    },
    {
      "inputs": [],
      "name": "USDC",
      "outputs": [
        {
          "internalType": "address",
          "name": "",
          "type": "address"
        }
      ],
      "stateMutability": "view",
      "type": "function"
    },
    {
      "inputs": [],
      "name": "deployer",
      "outputs": [
        {
          "internalType": "address",
          "name": "",
          "type": "address"
        }
      ],
      "stateMutability": "view",
      "type": "function"
    },
    {
      "inputs": [
        {
          "internalType": "uint256",
          "name": "amount",
          "type": "uint256"
        }
      ],
      "name": "deposit",
      "outputs": [],
      "stateMutability": "nonpayable",
      "type": "function"
    },
    {
      "inputs": [],
      "name": "endCrowdSale",
      "outputs": [],
      "stateMutability": "nonpayable",
      "type": "function"
    },
    {
      "inputs": [
        {
          "internalType": "uint256",
          "name": "amountIn",
          "type": "uint256"
        }
      ],
      "name": "getChessFishTokens",
      "outputs": [],
      "stateMutability": "nonpayable",
      "type": "function"
    },
    {
      "inputs": [],
      "name": "value",
      "outputs": [
        {
          "internalType": "uint256",
          "name": "",
          "type": "uint256"
        }
      ],
      "stateMutability": "view",
      "type": "function"
    },
    {
      "inputs": [],
      "name": "withdraw",
      "outputs": [],
      "stateMutability": "nonpayable",
      "type": "function"
    },
    {
      "inputs": [
        {
          "internalType": "address",
          "name": "token",
          "type": "address"
        }
      ],
      "name": "withdrawERC20",
      "outputs": [],
      "stateMutability": "nonpayable",
      "type": "function"
    }
  ],
  "bytecode": "0x608060405234801561001057600080fd5b50604051610f77380380610f7783398101604081905261002f9161008e565b600080546001600160a01b03199081163317909155600180546001600160a01b0395861690831617905560028054939094169216919091179091556003556100ca565b80516001600160a01b038116811461008957600080fd5b919050565b6000806000606084860312156100a357600080fd5b6100ac84610072565b92506100ba60208501610072565b9150604084015190509250925092565b610e9e806100d96000396000f3fe608060405234801561001057600080fd5b50600436106100a35760003560e01c8063b6b55f2511610076578063d5f394881161005b578063d5f3948814610159578063ee98aee614610179578063f4f3b2001461018157600080fd5b8063b6b55f2514610133578063c63c1d431461014657600080fd5b806302d4defb146100a85780633ccfd60b146100f25780633fa4f245146100fc57806389a3027114610113575b600080fd5b6001546100c89073ffffffffffffffffffffffffffffffffffffffff1681565b60405173ffffffffffffffffffffffffffffffffffffffff90911681526020015b60405180910390f35b6100fa610194565b005b61010560035481565b6040519081526020016100e9565b6002546100c89073ffffffffffffffffffffffffffffffffffffffff1681565b6100fa610141366004610cf0565b610266565b6100fa610154366004610cf0565b61028e565b6000546100c89073ffffffffffffffffffffffffffffffffffffffff1681565b6100fa6104af565b6100fa61018f366004610d09565b6106f2565b60005473ffffffffffffffffffffffffffffffffffffffff16331461021a576040517f08c379a000000000000000000000000000000000000000000000000000000000815260206004820152600c60248201527f6e6f74206465706c6f796572000000000000000000000000000000000000000060448201526064015b60405180910390fd5b60008054604051479273ffffffffffffffffffffffffffffffffffffffff9092169183156108fc02918491818181858888f19350505050158015610262573d6000803e3d6000fd5b5050565b60015461028b9073ffffffffffffffffffffffffffffffffffffffff163330846108a3565b50565b600081116102f8576040517f08c379a000000000000000000000000000000000000000000000000000000000815260206004820152600d60248201527f63616e2774206265207a65726f000000000000000000000000000000000000006044820152606401610211565b60025461031d9073ffffffffffffffffffffffffffffffffffffffff163330846108a3565b6000670de0b6b3a76400006003548364e8d4a5100061033c9190610d46565b6103469190610d46565b6103509190610d8a565b6001546040517f70a0823100000000000000000000000000000000000000000000000000000000815230600482015291925073ffffffffffffffffffffffffffffffffffffffff16906370a0823190602401602060405180830381865afa1580156103bf573d6000803e3d6000fd5b505050506040513d601f19601f820116820180604052508101906103e39190610dc5565b81111561044c576040517f08c379a000000000000000000000000000000000000000000000000000000000815260206004820152601260248201527f6e6f7420656e6f7567682062616c616e636500000000000000000000000000006044820152606401610211565b6001546104709073ffffffffffffffffffffffffffffffffffffffff16338361097f565b604080518381526020810183905233917f8fafebcaf9d154343dad25669bfa277f4fbacd7ac6b0c4fed522580e040a0f33910160405180910390a25050565b60005473ffffffffffffffffffffffffffffffffffffffff163314610530576040517f08c379a000000000000000000000000000000000000000000000000000000000815260206004820152600c60248201527f6e6f74206465706c6f79657200000000000000000000000000000000000000006044820152606401610211565b6001546040517f70a0823100000000000000000000000000000000000000000000000000000000815230600482015260009173ffffffffffffffffffffffffffffffffffffffff16906370a0823190602401602060405180830381865afa15801561059f573d6000803e3d6000fd5b505050506040513d601f19601f820116820180604052508101906105c39190610dc5565b6001549091506105ea9073ffffffffffffffffffffffffffffffffffffffff16338361097f565b6002546040517f70a0823100000000000000000000000000000000000000000000000000000000815230600482015260009173ffffffffffffffffffffffffffffffffffffffff16906370a0823190602401602060405180830381865afa158015610659573d6000803e3d6000fd5b505050506040513d601f19601f8201168201806040525081019061067d9190610dc5565b6002549091506106a49073ffffffffffffffffffffffffffffffffffffffff16338361097f565b60008054604051479273ffffffffffffffffffffffffffffffffffffffff9092169183156108fc02918491818181858888f193505050501580156106ec573d6000803e3d6000fd5b50505050565b60005473ffffffffffffffffffffffffffffffffffffffff163314610773576040517f08c379a000000000000000000000000000000000000000000000000000000000815260206004820152600c60248201527f6e6f74206465706c6f79657200000000000000000000000000000000000000006044820152606401610211565b6040517f70a0823100000000000000000000000000000000000000000000000000000000815230600482015260009073ffffffffffffffffffffffffffffffffffffffff8316906370a0823190602401602060405180830381865afa1580156107e0573d6000803e3d6000fd5b505050506040513d601f19601f820116820180604052508101906108049190610dc5565b6040517fa9059cbb0000000000000000000000000000000000000000000000000000000081523360048201526024810182905290915073ffffffffffffffffffffffffffffffffffffffff83169063a9059cbb906044016020604051808303816000875af115801561087a573d6000803e3d6000fd5b505050506040513d601f19601f8201168201806040525081019061089e9190610dde565b505050565b60405173ffffffffffffffffffffffffffffffffffffffff808516602483015283166044820152606481018290526106ec9085907f23b872dd00000000000000000000000000000000000000000000000000000000906084015b604080517fffffffffffffffffffffffffffffffffffffffffffffffffffffffffffffffe08184030181529190526020810180517bffffffffffffffffffffffffffffffffffffffffffffffffffffffff167fffffffff00000000000000000000000000000000000000000000000000000000909316929092179091526109d5565b60405173ffffffffffffffffffffffffffffffffffffffff831660248201526044810182905261089e9084907fa9059cbb00000000000000000000000000000000000000000000000000000000906064016108fd565b6000610a37826040518060400160405280602081526020017f5361666545524332303a206c6f772d6c6576656c2063616c6c206661696c65648152508573ffffffffffffffffffffffffffffffffffffffff16610ae19092919063ffffffff16565b80519091501561089e5780806020019051810190610a559190610dde565b61089e576040517f08c379a000000000000000000000000000000000000000000000000000000000815260206004820152602a60248201527f5361666545524332303a204552433230206f7065726174696f6e20646964206e60448201527f6f742073756363656564000000000000000000000000000000000000000000006064820152608401610211565b6060610af08484600085610af8565b949350505050565b606082471015610b8a576040517f08c379a000000000000000000000000000000000000000000000000000000000815260206004820152602660248201527f416464726573733a20696e73756666696369656e742062616c616e636520666f60448201527f722063616c6c00000000000000000000000000000000000000000000000000006064820152608401610211565b6000808673ffffffffffffffffffffffffffffffffffffffff168587604051610bb39190610e24565b60006040518083038185875af1925050503d8060008114610bf0576040519150601f19603f3d011682016040523d82523d6000602084013e610bf5565b606091505b5091509150610c0687838387610c11565b979650505050505050565b60608315610ca7578251600003610ca05773ffffffffffffffffffffffffffffffffffffffff85163b610ca0576040517f08c379a000000000000000000000000000000000000000000000000000000000815260206004820152601d60248201527f416464726573733a2063616c6c20746f206e6f6e2d636f6e74726163740000006044820152606401610211565b5081610af0565b610af08383815115610cbc5781518083602001fd5b806040517f08c379a00000000000000000000000000000000000000000000000000000000081526004016102119190610e40565b600060208284031215610d0257600080fd5b5035919050565b600060208284031215610d1b57600080fd5b813573ffffffffffffffffffffffffffffffffffffffff81168114610d3f57600080fd5b9392505050565b8082028115828204841417610d84577f4e487b7100000000000000000000000000000000000000000000000000000000600052601160045260246000fd5b92915050565b600082610dc0577f4e487b7100000000000000000000000000000000000000000000000000000000600052601260045260246000fd5b500490565b600060208284031215610dd757600080fd5b5051919050565b600060208284031215610df057600080fd5b81518015158114610d3f57600080fd5b60005b83811015610e1b578181015183820152602001610e03565b50506000910152565b60008251610e36818460208701610e00565b9190910192915050565b6020815260008251806020840152610e5f816040850160208701610e00565b601f017fffffffffffffffffffffffffffffffffffffffffffffffffffffffffffffffe016919091016040019291505056fea164736f6c6343000816000a",
  "linkReferences": {},
  "deployedLinkReferences": {}
}