{
    "_format": "hh-sol-artifact-1",
    "contractName": "GaslessGame",
    "sourceName": "contracts/GaslessGame.sol",
    "abi": [
        {
            "inputs": [
                {
                    "internalType": "address",
                    "name": "moveVerificationAddress",
                    "type": "address"
                }
            ],
            "stateMutability": "nonpayable",
            "type": "constructor"
        },
        {
            "inputs": [],
            "name": "InvalidShortString",
            "type": "error"
        },
        {
            "inputs": [
                {
                    "internalType": "string",
                    "name": "str",
                    "type": "string"
                }
            ],
            "name": "StringTooLong",
            "type": "error"
        },
        {
            "anonymous": false,
            "inputs": [],
            "name": "EIP712DomainChanged",
            "type": "event"
        },
        {
            "inputs": [],
            "name": "DELEGATION_METHOD_HASH",
            "outputs": [
                {
                    "internalType": "bytes32",
                    "name": "",
                    "type": "bytes32"
                }
            ],
            "stateMutability": "view",
            "type": "function"
        },
        {
            "inputs": [],
            "name": "MOVE_METHOD_HASH",
            "outputs": [
                {
                    "internalType": "bytes32",
                    "name": "",
                    "type": "bytes32"
                }
            ],
            "stateMutability": "view",
            "type": "function"
        },
        {
            "inputs": [],
            "name": "chessWager",
            "outputs": [
                {
                    "internalType": "contract ChessWager",
                    "name": "",
                    "type": "address"
                }
            ],
            "stateMutability": "view",
            "type": "function"
        },
        {
            "inputs": [
                {
                    "internalType": "address",
                    "name": "delegatorAddress",
                    "type": "address"
                },
                {
                    "internalType": "address",
                    "name": "delegatedAddress",
                    "type": "address"
                },
                {
                    "internalType": "address",
                    "name": "wagerAddress",
                    "type": "address"
                }
            ],
            "name": "createDelegation",
            "outputs": [
                {
                    "components": [
                        {
                            "internalType": "address",
                            "name": "delegatorAddress",
                            "type": "address"
                        },
                        {
                            "internalType": "address",
                            "name": "delegatedAddress",
                            "type": "address"
                        },
                        {
                            "internalType": "address",
                            "name": "wagerAddress",
                            "type": "address"
                        }
                    ],
                    "internalType": "struct GaslessGame.Delegation",
                    "name": "",
                    "type": "tuple"
                }
            ],
            "stateMutability": "pure",
            "type": "function"
        },
        {
            "inputs": [
                {
                    "internalType": "bytes",
                    "name": "signedDelegationBytes",
                    "type": "bytes"
                }
            ],
            "name": "decodeSignedDelegation",
            "outputs": [
                {
                    "components": [
                        {
                            "components": [
                                {
                                    "internalType": "address",
                                    "name": "delegatorAddress",
                                    "type": "address"
                                },
                                {
                                    "internalType": "address",
                                    "name": "delegatedAddress",
                                    "type": "address"
                                },
                                {
                                    "internalType": "address",
                                    "name": "wagerAddress",
                                    "type": "address"
                                }
                            ],
                            "internalType": "struct GaslessGame.Delegation",
                            "name": "delegation",
                            "type": "tuple"
                        },
                        {
                            "internalType": "bytes",
                            "name": "signature",
                            "type": "bytes"
                        }
                    ],
                    "internalType": "struct GaslessGame.SignedDelegation",
                    "name": "signedDelegation",
                    "type": "tuple"
                }
            ],
            "stateMutability": "pure",
            "type": "function"
        },
        {
            "inputs": [],
            "name": "eip712Domain",
            "outputs": [
                {
                    "internalType": "bytes1",
                    "name": "fields",
                    "type": "bytes1"
                },
                {
                    "internalType": "string",
                    "name": "name",
                    "type": "string"
                },
                {
                    "internalType": "string",
                    "name": "version",
                    "type": "string"
                },
                {
                    "internalType": "uint256",
                    "name": "chainId",
                    "type": "uint256"
                },
                {
                    "internalType": "address",
                    "name": "verifyingContract",
                    "type": "address"
                },
                {
                    "internalType": "bytes32",
                    "name": "salt",
                    "type": "bytes32"
                },
                {
                    "internalType": "uint256[]",
                    "name": "extensions",
                    "type": "uint256[]"
                }
            ],
            "stateMutability": "view",
            "type": "function"
        },
        {
            "inputs": [
                {
                    "components": [
                        {
                            "internalType": "address",
                            "name": "wagerAddress",
                            "type": "address"
                        },
                        {
                            "internalType": "uint256",
                            "name": "gameNumber",
                            "type": "uint256"
                        },
                        {
                            "internalType": "uint256",
                            "name": "moveNumber",
                            "type": "uint256"
                        },
                        {
                            "internalType": "uint16",
                            "name": "move",
                            "type": "uint16"
                        },
                        {
                            "internalType": "uint256",
                            "name": "expiration",
                            "type": "uint256"
                        }
                    ],
                    "internalType": "struct GaslessGame.GaslessMove",
                    "name": "move",
                    "type": "tuple"
                }
            ],
            "name": "encodeMoveMessage",
            "outputs": [
                {
                    "internalType": "bytes",
                    "name": "",
                    "type": "bytes"
                }
            ],
            "stateMutability": "pure",
            "type": "function"
        },
        {
            "inputs": [
                {
                    "components": [
                        {
                            "internalType": "address",
                            "name": "delegatorAddress",
                            "type": "address"
                        },
                        {
                            "internalType": "address",
                            "name": "delegatedAddress",
                            "type": "address"
                        },
                        {
                            "internalType": "address",
                            "name": "wagerAddress",
                            "type": "address"
                        }
                    ],
                    "internalType": "struct GaslessGame.Delegation",
                    "name": "delegation",
                    "type": "tuple"
                },
                {
                    "internalType": "bytes",
                    "name": "signature",
                    "type": "bytes"
                }
            ],
            "name": "encodeSignedDelegation",
            "outputs": [
                {
                    "internalType": "bytes",
                    "name": "",
                    "type": "bytes"
                }
            ],
            "stateMutability": "pure",
            "type": "function"
        },
        {
            "inputs": [],
            "name": "moveVerification",
            "outputs": [
                {
                    "internalType": "contract MoveVerification",
                    "name": "",
                    "type": "address"
                }
            ],
            "stateMutability": "view",
            "type": "function"
        },
        {
            "inputs": [
                {
                    "internalType": "address",
                    "name": "_chessWager",
                    "type": "address"
                }
            ],
            "name": "setChessWager",
            "outputs": [],
            "stateMutability": "nonpayable",
            "type": "function"
        },
        {
            "inputs": [
                {
                    "internalType": "bytes[]",
                    "name": "messages",
                    "type": "bytes[]"
                },
                {
                    "internalType": "bytes[]",
                    "name": "signatures",
                    "type": "bytes[]"
                }
            ],
            "name": "verifyGameView",
            "outputs": [
                {
                    "internalType": "address",
                    "name": "wagerAddress",
                    "type": "address"
                },
                {
                    "internalType": "uint8",
                    "name": "outcome",
                    "type": "uint8"
                },
                {
                    "internalType": "uint16[]",
                    "name": "moves",
                    "type": "uint16[]"
                }
            ],
            "stateMutability": "view",
            "type": "function"
        },
        {
            "inputs": [
                {
                    "internalType": "bytes[2]",
                    "name": "delegations",
                    "type": "bytes[2]"
                },
                {
                    "internalType": "bytes[]",
                    "name": "messages",
                    "type": "bytes[]"
                },
                {
                    "internalType": "bytes[]",
                    "name": "signatures",
                    "type": "bytes[]"
                }
            ],
            "name": "verifyGameViewDelegated",
            "outputs": [
                {
                    "internalType": "address",
                    "name": "wagerAddress",
                    "type": "address"
                },
                {
                    "internalType": "uint8",
                    "name": "outcome",
                    "type": "uint8"
                },
                {
                    "internalType": "uint16[]",
                    "name": "moves",
                    "type": "uint16[]"
                }
            ],
            "stateMutability": "view",
            "type": "function"
        }
    ],
    "bytecode": "0x6101c06040523480156200001257600080fd5b5060405162002b4938038062002b49833981016040819052620000359162000217565b6040805180820182526009815268086d0cae6e68cd2e6d60bb1b602080830191909152825180840190935260018352603160f81b90830152906200007b82600062000192565b610120526200008c81600162000192565b61014052815160208084019190912060e052815190820120610100524660a0526200011a60e05161010051604080517f8b73c3c69bb8fe3d512ecc4cf759cc79239f7b179b0ffacaa9a75d522b39400f60208201529081019290925260608201524660808201523060a082015260009060c00160405160208183030381529060405280519060200120905090565b60805250503060c0526001600160a01b031661016052600380546001600160a01b031916331790557f88cd504aa119e43a379da182457408707e71fb2ace693309bcba431faaa73255610180527f896472089b379a7bb9ae39c2d18bf1b3bdccb02db805052dc37452798b0c12556101a05262000432565b6000602083511015620001b257620001aa83620001cb565b9050620001c5565b81620001bf8482620002f0565b5060ff90505b92915050565b600080829050601f8151111562000202578260405163305a27a960e01b8152600401620001f99190620003bc565b60405180910390fd5b80516200020f826200040d565b179392505050565b6000602082840312156200022a57600080fd5b81516001600160a01b03811681146200024257600080fd5b9392505050565b634e487b7160e01b600052604160045260246000fd5b600181811c908216806200027457607f821691505b6020821081036200029557634e487b7160e01b600052602260045260246000fd5b50919050565b601f821115620002eb576000816000526020600020601f850160051c81016020861015620002c65750805b601f850160051c820191505b81811015620002e757828155600101620002d2565b5050505b505050565b81516001600160401b038111156200030c576200030c62000249565b62000324816200031d84546200025f565b846200029b565b602080601f8311600181146200035c5760008415620003435750858301515b600019600386901b1c1916600185901b178555620002e7565b600085815260208120601f198616915b828110156200038d578886015182559484019460019091019084016200036c565b5085821015620003ac5787850151600019600388901b60f8161c191681555b5050505050600190811b01905550565b60006020808352835180602085015260005b81811015620003ec57858101830151858201604001528201620003ce565b506000604082860101526040601f19601f8301168501019250505092915050565b80516020808301519190811015620002955760001960209190910360031b1b16919050565b60805160a05160c05160e05161010051610120516101405161016051610180516101a05161267f620004ca6000396000818161024001526114990152600081816101bd015261136f015260008181610129015281816106b50152610c0e01526000610cd001526000610ca6015260006117600152600061173801526000611693015260006116bd015260006116e7015261267f6000f3fe608060405234801561001057600080fd5b50600436106100d45760003560e01c80636732b84211610081578063b7ab2db31161005b578063b7ab2db31461021b578063bf03ba1e1461023b578063fd27171d1461026257600080fd5b80636732b842146101b8578063788519ad146101ed57806384b0196e1461020057600080fd5b80633c013191116100b25780633c013191146101705780635ea2f47314610185578063618712de146101a557600080fd5b80630e8d4fa9146100d95780630f3c178f146101045780631d9f45ee14610124575b600080fd5b6100ec6100e7366004611d11565b6102cd565b6040516100fb93929190611db5565b60405180910390f35b610117610112366004611e28565b61073d565b6040516100fb9190611edb565b61014b7f000000000000000000000000000000000000000000000000000000000000000081565b60405173ffffffffffffffffffffffffffffffffffffffff90911681526020016100fb565b61018361017e366004611ef5565b6107b5565b005b610198610193366004611f12565b61080c565b6040516100fb9190611f4f565b6101176101b3366004611faa565b61082e565b6101df7f000000000000000000000000000000000000000000000000000000000000000081565b6040519081526020016100fb565b6100ec6101fb366004612030565b61086b565b610208610c98565b6040516100fb9796959493929190612113565b60025461014b9073ffffffffffffffffffffffffffffffffffffffff1681565b6101df7f000000000000000000000000000000000000000000000000000000000000000081565b6102c06102703660046121d5565b604080516060808201835260008083526020808401829052928401528251908101835273ffffffffffffffffffffffffffffffffffffffff95861681529385169084015292169181019190915290565b6040516100fb9190612220565b600080606083518551146103285760405162461bcd60e51b815260206004820152601260248201527f6d73672e6c656e203d3d207369672e6c656e000000000000000000000000000060448201526064015b60405180910390fd5b61034b8560008151811061033e5761033e61225d565b6020026020010151610d3c565b6002546040517fb6c6c76200000000000000000000000000000000000000000000000000000000815273ffffffffffffffffffffffffffffffffffffffff80841660048301529295506000929091169063b6c6c76290602401602060405180830381865afa1580156103c1573d6000803e3d6000fd5b505050506040513d601f19601f820116820180604052508101906103e5919061228c565b6002546040517f8219d77c00000000000000000000000000000000000000000000000000000000815273ffffffffffffffffffffffffffffffffffffffff878116600483015292935060009283921690638219d77c906024016040805180830381865afa15801561045a573d6000803e3d6000fd5b505050506040513d601f19601f8201168201806040525081019061047e91906122a9565b9150915061048a611a31565b73ffffffffffffffffffffffffffffffffffffffff80841660208301528281166040830152606082015190881690526104c584828b8b610d5b565b6002546040517fb026e58f00000000000000000000000000000000000000000000000000000000815273ffffffffffffffffffffffffffffffffffffffff8a811660048301529297506000929091169063b026e58f90602401600060405180830381865afa15801561053b573d6000803e3d6000fd5b505050506040513d6000823e601f3d908101601f1916820160405261056391908101906122e3565b8051909150156106785760008651825161057d91906123ac565b67ffffffffffffffff81111561059557610595611b15565b6040519080825280602002602001820160405280156105be578160200160208202803683370190505b50905060005b8251811015610614578281815181106105df576105df61225d565b60200260200101518282815181106105f9576105f961225d565b61ffff909216602092830291909101909101526001016105c4565b5060005b8751811015610674578781815181106106335761063361225d565b60200260200101518284518361064991906123ac565b815181106106595761065961225d565b61ffff90921660209283029190910190910152600101610618565b5095505b6040517fc668ddb400000000000000000000000000000000000000000000000000000000815273ffffffffffffffffffffffffffffffffffffffff7f0000000000000000000000000000000000000000000000000000000000000000169063c668ddb4906106ea9089906004016123bf565b608060405180830381865afa158015610707573d6000803e3d6000fd5b505050506040513d601f19601f8201168201806040525081019061072b91906123eb565b50919850505050505050509250925092565b60608160405160200161079f9190600060a08201905073ffffffffffffffffffffffffffffffffffffffff8351168252602083015160208301526040830151604083015261ffff60608401511660608301526080830151608083015292915050565b6040516020818303038152906040529050919050565b600280547fffffffffffffffffffffffff00000000000000000000000000000000000000001673ffffffffffffffffffffffffffffffffffffffff8381169190911790915560035416331461080957600080fd5b50565b610814611aec565b818060200190518101906108289190612441565b92915050565b6040805180820182528381526020808201849052915160609261085391839101611f4f565b60405160208183030381529060405291505092915050565b600080606083518551146108c15760405162461bcd60e51b815260206004820152600360248201527f3537330000000000000000000000000000000000000000000000000000000000604482015260640161031f565b60006108d387825b602002015161080c565b905060006108e28860016108c9565b90506108ee828261104d565b81516040015194506108fe611a31565b825160209081015173ffffffffffffffffffffffffffffffffffffffff90811683830152835190910151811660408301526060820151908716905282515182515161094a9190886110ee565b8251516002546040517fb6c6c76200000000000000000000000000000000000000000000000000000000815273ffffffffffffffffffffffffffffffffffffffff8981166004830152600093811692169063b6c6c76290602401602060405180830381865afa1580156109c1573d6000803e3d6000fd5b505050506040513d601f19601f820116820180604052508101906109e5919061228c565b73ffffffffffffffffffffffffffffffffffffffff1614610a0a578160400151610a10565b81602001515b9050610a1e81838b8b610d5b565b6002546040517fb026e58f00000000000000000000000000000000000000000000000000000000815273ffffffffffffffffffffffffffffffffffffffff8a811660048301529297506000929091169063b026e58f90602401600060405180830381865afa158015610a94573d6000803e3d6000fd5b505050506040513d6000823e601f3d908101601f19168201604052610abc91908101906122e3565b805190915015610bd157600086518251610ad691906123ac565b67ffffffffffffffff811115610aee57610aee611b15565b604051908082528060200260200182016040528015610b17578160200160208202803683370190505b50905060005b8251811015610b6d57828181518110610b3857610b3861225d565b6020026020010151828281518110610b5257610b5261225d565b61ffff90921660209283029190910190910152600101610b1d565b5060005b8751811015610bcd57878181518110610b8c57610b8c61225d565b602002602001015182845183610ba291906123ac565b81518110610bb257610bb261225d565b61ffff90921660209283029190910190910152600101610b71565b5095505b6040517fc668ddb400000000000000000000000000000000000000000000000000000000815273ffffffffffffffffffffffffffffffffffffffff7f0000000000000000000000000000000000000000000000000000000000000000169063c668ddb490610c439089906004016123bf565b608060405180830381865afa158015610c60573d6000803e3d6000fd5b505050506040513d601f19601f82011682018060405250810190610c8491906123eb565b509198505050505050505093509350939050565b600060608082808083610ccb7f000000000000000000000000000000000000000000000000000000000000000083611242565b610cf67f00000000000000000000000000000000000000000000000000000000000000006001611242565b604080516000808252602082019092527f0f000000000000000000000000000000000000000000000000000000000000009b939a50919850469750309650945092509050565b60008082806020019051810190610d53919061253f565b519392505050565b6060825167ffffffffffffffff811115610d7757610d77611b15565b604051908082528060200260200182016040528015610da0578160200160208202803683370190505b5090506000835167ffffffffffffffff811115610dbf57610dbf611b15565b604051908082528060200260200182016040528015610de8578160200160208202803683370190505b50905060005b845181101561104357602086015173ffffffffffffffffffffffffffffffffffffffff888116911614610e226002836125a2565b1514610e32578560400151610e38565b85602001515b73ffffffffffffffffffffffffffffffffffffffff1686526060860151518551610e7b90879084908110610e6e57610e6e61225d565b60200260200101516112ed565b606088018190525173ffffffffffffffffffffffffffffffffffffffff828116911614610eea5760405162461bcd60e51b815260206004820152601360248201527f6e6f6e206d61746368696e672077616765727300000000000000000000000000604482015260640161031f565b428760600151608001511015610f425760405162461bcd60e51b815260206004820152600c60248201527f6d6f766520657870697265640000000000000000000000000000000000000000604482015260640161031f565b610f6587868481518110610f5857610f5861225d565b602002602001015161134d565b8115610fe55760608701516040015183610f806001856125dd565b81518110610f9057610f9061225d565b602002602001015110610fe55760405162461bcd60e51b815260206004820152601260248201527f6d7573742062652073657175656e7469616c0000000000000000000000000000604482015260640161031f565b8660600151604001518383815181106110005761100061225d565b6020026020010181815250508660600151606001518483815181106110275761102761225d565b61ffff9092166020928302919091019091015250600101610dee565b5050949350505050565b80600001516040015173ffffffffffffffffffffffffffffffffffffffff1682600001516040015173ffffffffffffffffffffffffffffffffffffffff16146110d85760405162461bcd60e51b815260206004820152601660248201527f6e6f6e206d61746368696e672061646472657373657300000000000000000000604482015260640161031f565b6110e182611485565b6110ea81611485565b5050565b6002546040517f8219d77c00000000000000000000000000000000000000000000000000000000815273ffffffffffffffffffffffffffffffffffffffff83811660048301526000928392911690638219d77c906024016040805180830381865afa158015611161573d6000803e3d6000fd5b505050506040513d601f19601f8201168201806040525081019061118591906122a9565b915091508173ffffffffffffffffffffffffffffffffffffffff168573ffffffffffffffffffffffffffffffffffffffff161480156111ef57508073ffffffffffffffffffffffffffffffffffffffff168473ffffffffffffffffffffffffffffffffffffffff16145b61123b5760405162461bcd60e51b815260206004820152601360248201527f706c617965727320646f6e2774206d6174636800000000000000000000000000604482015260640161031f565b5050505050565b606060ff831461125c576112558361158d565b9050610828565b818054611268906125f0565b80601f0160208091040260200160405190810160405280929190818152602001828054611294906125f0565b80156112e15780601f106112b6576101008083540402835291602001916112e1565b820191906000526020600020905b8154815290600101906020018083116112c457829003601f168201915b50505050509050610828565b6113396040518060a00160405280600073ffffffffffffffffffffffffffffffffffffffff1681526020016000815260200160008152602001600061ffff168152602001600081525090565b81806020019051810190610828919061253f565b60608281015180516020808301516040808501518587015160809687015183517f00000000000000000000000000000000000000000000000000000000000000009681019690965273ffffffffffffffffffffffffffffffffffffffff90961692850192909252958301919091529281019390935261ffff90911660a083015260c08201526000906113f89060e0015b604051602081830303815290604052805190602001206115cc565b835190915073ffffffffffffffffffffffffffffffffffffffff1661141d8284611614565b73ffffffffffffffffffffffffffffffffffffffff16146114805760405162461bcd60e51b815260206004820152601560248201527f31343020696e76616c6964207369676e61747572650000000000000000000000604482015260640161031f565b505050565b8051805160208083015160409384015184517f00000000000000000000000000000000000000000000000000000000000000009381019390935273ffffffffffffffffffffffffffffffffffffffff9384169483019490945282166060820152911660808201526000906114fb9060a0016113dd565b905081600001516000015173ffffffffffffffffffffffffffffffffffffffff1661152a828460200151611614565b73ffffffffffffffffffffffffffffffffffffffff16146110ea5760405162461bcd60e51b815260206004820152601160248201527f496e76616c6964207369676e6174757265000000000000000000000000000000604482015260640161031f565b6060600061159a83611638565b604080516020808252818301909252919250600091906020820181803683375050509182525060208101929092525090565b60006108286115d9611679565b836040517f19010000000000000000000000000000000000000000000000000000000000008152600281019290925260228201526042902090565b600080600061162385856117b6565b91509150611630816117fb565b509392505050565b600060ff8216601f811115610828576040517fb3512b0c00000000000000000000000000000000000000000000000000000000815260040160405180910390fd5b60003073ffffffffffffffffffffffffffffffffffffffff7f0000000000000000000000000000000000000000000000000000000000000000161480156116df57507f000000000000000000000000000000000000000000000000000000000000000046145b1561170957507f000000000000000000000000000000000000000000000000000000000000000090565b6117b1604080517f8b73c3c69bb8fe3d512ecc4cf759cc79239f7b179b0ffacaa9a75d522b39400f60208201527f0000000000000000000000000000000000000000000000000000000000000000918101919091527f000000000000000000000000000000000000000000000000000000000000000060608201524660808201523060a082015260009060c00160405160208183030381529060405280519060200120905090565b905090565b60008082516041036117ec5760208301516040840151606085015160001a6117e087828585611960565b945094505050506117f4565b506000905060025b9250929050565b600081600481111561180f5761180f612643565b036118175750565b600181600481111561182b5761182b612643565b036118785760405162461bcd60e51b815260206004820152601860248201527f45434453413a20696e76616c6964207369676e61747572650000000000000000604482015260640161031f565b600281600481111561188c5761188c612643565b036118d95760405162461bcd60e51b815260206004820152601f60248201527f45434453413a20696e76616c6964207369676e6174757265206c656e67746800604482015260640161031f565b60038160048111156118ed576118ed612643565b036108095760405162461bcd60e51b815260206004820152602260248201527f45434453413a20696e76616c6964207369676e6174757265202773272076616c60448201527f7565000000000000000000000000000000000000000000000000000000000000606482015260840161031f565b6000807f7fffffffffffffffffffffffffffffff5d576e7357a4501ddfe92f46681b20a08311156119975750600090506003611a28565b6040805160008082526020820180845289905260ff881692820192909252606081018690526080810185905260019060a0016020604051602081039080840390855afa1580156119eb573d6000803e3d6000fd5b5050604051601f19015191505073ffffffffffffffffffffffffffffffffffffffff8116611a2157600060019250925050611a28565b9150600090505b94509492505050565b6040518060a00160405280600073ffffffffffffffffffffffffffffffffffffffff168152602001600073ffffffffffffffffffffffffffffffffffffffff168152602001600073ffffffffffffffffffffffffffffffffffffffff168152602001611adf6040518060a00160405280600073ffffffffffffffffffffffffffffffffffffffff1681526020016000815260200160008152602001600061ffff168152602001600081525090565b8152602001606081525090565b6040805160a0810182526000918101828152606082018390526080820192909252908190611adf565b7f4e487b7100000000000000000000000000000000000000000000000000000000600052604160045260246000fd5b60405160a0810167ffffffffffffffff81118282101715611b6757611b67611b15565b60405290565b6040516060810167ffffffffffffffff81118282101715611b6757611b67611b15565b6040805190810167ffffffffffffffff81118282101715611b6757611b67611b15565b604051601f8201601f1916810167ffffffffffffffff81118282101715611bdc57611bdc611b15565b604052919050565b600067ffffffffffffffff821115611bfe57611bfe611b15565b5060051b60200190565b600067ffffffffffffffff821115611c2257611c22611b15565b50601f01601f191660200190565b600082601f830112611c4157600080fd5b8135611c54611c4f82611c08565b611bb3565b818152846020838601011115611c6957600080fd5b816020850160208301376000918101602001919091529392505050565b600082601f830112611c9757600080fd5b81356020611ca7611c4f83611be4565b82815260059290921b84018101918181019086841115611cc657600080fd5b8286015b84811015611d0657803567ffffffffffffffff811115611cea5760008081fd5b611cf88986838b0101611c30565b845250918301918301611cca565b509695505050505050565b60008060408385031215611d2457600080fd5b823567ffffffffffffffff80821115611d3c57600080fd5b611d4886838701611c86565b93506020850135915080821115611d5e57600080fd5b50611d6b85828601611c86565b9150509250929050565b60008151808452602080850194506020840160005b83811015611daa57815161ffff1687529582019590820190600101611d8a565b509495945050505050565b73ffffffffffffffffffffffffffffffffffffffff8416815260ff83166020820152606060408201526000611ded6060830184611d75565b95945050505050565b73ffffffffffffffffffffffffffffffffffffffff8116811461080957600080fd5b61ffff8116811461080957600080fd5b600060a08284031215611e3a57600080fd5b611e42611b44565b8235611e4d81611df6565b8082525060208301356020820152604083013560408201526060830135611e7381611e18565b60608201526080928301359281019290925250919050565b60005b83811015611ea6578181015183820152602001611e8e565b50506000910152565b60008151808452611ec7816020860160208601611e8b565b601f01601f19169290920160200192915050565b602081526000611eee6020830184611eaf565b9392505050565b600060208284031215611f0757600080fd5b8135611eee81611df6565b600060208284031215611f2457600080fd5b813567ffffffffffffffff811115611f3b57600080fd5b611f4784828501611c30565b949350505050565b60208152611f90602082018351805173ffffffffffffffffffffffffffffffffffffffff908116835260208083015182169084015260409182015116910152565b60006020830151608080840152611f4760a0840182611eaf565b6000808284036080811215611fbe57600080fd5b6060811215611fcc57600080fd5b50611fd5611b6d565b8335611fe081611df6565b81526020840135611ff081611df6565b6020820152604084013561200381611df6565b60408201529150606083013567ffffffffffffffff81111561202457600080fd5b611d6b85828601611c30565b60008060006060848603121561204557600080fd5b833567ffffffffffffffff8082111561205d57600080fd5b818601915086601f83011261207157600080fd5b612079611b90565b80604084018981111561208b57600080fd5b845b818110156120c0578035858111156120a55760008081fd5b6120b18c828901611c30565b8552506020938401930161208d565b50909650505060208601359150808211156120da57600080fd5b6120e687838801611c86565b935060408601359150808211156120fc57600080fd5b5061210986828701611c86565b9150509250925092565b7fff00000000000000000000000000000000000000000000000000000000000000881681526000602060e0602084015261215060e084018a611eaf565b8381036040850152612162818a611eaf565b6060850189905273ffffffffffffffffffffffffffffffffffffffff8816608086015260a0850187905284810360c08601528551808252602080880193509091019060005b818110156121c3578351835292840192918401916001016121a7565b50909c9b505050505050505050505050565b6000806000606084860312156121ea57600080fd5b83356121f581611df6565b9250602084013561220581611df6565b9150604084013561221581611df6565b809150509250925092565b606081016108288284805173ffffffffffffffffffffffffffffffffffffffff908116835260208083015182169084015260409182015116910152565b7f4e487b7100000000000000000000000000000000000000000000000000000000600052603260045260246000fd5b60006020828403121561229e57600080fd5b8151611eee81611df6565b600080604083850312156122bc57600080fd5b82516122c781611df6565b60208401519092506122d881611df6565b809150509250929050565b600060208083850312156122f657600080fd5b825167ffffffffffffffff81111561230d57600080fd5b8301601f8101851361231e57600080fd5b805161232c611c4f82611be4565b81815260059190911b8201830190838101908783111561234b57600080fd5b928401925b8284101561237257835161236381611e18565b82529284019290840190612350565b979650505050505050565b7f4e487b7100000000000000000000000000000000000000000000000000000000600052601160045260246000fd5b808201808211156108285761082861237d565b602081526000611eee6020830184611d75565b805163ffffffff811681146123e657600080fd5b919050565b6000806000806080858703121561240157600080fd5b845160ff8116811461241257600080fd5b60208601519094509250612428604086016123d2565b9150612436606086016123d2565b905092959194509250565b6000602080838503121561245457600080fd5b825167ffffffffffffffff8082111561246c57600080fd5b90840190818603608081121561248157600080fd5b612489611b90565b606082121561249757600080fd5b61249f611b6d565b915083516124ac81611df6565b8252838501516124bb81611df6565b8286015260408401516124cd81611df6565b6040830152908152606083015190828211156124e857600080fd5b818401935087601f8501126124fc57600080fd5b8351925061250c611c4f84611c08565b9150828252878584860101111561252257600080fd5b61253183868401878701611e8b565b938401525090949350505050565b600060a0828403121561255157600080fd5b612559611b44565b825161256481611df6565b808252506020830151602082015260408301516040820152606083015161258a81611e18565b60608201526080928301519281019290925250919050565b6000826125d8577f4e487b7100000000000000000000000000000000000000000000000000000000600052601260045260246000fd5b500690565b818103818111156108285761082861237d565b600181811c9082168061260457607f821691505b60208210810361263d577f4e487b7100000000000000000000000000000000000000000000000000000000600052602260045260246000fd5b50919050565b7f4e487b7100000000000000000000000000000000000000000000000000000000600052602160045260246000fdfea164736f6c6343000817000a",
    "linkReferences": {},
    "deployedLinkReferences": {}
}