{
  "_format": "hh-sol-artifact-1",
  "contractName": "ChessFishTournament",
  "sourceName": "contracts/Tournament.sol",
  "abi": [
    {
      "inputs": [
        {
          "internalType": "address",
          "name": "_chessWager",
          "type": "address"
        },
        {
          "internalType": "address",
          "name": "_paymentSplitter",
          "type": "address"
        }
      ],
      "stateMutability": "nonpayable",
      "type": "constructor"
    },
    {
      "inputs": [],
      "name": "ChessWagerAddress",
      "outputs": [
        {
          "internalType": "address",
          "name": "",
          "type": "address"
        }
      ],
      "stateMutability": "view",
      "type": "function"
    },
    {
      "inputs": [],
      "name": "PaymentSplitter",
      "outputs": [
        {
          "internalType": "address",
          "name": "",
          "type": "address"
        }
      ],
      "stateMutability": "view",
      "type": "function"
    },
    {
      "inputs": [
        {
          "internalType": "uint256",
          "name": "numberOfPlayers",
          "type": "uint256"
        },
        {
          "internalType": "uint256",
          "name": "numberOfGames",
          "type": "uint256"
        },
        {
          "internalType": "address",
          "name": "token",
          "type": "address"
        },
        {
          "internalType": "uint256",
          "name": "tokenAmount",
          "type": "uint256"
        },
        {
          "internalType": "uint256",
          "name": "timeLimit",
          "type": "uint256"
        }
      ],
      "name": "createTournament",
      "outputs": [
        {
          "internalType": "uint256",
          "name": "",
          "type": "uint256"
        }
      ],
      "stateMutability": "nonpayable",
      "type": "function"
    },
    {
      "inputs": [],
      "name": "deployer",
      "outputs": [
        {
          "internalType": "address",
          "name": "",
          "type": "address"
        }
      ],
      "stateMutability": "view",
      "type": "function"
    },
    {
      "inputs": [
        {
          "internalType": "uint256",
          "name": "tournamentID",
          "type": "uint256"
        },
        {
          "internalType": "uint256",
          "name": "amount",
          "type": "uint256"
        }
      ],
      "name": "depositToTournament",
      "outputs": [],
      "stateMutability": "nonpayable",
      "type": "function"
    },
    {
      "inputs": [
        {
          "internalType": "uint256",
          "name": "tournamentID",
          "type": "uint256"
        }
      ],
      "name": "exitTournament",
      "outputs": [],
      "stateMutability": "nonpayable",
      "type": "function"
    },
    {
      "inputs": [
        {
          "internalType": "uint256",
          "name": "tournamentID",
          "type": "uint256"
        }
      ],
      "name": "getPlayersSortedByWins",
      "outputs": [
        {
          "internalType": "address[]",
          "name": "",
          "type": "address[]"
        }
      ],
      "stateMutability": "view",
      "type": "function"
    },
    {
      "inputs": [
        {
          "internalType": "uint256",
          "name": "tournamentID",
          "type": "uint256"
        }
      ],
      "name": "getTournamentPlayers",
      "outputs": [
        {
          "internalType": "address[]",
          "name": "",
          "type": "address[]"
        }
      ],
      "stateMutability": "view",
      "type": "function"
    },
    {
      "inputs": [
        {
          "internalType": "uint256",
          "name": "tournamentID",
          "type": "uint256"
        }
      ],
      "name": "getTournamentWagerAddresses",
      "outputs": [
        {
          "internalType": "address[]",
          "name": "",
          "type": "address[]"
        }
      ],
      "stateMutability": "view",
      "type": "function"
    },
    {
      "inputs": [
        {
          "internalType": "uint256",
          "name": "tournamentID",
          "type": "uint256"
        }
      ],
      "name": "joinTournament",
      "outputs": [],
      "stateMutability": "nonpayable",
      "type": "function"
    },
    {
      "inputs": [
        {
          "internalType": "uint256",
          "name": "",
          "type": "uint256"
        }
      ],
      "name": "payoutProfile10_25",
      "outputs": [
        {
          "internalType": "uint256",
          "name": "",
          "type": "uint256"
        }
      ],
      "stateMutability": "view",
      "type": "function"
    },
    {
      "inputs": [
        {
          "internalType": "uint256",
          "name": "",
          "type": "uint256"
        }
      ],
      "name": "payoutProfile3",
      "outputs": [
        {
          "internalType": "uint256",
          "name": "",
          "type": "uint256"
        }
      ],
      "stateMutability": "view",
      "type": "function"
    },
    {
      "inputs": [
        {
          "internalType": "uint256",
          "name": "",
          "type": "uint256"
        }
      ],
      "name": "payoutProfile4_9",
      "outputs": [
        {
          "internalType": "uint256",
          "name": "",
          "type": "uint256"
        }
      ],
      "stateMutability": "view",
      "type": "function"
    },
    {
      "inputs": [
        {
          "internalType": "uint256",
          "name": "tournamentID",
          "type": "uint256"
        }
      ],
      "name": "payoutTournament",
      "outputs": [],
      "stateMutability": "nonpayable",
      "type": "function"
    },
    {
      "inputs": [
        {
          "internalType": "uint256",
          "name": "tournamentID",
          "type": "uint256"
        }
      ],
      "name": "startTournament",
      "outputs": [],
      "stateMutability": "nonpayable",
      "type": "function"
    },
    {
      "inputs": [],
      "name": "tournamentNonce",
      "outputs": [
        {
          "internalType": "uint256",
          "name": "",
          "type": "uint256"
        }
      ],
      "stateMutability": "view",
      "type": "function"
    },
    {
      "inputs": [
        {
          "internalType": "uint256",
          "name": "",
          "type": "uint256"
        },
        {
          "internalType": "address",
          "name": "",
          "type": "address"
        }
      ],
      "name": "tournamentWins",
      "outputs": [
        {
          "internalType": "uint256",
          "name": "",
          "type": "uint256"
        }
      ],
      "stateMutability": "view",
      "type": "function"
    },
    {
      "inputs": [
        {
          "internalType": "uint256",
          "name": "",
          "type": "uint256"
        }
      ],
      "name": "tournaments",
      "outputs": [
        {
          "internalType": "uint256",
          "name": "numberOfPlayers",
          "type": "uint256"
        },
        {
          "internalType": "uint256",
          "name": "numberOfGames",
          "type": "uint256"
        },
        {
          "internalType": "address",
          "name": "token",
          "type": "address"
        },
        {
          "internalType": "uint256",
          "name": "tokenAmount",
          "type": "uint256"
        },
        {
          "internalType": "uint256",
          "name": "prizePool",
          "type": "uint256"
        },
        {
          "internalType": "bool",
          "name": "isInProgress",
          "type": "bool"
        },
        {
          "internalType": "uint256",
          "name": "startTime",
          "type": "uint256"
        },
        {
          "internalType": "uint256",
          "name": "timeLimit",
          "type": "uint256"
        },
        {
          "internalType": "bool",
          "name": "isComplete",
          "type": "bool"
        }
      ],
      "stateMutability": "view",
      "type": "function"
    },
    {
      "inputs": [
        {
          "internalType": "uint256",
          "name": "tournamentID",
          "type": "uint256"
        }
      ],
      "name": "viewTournamentScore",
      "outputs": [
        {
          "internalType": "address[]",
          "name": "",
          "type": "address[]"
        },
        {
          "internalType": "uint256[]",
          "name": "",
          "type": "uint256[]"
        }
      ],
      "stateMutability": "view",
      "type": "function"
    }
  ],
  "bytecode": "0x6102bc60045560c0604052610230608090815261017260a052620000289060059060026200011f565b506040805160808101825261014a8152610122602082015260b491810191909152608260608201526200006090600890600462000168565b506040805160e08101825261016d815260e660208201526087918101919091526064606082015260326080820152601960a0820181905260c0820152620000ac90600c9060076200019e565b50348015620000ba57600080fd5b506040516200297c3803806200297c833981016040819052620000dd9162000208565b601380546001600160a01b039384166001600160a01b031991821617909155601480549290931691811691909117909155601580549091163317905562000240565b826003810192821562000156579160200282015b8281111562000156578251829061ffff1690559160200191906001019062000133565b5062000164929150620001d4565b5090565b826004810192821562000156579160200282018281111562000156578251829061ffff1690559160200191906001019062000133565b826007810192821562000156579160200282018281111562000156578251829061ffff1690559160200191906001019062000133565b5b80821115620001645760008155600101620001d5565b80516001600160a01b03811681146200020357600080fd5b919050565b600080604083850312156200021c57600080fd5b6200022783620001eb565b91506200023760208401620001eb565b90509250929050565b61272c80620002506000396000f3fe608060405234801561001057600080fd5b50600436106101515760003560e01c80637509a43c116100cd578063b8a8de4811610081578063d115cac611610066578063d115cac614610388578063d5f394881461039b578063f5ed83de146103ae57600080fd5b8063b8a8de4814610362578063c0dcf3301461037557600080fd5b8063945aff34116100b2578063945aff34146103255780639f829fdd1461032e578063b849ffc31461034157600080fd5b80637509a43c146102ff5780637cddfa811461031257600080fd5b80633b8e67d8116101245780634d7ae7a8116101095780634d7ae7a81461021a578063651ea9431461022d5780637503e1b71461024057600080fd5b80633b8e67d8146101dc5780633dea815e1461020757600080fd5b80631f22d9c01461015657806326f7519a1461017c5780632d822f7a1461019c5780633a9cc8ee146101c7575b600080fd5b6101696101643660046122d1565b6103c1565b6040519081526020015b60405180910390f35b61018f61018a3660046122d1565b6103d8565b604051610173919061232f565b6101696101aa366004612361565b600360209081526000928352604080842090915290825290205481565b6101da6101d5366004612391565b610447565b005b6013546101ef906001600160a01b031681565b6040516001600160a01b039091168152602001610173565b6101da6102153660046122d1565b6104ff565b6014546101ef906001600160a01b031681565b6101da61023b3660046122d1565b6109bc565b6102a961024e3660046122d1565b600160205260009081526040902080546002820154600383015460048401546005850154600686015460078701546008880154600990980154969795966001600160a01b03909516959394929360ff92831693919290911689565b60408051998a5260208a01989098526001600160a01b039096169688019690965260608701939093526080860191909152151560a085015260c084015260e0830191909152151561010082015261012001610173565b61018f61030d3660046122d1565b610c20565b6101da6103203660046122d1565b610ffc565b61016960005481565b61018f61033c3660046122d1565b6110fc565b61035461034f3660046122d1565b611166565b6040516101739291906123b3565b6101696103703660046122d1565b6113fd565b61016961038336600461240a565b61140d565b6101da6103963660046122d1565b61167c565b6015546101ef906001600160a01b031681565b6101696103bc3660046122d1565b611984565b600881600481106103d157600080fd5b0154905081565b60008181526001602081815260409283902090910180548351818402810184019094528084526060939283018282801561043b57602002820191906000526020600020905b81546001600160a01b0316815260019091019060200180831161041d575b50505050509050919050565b60008281526001602052604090206009015460ff16156104ae5760405162461bcd60e51b815260206004820152601460248201527f746f75726e616d656e7420636f6d706c6574656400000000000000000000000060448201526064015b60405180910390fd5b6000828152600160205260409020600301546104d5906001600160a01b0316333084611994565b600082815260016020526040812060050180548392906104f6908490612482565b90915550505050565b60008181526001602052604090206007015461051b9042612495565b6000828152600160205260409020600801541061057a5760405162461bcd60e51b815260206004820152601b60248201527f546f75726e616d656e74206e6f742066696e697368656420796574000000000060448201526064016104a5565b60008181526001602052604090206009015460ff16156105dc5760405162461bcd60e51b815260206004820152601460248201527f546f75726e616d656e7420636f6d706c6574656400000000000000000000000060448201526064016104a5565b6105e581611a69565b505060008181526001602081905260409091206009810180547fffffffffffffffffffffffffffffffffffffffffffffffffffffffffffffff00168317905501546060600382900361069e5760408051600380825260808201909252906020820160608036833701905050905060005b60038110156106985760058160038110610671576106716124d7565b0154828281518110610685576106856124d7565b6020908102919091010152600101610655565b5061079b565b6003821180156106af575060098211155b1561071b5760408051600480825260a08201909252906020820160808036833701905050905060005b600481101561069857600881600481106106f4576106f46124d7565b0154828281518110610708576107086124d7565b60209081029190910101526001016106d8565b60098211801561072c575060198211155b1561079b576040805160078082526101008201909252906020820160e08036833701905050905060005b600781101561079957600c8160078110610772576107726124d7565b0154828281518110610786576107866124d7565b6020908102919091010152600101610756565b505b60006107a684610c20565b6000858152600160208190526040822060038101546005820154600483015492909301549495506001600160a01b0316936107e19190612506565b6107eb9190612482565b6040517f70a0823100000000000000000000000000000000000000000000000000000000815230600482015290915081906001600160a01b038416906370a0823190602401602060405180830381865afa15801561084d573d6000803e3d6000fd5b505050506040513d601f19601f82011682018060405250810190610871919061251d565b82101561088057610880612536565b60005b85518161ffff1610156109215760006103e8878361ffff16815181106108ab576108ab6124d7565b6020026020010151856108be9190612506565b6108c89190612565565b905080156109185761090b868361ffff16815181106108e9576108e96124d7565b602002602001015182876001600160a01b0316611d139092919063ffffffff16565b6109158184612495565b92505b50600101610883565b506014546040517fa9059cbb0000000000000000000000000000000000000000000000000000000081526001600160a01b039182166004820152602481018390529084169063a9059cbb906044016020604051808303816000875af115801561098e573d6000803e3d6000fd5b505050506040513d601f19601f820116820180604052508101906109b291906125a0565b5050505050505050565b60008181526001602052604090206006015460ff1615610a1e5760405162461bcd60e51b815260206004820152600f60248201527f616c72656164792073746172746564000000000000000000000000000000000060448201526064016104a5565b6000818152600160208190526040909120015460031115610a815760405162461bcd60e51b815260206004820152601260248201527f6e6f7420656e6f75676820706c6179657273000000000000000000000000000060448201526064016104a5565b6000818152600160208190526040909120805491015414610b0a576000818152600160205260409020600701546201518090610abd9042612495565b11610b0a5760405162461bcd60e51b815260206004820152601e60248201527f6d75737420776169742031646179206265666f7265207374617274696e67000060448201526064016104a5565b6000818152600160208190526040822060060180547fffffffffffffffffffffffffffffffffffffffffffffffffffffffffffffff001690911790555b600082815260026020526040902054811015610c1c57601354600083815260026020526040902080546001600160a01b0390921691633857eb37919084908110610b9357610b936124d7565b60009182526020909120015460405160e083901b7fffffffff000000000000000000000000000000000000000000000000000000001681526001600160a01b039091166004820152602401600060405180830381600087803b158015610bf857600080fd5b505af1158015610c0c573d6000803e3d6000fd5b505060019092019150610b479050565b5050565b600081815260016020526040902060070154606090610c3f9042612495565b60008381526001602052604090206008015410610c9e5760405162461bcd60e51b815260206004820152601b60248201527f546f75726e616d656e74206e6f742066696e697368656420796574000000000060448201526064016104a5565b600082815260016020818152604080842090920180548351818402810184019094528084529091830182828015610cfe57602002820191906000526020600020905b81546001600160a01b03168152600190910190602001808311610ce0575b505050505090506000815167ffffffffffffffff811115610d2157610d216124a8565b604051908082528060200260200182016040528015610d6657816020015b6040805180820190915260008082526020820152815260200190600190039081610d3f5790505b50905060005b8251811015610e20576040518060400160405280848381518110610d9257610d926124d7565b60200260200101516001600160a01b03168152602001600360008881526020019081526020016000206000868581518110610dcf57610dcf6124d7565b60200260200101516001600160a01b03166001600160a01b0316815260200190815260200160002054815250828281518110610e0d57610e0d6124d7565b6020908102919091010152600101610d6c565b506000805b60018351610e339190612495565b811015610f4d576000915060005b6001828551610e509190612495565b610e5a9190612495565b811015610f3e5783610e6d826001612482565b81518110610e7d57610e7d6124d7565b602002602001015160200151848281518110610e9b57610e9b6124d7565b6020026020010151602001511015610f365783610eb9826001612482565b81518110610ec957610ec96124d7565b6020026020010151848281518110610ee357610ee36124d7565b6020026020010151858381518110610efd57610efd6124d7565b6020026020010186846001610f129190612482565b81518110610f2257610f226124d7565b602002602001018290528290525050600192505b600101610e41565b508115610f4d57600101610e25565b506000835167ffffffffffffffff811115610f6a57610f6a6124a8565b604051908082528060200260200182016040528015610f93578160200160208202803683370190505b50905060005b8351811015610ff257838181518110610fb457610fb46124d7565b602002602001015160000151828281518110610fd257610fd26124d7565b6001600160a01b0390921660209283029190910190910152600101610f99565b5095945050505050565b60008181526001602052604090206006015460ff161561105e5760405162461bcd60e51b815260206004820152601660248201527f546f75726e616d656e7420696e2070726f67726573730000000000000000000060448201526064016104a5565b6110688133611d5c565b6110b45760405162461bcd60e51b815260206004820152601c60248201527f6d73672e73656e646572206e6f7420696e20746f75726e616d656e740000000060448201526064016104a5565b600081815260016020526040902060038101546004909101546001600160a01b03909116906110e38333611de3565b6110f76001600160a01b0383163383611d13565b505050565b60008181526002602090815260409182902080548351818402810184019094528084526060939283018282801561043b576020028201919060005260206000209081546001600160a01b0316815260019091019060200180831161041d5750505050509050919050565b6060806000600160008581526020019081526020016000206001018054806020026020016040519081016040528092919081815260200182805480156111d557602002820191906000526020600020905b81546001600160a01b031681526001909101906020018083116111b7575b505050600087815260026020526040812054845194955093909250905067ffffffffffffffff81111561120a5761120a6124a8565b604051908082528060200260200182016040528015611233578160200160208202803683370190505b50905060005b828110156113f0576013546000888152600260205260408120805491928392839283926001600160a01b03169163e9f0dac791908890811061127d5761127d6124d7565b60009182526020909120015460405160e083901b7fffffffff000000000000000000000000000000000000000000000000000000001681526001600160a01b039091166004820152602401608060405180830381865afa1580156112e5573d6000803e3d6000fd5b505050506040513d601f19601f8201168201806040525081019061130991906125c2565b935093509350935060005b88518110156113df57846001600160a01b0316898281518110611339576113396124d7565b60200260200101516001600160a01b03160361137a5782878281518110611362576113626124d7565b602002602001018181516113769190612482565b9052505b836001600160a01b0316898281518110611396576113966124d7565b60200260200101516001600160a01b0316036113d757818782815181106113bf576113bf6124d7565b602002602001018181516113d39190612482565b9052505b600101611314565b505060019093019250611239915050565b5091959194509092505050565b600c81600781106103d157600080fd5b600060198611156114605760405162461bcd60e51b815260206004820152601060248201527f546f6f206d616e7920706c61796572730000000000000000000000000000000060448201526064016104a5565b6114756001600160a01b038516333086611994565b6114d860405180610140016040528060008152602001606081526020016000815260200160006001600160a01b03168152602001600081526020016000815260200160001515815260200160008152602001600081526020016000151581525090565b60408051600180825281830190925260009160208083019080368337019050509050338160008151811061150e5761150e6124d7565b6001600160a01b0392831660209182029290920181019190915289845283810183815291881660608501526080840187905260408085018a9052600060c086018190524260e087015261010086018890526101208601819052805481526001808452919020855181559251805186949361158c93850192019061223f565b506040820151600282015560608201516003820180546001600160a01b039092167fffffffffffffffffffffffff00000000000000000000000000000000000000009092169190911790556080820151600482015560a0820151600582015560c08201516006820180549115157fffffffffffffffffffffffffffffffffffffffffffffffffffffffffffffff0092831617905560e08301516007830155610100830151600883015561012090920151600990910180549115159190921617905560008054908061165c8361260a565b919050555060016000546116709190612495565b98975050505050505050565b600081815260016020819052604090912090810154905410156116e15760405162461bcd60e51b815260206004820152601d60248201527f6d6178206e756d626572206f6620706c6179657273207265616368656400000060448201526064016104a5565b60008181526001602052604090206006015460ff16156117435760405162461bcd60e51b815260206004820152601660248201527f746f75726e616d656e7420696e2070726f67726573730000000000000000000060448201526064016104a5565b61174d8133611d5c565b1561179a5760405162461bcd60e51b815260206004820152600e60248201527f616c7265616479204a6f696e656400000000000000000000000000000000000060448201526064016104a5565b60008181526001602052604090206003810154600482015460028301546008909301546001600160a01b039092169290916117d784333086611994565b60005b60008681526001602081905260409091200154811015611936576000868152600160208190526040822001805483908110611817576118176124d7565b60009182526020822001546013546040517fe3e9956c0000000000000000000000000000000000000000000000000000000081526001600160a01b03928316600482018190523360248301528a84166044830152606482018a90526084820189905260a48201889052945091169063e3e9956c9060c4016020604051808303816000875af11580156118ad573d6000803e3d6000fd5b505050506040513d601f19601f820116820180604052508101906118d19190612642565b60008981526002602090815260408220805460018082018355918452919092200180547fffffffffffffffffffffffff0000000000000000000000000000000000000000166001600160a01b0393909316929092179091559290920191506117da9050565b50505060009283525050600160208181526040832082018054928301815583529091200180547fffffffffffffffffffffffff00000000000000000000000000000000000000001633179055565b600581600381106103d157600080fd5b6040516001600160a01b0380851660248301528316604482015260648101829052611a639085907f23b872dd00000000000000000000000000000000000000000000000000000000906084015b604080517fffffffffffffffffffffffffffffffffffffffffffffffffffffffffffffffe08184030181529190526020810180517bffffffffffffffffffffffffffffffffffffffffffffffffffffffff167fffffffff0000000000000000000000000000000000000000000000000000000090931692909217909152611fb3565b50505050565b606080600060016000858152602001908152602001600020600101805480602002602001604051908101604052809291908181526020018280548015611ad857602002820191906000526020600020905b81546001600160a01b03168152600190910190602001808311611aba575b5050506000878152600260205260408120549394509150505b81811015611c49576013546000878152600260205260408120805491928392839283926001600160a01b03169163e9f0dac7919088908110611b3557611b356124d7565b60009182526020909120015460405160e083901b7fffffffff000000000000000000000000000000000000000000000000000000001681526001600160a01b039091166004820152602401608060405180830381865afa158015611b9d573d6000803e3d6000fd5b505050506040513d601f19601f82011682018060405250810190611bc191906125c2565b60008e81526003602090815260408083206001600160a01b03881684529091528120805495995093975091955093508492611bfd908490612482565b909155505060008a81526003602090815260408083206001600160a01b038716845290915281208054839290611c34908490612482565b909155505060019094019350611af192505050565b506000825167ffffffffffffffff811115611c6657611c666124a8565b604051908082528060200260200182016040528015611c8f578160200160208202803683370190505b50905060005b83518110156113f057600360008881526020019081526020016000206000858381518110611cc557611cc56124d7565b60200260200101516001600160a01b03166001600160a01b0316815260200190815260200160002054828281518110611d0057611d006124d7565b6020908102919091010152600101611c95565b6040516001600160a01b0383166024820152604481018290526110f79084907fa9059cbb00000000000000000000000000000000000000000000000000000000906064016119e1565b6000805b60008481526001602081905260409091200154811015611dd757826001600160a01b0316600160008681526020019081526020016000206001018281548110611dab57611dab6124d7565b6000918252602090912001546001600160a01b031603611dcf576001915050611ddd565b600101611d60565b50600090505b92915050565b6000805b60008481526001602081905260409091200154811015611e5d57826001600160a01b0316600160008681526020019081526020016000206001018281548110611e3257611e326124d7565b6000918252602090912001546001600160a01b031603611e555760019150611e5d565b600101611de7565b811515600103611a6357600084815260016020819052604090912001548110611e8857611e88612536565b6000848152600160208190526040909120810180549091611ea891612495565b81548110611eb857611eb86124d7565b600091825260208083209091015486835260019182905260409092200180546001600160a01b039092169183908110611ef357611ef36124d7565b600091825260208083209190910180547fffffffffffffffffffffffff0000000000000000000000000000000000000000166001600160a01b0394909416939093179092558581526001918290526040902001805480611f5557611f5561265f565b60008281526020902081017fffffffffffffffffffffffffffffffffffffffffffffffffffffffffffffffff90810180547fffffffffffffffffffffffff000000000000000000000000000000000000000016905501905550505050565b6000612008826040518060400160405280602081526020017f5361666545524332303a206c6f772d6c6576656c2063616c6c206661696c6564815250856001600160a01b03166120989092919063ffffffff16565b8051909150156110f7578080602001905181019061202691906125a0565b6110f75760405162461bcd60e51b815260206004820152602a60248201527f5361666545524332303a204552433230206f7065726174696f6e20646964206e60448201527f6f7420737563636565640000000000000000000000000000000000000000000060648201526084016104a5565b60606120a784846000856120af565b949350505050565b6060824710156121275760405162461bcd60e51b815260206004820152602660248201527f416464726573733a20696e73756666696369656e742062616c616e636520666f60448201527f722063616c6c000000000000000000000000000000000000000000000000000060648201526084016104a5565b600080866001600160a01b0316858760405161214391906126b2565b60006040518083038185875af1925050503d8060008114612180576040519150601f19603f3d011682016040523d82523d6000602084013e612185565b606091505b5091509150612196878383876121a1565b979650505050505050565b60608315612210578251600003612209576001600160a01b0385163b6122095760405162461bcd60e51b815260206004820152601d60248201527f416464726573733a2063616c6c20746f206e6f6e2d636f6e747261637400000060448201526064016104a5565b50816120a7565b6120a783838151156122255781518083602001fd5b8060405162461bcd60e51b81526004016104a591906126ce565b8280548282559060005260206000209081019282156122ac579160200282015b828111156122ac57825182547fffffffffffffffffffffffff0000000000000000000000000000000000000000166001600160a01b0390911617825560209092019160019091019061225f565b506122b89291506122bc565b5090565b5b808211156122b857600081556001016122bd565b6000602082840312156122e357600080fd5b5035919050565b60008151808452602080850194506020840160005b838110156123245781516001600160a01b0316875295820195908201906001016122ff565b509495945050505050565b60208152600061234260208301846122ea565b9392505050565b6001600160a01b038116811461235e57600080fd5b50565b6000806040838503121561237457600080fd5b82359150602083013561238681612349565b809150509250929050565b600080604083850312156123a457600080fd5b50508035926020909101359150565b6040815260006123c660408301856122ea565b82810360208481019190915284518083528582019282019060005b818110156123fd578451835293830193918301916001016123e1565b5090979650505050505050565b600080600080600060a0868803121561242257600080fd5b8535945060208601359350604086013561243b81612349565b94979396509394606081013594506080013592915050565b7f4e487b7100000000000000000000000000000000000000000000000000000000600052601160045260246000fd5b80820180821115611ddd57611ddd612453565b81810381811115611ddd57611ddd612453565b7f4e487b7100000000000000000000000000000000000000000000000000000000600052604160045260246000fd5b7f4e487b7100000000000000000000000000000000000000000000000000000000600052603260045260246000fd5b8082028115828204841417611ddd57611ddd612453565b60006020828403121561252f57600080fd5b5051919050565b7f4e487b7100000000000000000000000000000000000000000000000000000000600052600160045260246000fd5b60008261259b577f4e487b7100000000000000000000000000000000000000000000000000000000600052601260045260246000fd5b500490565b6000602082840312156125b257600080fd5b8151801515811461234257600080fd5b600080600080608085870312156125d857600080fd5b84516125e381612349565b60208601519094506125f481612349565b6040860151606090960151949790965092505050565b60007fffffffffffffffffffffffffffffffffffffffffffffffffffffffffffffffff820361263b5761263b612453565b5060010190565b60006020828403121561265457600080fd5b815161234281612349565b7f4e487b7100000000000000000000000000000000000000000000000000000000600052603160045260246000fd5b60005b838110156126a9578181015183820152602001612691565b50506000910152565b600082516126c481846020870161268e565b9190910192915050565b60208152600082518060208401526126ed81604085016020870161268e565b601f017fffffffffffffffffffffffffffffffffffffffffffffffffffffffffffffffe016919091016040019291505056fea164736f6c6343000816000a",
  "linkReferences": {},
  "deployedLinkReferences": {}
}