{
  "_format": "hh-sol-artifact-1",
  "contractName": "ChessFishTournament",
  "sourceName": "contracts/Tournament.sol",
  "abi": [
    {
      "inputs": [
        {
          "internalType": "address",
          "name": "_chessWager",
          "type": "address"
        },
        {
          "internalType": "address",
          "name": "_paymentSplitter",
          "type": "address"
        }
      ],
      "stateMutability": "nonpayable",
      "type": "constructor"
    },
    {
      "inputs": [],
      "name": "ChessWagerAddress",
      "outputs": [
        {
          "internalType": "address",
          "name": "",
          "type": "address"
        }
      ],
      "stateMutability": "view",
      "type": "function"
    },
    {
      "inputs": [],
      "name": "PaymentSplitter",
      "outputs": [
        {
          "internalType": "address",
          "name": "",
          "type": "address"
        }
      ],
      "stateMutability": "view",
      "type": "function"
    },
    {
      "inputs": [
        {
          "internalType": "uint256",
          "name": "numberOfPlayers",
          "type": "uint256"
        },
        {
          "internalType": "uint256",
          "name": "numberOfGames",
          "type": "uint256"
        },
        {
          "internalType": "address",
          "name": "token",
          "type": "address"
        },
        {
          "internalType": "uint256",
          "name": "tokenAmount",
          "type": "uint256"
        },
        {
          "internalType": "uint256",
          "name": "timeLimit",
          "type": "uint256"
        }
      ],
      "name": "createTournament",
      "outputs": [
        {
          "internalType": "uint256",
          "name": "",
          "type": "uint256"
        }
      ],
      "stateMutability": "nonpayable",
      "type": "function"
    },
    {
      "inputs": [
        {
          "internalType": "address[]",
          "name": "specificPlayers",
          "type": "address[]"
        },
        {
          "internalType": "uint256",
          "name": "numberOfGames",
          "type": "uint256"
        },
        {
          "internalType": "address",
          "name": "token",
          "type": "address"
        },
        {
          "internalType": "uint256",
          "name": "tokenAmount",
          "type": "uint256"
        },
        {
          "internalType": "uint256",
          "name": "timeLimit",
          "type": "uint256"
        },
        {
          "internalType": "bool",
          "name": "shouldJoin",
          "type": "bool"
        }
      ],
      "name": "createTournamentWithSpecificPlayers",
      "outputs": [
        {
          "internalType": "uint256",
          "name": "",
          "type": "uint256"
        }
      ],
      "stateMutability": "nonpayable",
      "type": "function"
    },
    {
      "inputs": [
        {
          "internalType": "uint256",
          "name": "tournamentID",
          "type": "uint256"
        },
        {
          "internalType": "uint256",
          "name": "amount",
          "type": "uint256"
        }
      ],
      "name": "depositToTournament",
      "outputs": [],
      "stateMutability": "nonpayable",
      "type": "function"
    },
    {
      "inputs": [
        {
          "internalType": "uint256",
          "name": "tournamentID",
          "type": "uint256"
        }
      ],
      "name": "exitTournament",
      "outputs": [],
      "stateMutability": "nonpayable",
      "type": "function"
    },
    {
      "inputs": [
        {
          "internalType": "uint256",
          "name": "tournamentID",
          "type": "uint256"
        }
      ],
      "name": "getPlayersSortedByWins",
      "outputs": [
        {
          "internalType": "address[]",
          "name": "",
          "type": "address[]"
        }
      ],
      "stateMutability": "view",
      "type": "function"
    },
    {
      "inputs": [
        {
          "internalType": "uint256",
          "name": "tournamentID",
          "type": "uint256"
        }
      ],
      "name": "getTournamentPlayers",
      "outputs": [
        {
          "internalType": "address[]",
          "name": "",
          "type": "address[]"
        }
      ],
      "stateMutability": "view",
      "type": "function"
    },
    {
      "inputs": [
        {
          "internalType": "uint256",
          "name": "tournamentID",
          "type": "uint256"
        }
      ],
      "name": "getTournamentWagerAddresses",
      "outputs": [
        {
          "internalType": "address[]",
          "name": "",
          "type": "address[]"
        }
      ],
      "stateMutability": "view",
      "type": "function"
    },
    {
      "inputs": [
        {
          "internalType": "uint256",
          "name": "tournamentID",
          "type": "uint256"
        }
      ],
      "name": "joinTournament",
      "outputs": [],
      "stateMutability": "nonpayable",
      "type": "function"
    },
    {
      "inputs": [
        {
          "internalType": "uint256",
          "name": "",
          "type": "uint256"
        }
      ],
      "name": "payoutProfile10_25",
      "outputs": [
        {
          "internalType": "uint256",
          "name": "",
          "type": "uint256"
        }
      ],
      "stateMutability": "view",
      "type": "function"
    },
    {
      "inputs": [
        {
          "internalType": "uint256",
          "name": "",
          "type": "uint256"
        }
      ],
      "name": "payoutProfile3",
      "outputs": [
        {
          "internalType": "uint256",
          "name": "",
          "type": "uint256"
        }
      ],
      "stateMutability": "view",
      "type": "function"
    },
    {
      "inputs": [
        {
          "internalType": "uint256",
          "name": "",
          "type": "uint256"
        }
      ],
      "name": "payoutProfile4_9",
      "outputs": [
        {
          "internalType": "uint256",
          "name": "",
          "type": "uint256"
        }
      ],
      "stateMutability": "view",
      "type": "function"
    },
    {
      "inputs": [
        {
          "internalType": "uint256",
          "name": "tournamentID",
          "type": "uint256"
        }
      ],
      "name": "payoutTournament",
      "outputs": [],
      "stateMutability": "nonpayable",
      "type": "function"
    },
    {
      "inputs": [
        {
          "internalType": "uint256",
          "name": "tournamentID",
          "type": "uint256"
        }
      ],
      "name": "startTournament",
      "outputs": [],
      "stateMutability": "nonpayable",
      "type": "function"
    },
    {
      "inputs": [],
      "name": "tournamentNonce",
      "outputs": [
        {
          "internalType": "uint256",
          "name": "",
          "type": "uint256"
        }
      ],
      "stateMutability": "view",
      "type": "function"
    },
    {
      "inputs": [
        {
          "internalType": "uint256",
          "name": "",
          "type": "uint256"
        },
        {
          "internalType": "address",
          "name": "",
          "type": "address"
        }
      ],
      "name": "tournamentWins",
      "outputs": [
        {
          "internalType": "uint256",
          "name": "",
          "type": "uint256"
        }
      ],
      "stateMutability": "view",
      "type": "function"
    },
    {
      "inputs": [
        {
          "internalType": "uint256",
          "name": "",
          "type": "uint256"
        }
      ],
      "name": "tournaments",
      "outputs": [
        {
          "internalType": "uint256",
          "name": "numberOfPlayers",
          "type": "uint256"
        },
        {
          "internalType": "bool",
          "name": "isByInvite",
          "type": "bool"
        },
        {
          "internalType": "uint256",
          "name": "numberOfGames",
          "type": "uint256"
        },
        {
          "internalType": "address",
          "name": "token",
          "type": "address"
        },
        {
          "internalType": "uint256",
          "name": "tokenAmount",
          "type": "uint256"
        },
        {
          "internalType": "uint256",
          "name": "prizePool",
          "type": "uint256"
        },
        {
          "internalType": "bool",
          "name": "isInProgress",
          "type": "bool"
        },
        {
          "internalType": "uint256",
          "name": "startTime",
          "type": "uint256"
        },
        {
          "internalType": "uint256",
          "name": "timeLimit",
          "type": "uint256"
        },
        {
          "internalType": "bool",
          "name": "isComplete",
          "type": "bool"
        }
      ],
      "stateMutability": "view",
      "type": "function"
    },
    {
      "inputs": [
        {
          "internalType": "uint256",
          "name": "tournamentID",
          "type": "uint256"
        }
      ],
      "name": "viewTournamentScore",
      "outputs": [
        {
          "internalType": "address[]",
          "name": "",
          "type": "address[]"
        },
        {
          "internalType": "uint256[]",
          "name": "",
          "type": "uint256[]"
        }
      ],
      "stateMutability": "view",
      "type": "function"
    }
  ],
  "bytecode": "0x6102bc60005561010060405261023060c090815261017260e05262000029906001906002620000f5565b506040805160808101825261014a8152610122602082015260b491810191909152608260608201526200006090600490816200013e565b506040805160e08101825261016d815260e660208201526087918101919091526064606082015260326080820152601960a0820181905260c0820152620000ac90600890600762000174565b50348015620000ba57600080fd5b50604051620031fd380380620031fd833981016040819052620000dd91620001de565b6001600160a01b039182166080521660a05262000216565b82600381019282156200012c579160200282015b828111156200012c578251829061ffff1690559160200191906001019062000109565b506200013a929150620001aa565b5090565b82600481019282156200012c57916020028201828111156200012c578251829061ffff1690559160200191906001019062000109565b82600781019282156200012c57916020028201828111156200012c578251829061ffff1690559160200191906001019062000109565b5b808211156200013a5760008155600101620001ab565b80516001600160a01b0381168114620001d957600080fd5b919050565b60008060408385031215620001f257600080fd5b620001fd83620001c1565b91506200020d60208401620001c1565b90509250929050565b60805160a051612f9e6200025f6000396000818161023301526109850152600081816101e101528181610bc30152818161174801528181611f1b01526121bc0152612f9e6000f3fe608060405234801561001057600080fd5b50600436106101515760003560e01c80637509a43c116100cd578063b849ffc311610081578063c0dcf33011610066578063c0dcf330146103b9578063d115cac6146103cc578063f5ed83de146103df57600080fd5b8063b849ffc314610385578063b8a8de48146103a657600080fd5b8063945aff34116100b2578063945aff34146103565780639a79ecf01461035f5780639f829fdd1461037257600080fd5b80637509a43c146103305780637cddfa811461034357600080fd5b80633b8e67d8116101245780634d7ae7a8116101095780634d7ae7a81461022e578063651ea943146102555780637503e1b71461026857600080fd5b80633b8e67d8146101dc5780633dea815e1461021b57600080fd5b80631f22d9c01461015657806326f7519a1461017c5780632d822f7a1461019c5780633a9cc8ee146101c7575b600080fd5b610169610164366004612a52565b6103f2565b6040519081526020015b60405180910390f35b61018f61018a366004612a52565b610409565b6040516101739190612ab0565b6101696101aa366004612af2565b601260209081526000928352604080842090915290825290205481565b6101da6101d5366004612b22565b610478565b005b6102037f000000000000000000000000000000000000000000000000000000000000000081565b6040516001600160a01b039091168152602001610173565b6101da610229366004612a52565b610530565b6102037f000000000000000000000000000000000000000000000000000000000000000081565b6101da610263366004612a52565b610a0b565b6102da610276366004612a52565b601060205260009081526040902080546003820154600483015460058401546006850154600786015460088701546009880154600a890154600b90990154979860ff9788169896976001600160a01b0390961696949593949284169391929091168a565b604080519a8b5298151560208b0152978901969096526001600160a01b039094166060880152608087019290925260a0860152151560c085015260e0840152610100830152151561012082015261014001610173565b61018f61033e366004612a52565b610c87565b6101da610351366004612a52565b611066565b610169600f5481565b61016961036d366004612b5d565b611166565b61018f610380366004612a52565b6115fb565b610398610393366004612a52565b611665565b604051610173929190612c0d565b6101696103b4366004612a52565b611919565b6101696103c7366004612c64565b611929565b6101da6103da366004612a52565b611beb565b6101696103ed366004612a52565b61203f565b6004816004811061040257600080fd5b0154905081565b60008181526010602090815260409182902060020180548351818402810184019094528084526060939283018282801561046c57602002820191906000526020600020905b81546001600160a01b0316815260019091019060200180831161044e575b50505050509050919050565b6000828152601060205260409020600b015460ff16156104df5760405162461bcd60e51b815260206004820152601460248201527f746f75726e616d656e7420636f6d706c6574656400000000000000000000000060448201526064015b60405180910390fd5b600082815260106020526040902060050154610506906001600160a01b031633308461204f565b60008281526010602052604081206007018054839290610527908490612cdc565b90915550505050565b60008181526010602052604090206009015461054c9042612cef565b6000828152601060205260409020600a0154106105ab5760405162461bcd60e51b815260206004820152601b60248201527f546f75726e616d656e74206e6f742066696e697368656420796574000000000060448201526064016104d6565b6000818152601060205260409020600b015460ff161561060d5760405162461bcd60e51b815260206004820152601460248201527f546f75726e616d656e7420636f6d706c6574656400000000000000000000000060448201526064016104d6565b61061681612124565b50506000818152601060205260409020600b810180547fffffffffffffffffffffffffffffffffffffffffffffffffffffffffffffff0016600117905560020154606060038290036106cf5760408051600380825260808201909252906020820160608036833701905050905060005b60038110156106c957600181600381106106a2576106a2612d31565b01548282815181106106b6576106b6612d31565b6020908102919091010152600101610686565b506107cc565b6003821180156106e0575060098211155b1561074c5760408051600480825260a08201909252906020820160808036833701905050905060005b60048110156106c9576004816004811061072557610725612d31565b015482828151811061073957610739612d31565b6020908102919091010152600101610709565b60098211801561075d575060198211155b156107cc576040805160078082526101008201909252906020820160e08036833701905050905060005b60078110156107ca57600881600781106107a3576107a3612d31565b01548282815181106107b7576107b7612d31565b6020908102919091010152600101610787565b505b60006107d784610c87565b60008581526010602052604081206005810154600782015460068301546002909301549495506001600160a01b0390911693909161081491612d60565b61081e9190612cdc565b6040517f70a0823100000000000000000000000000000000000000000000000000000000815230600482015290915081906001600160a01b038416906370a0823190602401602060405180830381865afa158015610880573d6000803e3d6000fd5b505050506040513d601f19601f820116820180604052508101906108a49190612d77565b8210156108b3576108b3612d90565b60005b85518161ffff1610156109545760006103e8878361ffff16815181106108de576108de612d31565b6020026020010151856108f19190612d60565b6108fb9190612dbf565b9050801561094b5761093e868361ffff168151811061091c5761091c612d31565b602002602001015182876001600160a01b03166123eb9092919063ffffffff16565b6109488184612cef565b92505b506001016108b6565b506040517fa9059cbb0000000000000000000000000000000000000000000000000000000081526001600160a01b037f0000000000000000000000000000000000000000000000000000000000000000811660048301526024820183905284169063a9059cbb906044016020604051808303816000875af11580156109dd573d6000803e3d6000fd5b505050506040513d601f19601f82011682018060405250810190610a019190612dfa565b5050505050505050565b60008181526010602052604090206008015460ff1615610a6d5760405162461bcd60e51b815260206004820152600f60248201527f616c72656164792073746172746564000000000000000000000000000000000060448201526064016104d6565b60008181526010602052604090206002015460031115610acf5760405162461bcd60e51b815260206004820152601260248201527f6e6f7420656e6f75676820706c6179657273000000000000000000000000000060448201526064016104d6565b6000818152601060205260409020805460029091015414610b58576000818152601060205260409020600901546201518090610b0b9042612cef565b11610b585760405162461bcd60e51b815260206004820152601e60248201527f6d75737420776169742031646179206265666f7265207374617274696e67000060448201526064016104d6565b600081815260106020526040812060080180547fffffffffffffffffffffffffffffffffffffffffffffffffffffffffffffff001660011790555b600082815260116020526040902054811015610c8357600082815260116020526040902080546001600160a01b037f00000000000000000000000000000000000000000000000000000000000000001691633857eb379184908110610bfa57610bfa612d31565b60009182526020909120015460405160e083901b7fffffffff000000000000000000000000000000000000000000000000000000001681526001600160a01b039091166004820152602401600060405180830381600087803b158015610c5f57600080fd5b505af1158015610c73573d6000803e3d6000fd5b505060019092019150610b939050565b5050565b600081815260106020526040902060090154606090610ca69042612cef565b6000838152601060205260409020600a015410610d055760405162461bcd60e51b815260206004820152601b60248201527f546f75726e616d656e74206e6f742066696e697368656420796574000000000060448201526064016104d6565b600082815260106020908152604080832060020180548251818502810185019093528083529192909190830182828015610d6857602002820191906000526020600020905b81546001600160a01b03168152600190910190602001808311610d4a575b505050505090506000815167ffffffffffffffff811115610d8b57610d8b612d02565b604051908082528060200260200182016040528015610dd057816020015b6040805180820190915260008082526020820152815260200190600190039081610da95790505b50905060005b8251811015610e8a576040518060400160405280848381518110610dfc57610dfc612d31565b60200260200101516001600160a01b03168152602001601260008881526020019081526020016000206000868581518110610e3957610e39612d31565b60200260200101516001600160a01b03166001600160a01b0316815260200190815260200160002054815250828281518110610e7757610e77612d31565b6020908102919091010152600101610dd6565b506000805b60018351610e9d9190612cef565b811015610fb7576000915060005b6001828551610eba9190612cef565b610ec49190612cef565b811015610fa85783610ed7826001612cdc565b81518110610ee757610ee7612d31565b602002602001015160200151848281518110610f0557610f05612d31565b6020026020010151602001511015610fa05783610f23826001612cdc565b81518110610f3357610f33612d31565b6020026020010151848281518110610f4d57610f4d612d31565b6020026020010151858381518110610f6757610f67612d31565b6020026020010186846001610f7c9190612cdc565b81518110610f8c57610f8c612d31565b602002602001018290528290525050600192505b600101610eab565b508115610fb757600101610e8f565b506000835167ffffffffffffffff811115610fd457610fd4612d02565b604051908082528060200260200182016040528015610ffd578160200160208202803683370190505b50905060005b835181101561105c5783818151811061101e5761101e612d31565b60200260200101516000015182828151811061103c5761103c612d31565b6001600160a01b0390921660209283029190910190910152600101611003565b5095945050505050565b60008181526010602052604090206008015460ff16156110c85760405162461bcd60e51b815260206004820152601660248201527f546f75726e616d656e7420696e2070726f67726573730000000000000000000060448201526064016104d6565b6110d28133612434565b61111e5760405162461bcd60e51b815260206004820152601c60248201527f6d73672e73656e646572206e6f7420696e20746f75726e616d656e740000000060448201526064016104d6565b600081815260106020526040902060058101546006909101546001600160a01b039091169061114d83336124b8565b6111616001600160a01b03831633836123eb565b505050565b60008084116111b75760405162461bcd60e51b815260206004820152601d60248201527f546f6b656e20616d6f756e74206d75737420626520706f73697469766500000060448201526064016104d6565b600086116112075760405162461bcd60e51b815260206004820181905260248201527f4e756d626572206f662067616d6573206d75737420626520706f73697469766560448201526064016104d6565b61127a6040518061018001604052806000815260200160608152602001606081526020016000151581526020016000815260200160006001600160a01b03168152602001600081526020016000815260200160001515815260200160008152602001600081526020016000151581525090565b888880806020026020016040519081016040528093929190818152602001838360200280828437600092019190915250505050602082015260016060820152821561140f576112d46001600160a01b03871633308861204f565b6000805b8981101561132757338b8b838181106112f3576112f3612d31565b90506020020160208101906113089190612e17565b6001600160a01b03160361131f5760019150611327565b6001016112d8565b5080156113865760408051600180825281830190925260009160208083019080368337019050509050338160008151811061136457611364612d31565b6001600160a01b0390921660209283029190910190910152604083015261140d565b6020820151805133908290611399612d31565b6001600160a01b0392909216602092830291909101820152830181905260408051600180825281830190925260009181602001602082028036833701905050905033816000815181106113ee576113ee612d31565b6001600160a01b03909216602092830291909101909101526040840152505b505b601981602001515111156114655760405162461bcd60e51b815260206004820152601060248201527f546f6f206d616e7920706c61796572730000000000000000000000000000000060448201526064016104d6565b602080820180515183526001600160a01b03881660a084015260c0830187905260808301899052600061010084018190524261012085015261014084018790526101608401819052600f5481526010835260409020835181559051805184936114d59260018501929101906129c0565b50604082015180516114f19160028401916020909101906129c0565b5060608201516003820180547fffffffffffffffffffffffffffffffffffffffffffffffffffffffffffffff009081169215159290921790556080830151600483015560a08301516005830180547fffffffffffffffffffffffff0000000000000000000000000000000000000000166001600160a01b0390921691909117905560c0830151600683015560e0830151600783015561010083015160088301805483169115159190911790556101208301516009830155610140830151600a83015561016090920151600b9091018054909216901515179055600f80549060006115da83612e34565b91905055506001600f546115ee9190612cef565b9998505050505050505050565b60008181526011602090815260409182902080548351818402810184019094528084526060939283018282801561046c576020028201919060005260206000209081546001600160a01b0316815260019091019060200180831161044e5750505050509050919050565b6060806000601060008581526020019081526020016000206002018054806020026020016040519081016040528092919081815260200182805480156116d457602002820191906000526020600020905b81546001600160a01b031681526001909101906020018083116116b6575b505050600087815260116020526040812054845194955093909250905067ffffffffffffffff81111561170957611709612d02565b604051908082528060200260200182016040528015611732578160200160208202803683370190505b50905060005b8281101561190c576000806000807f00000000000000000000000000000000000000000000000000000000000000006001600160a01b031663e9f0dac7601160008e8152602001908152602001600020878154811061179957611799612d31565b60009182526020909120015460405160e083901b7fffffffff000000000000000000000000000000000000000000000000000000001681526001600160a01b039091166004820152602401608060405180830381865afa158015611801573d6000803e3d6000fd5b505050506040513d601f19601f820116820180604052508101906118259190612e6c565b935093509350935060005b88518110156118fb57846001600160a01b031689828151811061185557611855612d31565b60200260200101516001600160a01b031603611896578287828151811061187e5761187e612d31565b602002602001018181516118929190612cdc565b9052505b836001600160a01b03168982815181106118b2576118b2612d31565b60200260200101516001600160a01b0316036118f357818782815181106118db576118db612d31565b602002602001018181516118ef9190612cdc565b9052505b600101611830565b505060019093019250611738915050565b5091959194509092505050565b6008816007811061040257600080fd5b6000601986111561197c5760405162461bcd60e51b815260206004820152601060248201527f546f6f206d616e7920706c61796572730000000000000000000000000000000060448201526064016104d6565b6119916001600160a01b03851633308661204f565b611a046040518061018001604052806000815260200160608152602001606081526020016000151581526020016000815260200160006001600160a01b03168152602001600081526020016000815260200160001515815260200160008152602001600081526020016000151581525090565b604080516001808252818301909252600091602080830190803683370190505090503381600081518110611a3a57611a3a612d31565b6001600160a01b03928316602091820292909201810191909152898452604080850184905260006060860181905292891660a086015260c08501889052608085018a905261010085018390524261012086015261014085018790526101608501839052600f54835260108252909120835181558382015180518593611ac69260018501929101906129c0565b5060408201518051611ae29160028401916020909101906129c0565b5060608201516003820180547fffffffffffffffffffffffffffffffffffffffffffffffffffffffffffffff009081169215159290921790556080830151600483015560a08301516005830180547fffffffffffffffffffffffff0000000000000000000000000000000000000000166001600160a01b0390921691909117905560c0830151600683015560e0830151600783015561010083015160088301805483169115159190911790556101208301516009830155610140830151600a83015561016090920151600b9091018054909216901515179055600f8054906000611bcb83612e34565b91905055506001600f54611bdf9190612cef565b98975050505050505050565b60008181526010602052604090206003015460ff1615611d1957611c0f8133612685565b611c5b5760405162461bcd60e51b815260206004820152600e60248201527f6e6f7420617574686f72697a656400000000000000000000000000000000000060448201526064016104d6565b611c658133612434565b15611cb25760405162461bcd60e51b815260206004820152600e60248201527f616c7265616479204a6f696e656400000000000000000000000000000000000060448201526064016104d6565b60008181526010602052604090206008015460ff1615611d145760405162461bcd60e51b815260206004820152601660248201527f746f75726e616d656e7420696e2070726f67726573730000000000000000000060448201526064016104d6565b611e35565b6000818152601060205260409020600281015490541015611d7c5760405162461bcd60e51b815260206004820152601d60248201527f6d6178206e756d626572206f6620706c6179657273207265616368656400000060448201526064016104d6565b60008181526010602052604090206008015460ff1615611dde5760405162461bcd60e51b815260206004820152601660248201527f746f75726e616d656e7420696e2070726f67726573730000000000000000000060448201526064016104d6565b611de88133612434565b15611e355760405162461bcd60e51b815260206004820152600e60248201527f616c7265616479204a6f696e656400000000000000000000000000000000000060448201526064016104d6565b6000818152601060205260409020600581015460068201546004830154600a909301546001600160a01b03909216929091611e728433308661204f565b60005b600086815260106020526040902060020154811015611fef576000868152601060205260408120600201805483908110611eb157611eb1612d31565b60009182526020822001546040517fe3e9956c0000000000000000000000000000000000000000000000000000000081526001600160a01b03918216600482018190523360248301528983166044830152606482018990526084820188905260a4820187905293507f00000000000000000000000000000000000000000000000000000000000000009091169063e3e9956c9060c4016020604051808303816000875af1158015611f66573d6000803e3d6000fd5b505050506040513d601f19601f82011682018060405250810190611f8a9190612eb4565b60008981526011602090815260408220805460018082018355918452919092200180547fffffffffffffffffffffffff0000000000000000000000000000000000000000166001600160a01b039390931692909217909155929092019150611e759050565b505050600092835250506010602090815260408220600201805460018101825590835291200180547fffffffffffffffffffffffff00000000000000000000000000000000000000001633179055565b6001816003811061040257600080fd5b6040516001600160a01b038085166024830152831660448201526064810182905261211e9085907f23b872dd00000000000000000000000000000000000000000000000000000000906084015b604080517fffffffffffffffffffffffffffffffffffffffffffffffffffffffffffffffe08184030181529190526020810180517bffffffffffffffffffffffffffffffffffffffffffffffffffffffff167fffffffff0000000000000000000000000000000000000000000000000000000090931692909217909152612731565b50505050565b60608060006010600085815260200190815260200160002060020180548060200260200160405190810160405280929190818152602001828054801561219357602002820191906000526020600020905b81546001600160a01b03168152600190910190602001808311612175575b5050506000878152601160205260408120549394509150505b81811015612321576000806000807f00000000000000000000000000000000000000000000000000000000000000006001600160a01b031663e9f0dac7601160008d8152602001908152602001600020878154811061220d5761220d612d31565b60009182526020909120015460405160e083901b7fffffffff000000000000000000000000000000000000000000000000000000001681526001600160a01b039091166004820152602401608060405180830381865afa158015612275573d6000803e3d6000fd5b505050506040513d601f19601f820116820180604052508101906122999190612e6c565b60008e81526012602090815260408083206001600160a01b038816845290915281208054959950939750919550935084926122d5908490612cdc565b909155505060008a81526012602090815260408083206001600160a01b03871684529091528120805483929061230c908490612cdc565b9091555050600190940193506121ac92505050565b506000825167ffffffffffffffff81111561233e5761233e612d02565b604051908082528060200260200182016040528015612367578160200160208202803683370190505b50905060005b835181101561190c5760126000888152602001908152602001600020600085838151811061239d5761239d612d31565b60200260200101516001600160a01b03166001600160a01b03168152602001908152602001600020548282815181106123d8576123d8612d31565b602090810291909101015260010161236d565b6040516001600160a01b0383166024820152604481018290526111619084907fa9059cbb000000000000000000000000000000000000000000000000000000009060640161209c565b6000805b6000848152601060205260409020600201548110156124ac57600084815260106020526040902060020180546001600160a01b03851691908390811061248057612480612d31565b6000918252602090912001546001600160a01b0316036124a45760019150506124b2565b600101612438565b50600090505b92915050565b6000805b60008481526010602052604090206002015481101561252f57600084815260106020526040902060020180546001600160a01b03851691908390811061250457612504612d31565b6000918252602090912001546001600160a01b031603612527576001915061252f565b6001016124bc565b81151560010361211e57600084815260106020526040902060020154811061255957612559612d90565b6000848152601060205260409020600201805461257890600190612cef565b8154811061258857612588612d31565b60009182526020808320909101548683526010909152604090912060020180546001600160a01b0390921691839081106125c4576125c4612d31565b600091825260208083209190910180547fffffffffffffffffffffffff0000000000000000000000000000000000000000166001600160a01b03949094169390931790925585815260109091526040902060020180548061262757612627612ed1565b60008281526020902081017fffffffffffffffffffffffffffffffffffffffffffffffffffffffffffffffff90810180547fffffffffffffffffffffffff000000000000000000000000000000000000000016905501905550505050565b60008281526010602052604081206003015460ff1615156001036127205760005b60008481526010602052604090206001015481101561271a57600084815260106020526040902060010180546001600160a01b0385169190839081106126ee576126ee612d31565b6000918252602090912001546001600160a01b0316036127125760019150506124b2565b6001016126a6565b50612728565b5060016124b2565b50600092915050565b6000612786826040518060400160405280602081526020017f5361666545524332303a206c6f772d6c6576656c2063616c6c206661696c6564815250856001600160a01b03166128199092919063ffffffff16565b90508051600014806127a75750808060200190518101906127a79190612dfa565b6111615760405162461bcd60e51b815260206004820152602a60248201527f5361666545524332303a204552433230206f7065726174696f6e20646964206e60448201527f6f7420737563636565640000000000000000000000000000000000000000000060648201526084016104d6565b60606128288484600085612830565b949350505050565b6060824710156128a85760405162461bcd60e51b815260206004820152602660248201527f416464726573733a20696e73756666696369656e742062616c616e636520666f60448201527f722063616c6c000000000000000000000000000000000000000000000000000060648201526084016104d6565b600080866001600160a01b031685876040516128c49190612f24565b60006040518083038185875af1925050503d8060008114612901576040519150601f19603f3d011682016040523d82523d6000602084013e612906565b606091505b509150915061291787838387612922565b979650505050505050565b6060831561299157825160000361298a576001600160a01b0385163b61298a5760405162461bcd60e51b815260206004820152601d60248201527f416464726573733a2063616c6c20746f206e6f6e2d636f6e747261637400000060448201526064016104d6565b5081612828565b61282883838151156129a65781518083602001fd5b8060405162461bcd60e51b81526004016104d69190612f40565b828054828255906000526020600020908101928215612a2d579160200282015b82811115612a2d57825182547fffffffffffffffffffffffff0000000000000000000000000000000000000000166001600160a01b039091161782556020909201916001909101906129e0565b50612a39929150612a3d565b5090565b5b80821115612a395760008155600101612a3e565b600060208284031215612a6457600080fd5b5035919050565b60008151808452602080850194506020840160005b83811015612aa55781516001600160a01b031687529582019590820190600101612a80565b509495945050505050565b602081526000612ac36020830184612a6b565b9392505050565b6001600160a01b0381168114612adf57600080fd5b50565b8035612aed81612aca565b919050565b60008060408385031215612b0557600080fd5b823591506020830135612b1781612aca565b809150509250929050565b60008060408385031215612b3557600080fd5b50508035926020909101359150565b8015158114612adf57600080fd5b8035612aed81612b44565b600080600080600080600060c0888a031215612b7857600080fd5b873567ffffffffffffffff80821115612b9057600080fd5b818a0191508a601f830112612ba457600080fd5b813581811115612bb357600080fd5b8b60208260051b8501011115612bc857600080fd5b602092830199509750508801359450612be360408901612ae2565b93506060880135925060808801359150612bff60a08901612b52565b905092959891949750929550565b604081526000612c206040830185612a6b565b82810360208481019190915284518083528582019282019060005b81811015612c5757845183529383019391830191600101612c3b565b5090979650505050505050565b600080600080600060a08688031215612c7c57600080fd5b85359450602086013593506040860135612c9581612aca565b94979396509394606081013594506080013592915050565b7f4e487b7100000000000000000000000000000000000000000000000000000000600052601160045260246000fd5b808201808211156124b2576124b2612cad565b818103818111156124b2576124b2612cad565b7f4e487b7100000000000000000000000000000000000000000000000000000000600052604160045260246000fd5b7f4e487b7100000000000000000000000000000000000000000000000000000000600052603260045260246000fd5b80820281158282048414176124b2576124b2612cad565b600060208284031215612d8957600080fd5b5051919050565b7f4e487b7100000000000000000000000000000000000000000000000000000000600052600160045260246000fd5b600082612df5577f4e487b7100000000000000000000000000000000000000000000000000000000600052601260045260246000fd5b500490565b600060208284031215612e0c57600080fd5b8151612ac381612b44565b600060208284031215612e2957600080fd5b8135612ac381612aca565b60007fffffffffffffffffffffffffffffffffffffffffffffffffffffffffffffffff8203612e6557612e65612cad565b5060010190565b60008060008060808587031215612e8257600080fd5b8451612e8d81612aca565b6020860151909450612e9e81612aca565b6040860151606090960151949790965092505050565b600060208284031215612ec657600080fd5b8151612ac381612aca565b7f4e487b7100000000000000000000000000000000000000000000000000000000600052603160045260246000fd5b60005b83811015612f1b578181015183820152602001612f03565b50506000910152565b60008251612f36818460208701612f00565b9190910192915050565b6020815260008251806020840152612f5f816040850160208701612f00565b601f017fffffffffffffffffffffffffffffffffffffffffffffffffffffffffffffffe016919091016040019291505056fea164736f6c6343000817000a",
  "linkReferences": {},
  "deployedLinkReferences": {}
}