{
  "_format": "hh-sol-artifact-1",
  "contractName": "ChessFishTournament",
  "sourceName": "contracts/Tournament.sol",
  "abi": [
    {
      "inputs": [
        {
          "internalType": "address",
          "name": "_chessWager",
          "type": "address"
        },
        {
          "internalType": "address",
          "name": "_paymentSplitter",
          "type": "address"
        }
      ],
      "stateMutability": "nonpayable",
      "type": "constructor"
    },
    {
      "inputs": [],
      "name": "ChessWagerAddress",
      "outputs": [
        {
          "internalType": "address",
          "name": "",
          "type": "address"
        }
      ],
      "stateMutability": "view",
      "type": "function"
    },
    {
      "inputs": [],
      "name": "PaymentSplitter",
      "outputs": [
        {
          "internalType": "address",
          "name": "",
          "type": "address"
        }
      ],
      "stateMutability": "view",
      "type": "function"
    },
    {
      "inputs": [
        {
          "internalType": "uint256",
          "name": "numberOfPlayers",
          "type": "uint256"
        },
        {
          "internalType": "uint256",
          "name": "numberOfGames",
          "type": "uint256"
        },
        {
          "internalType": "address",
          "name": "token",
          "type": "address"
        },
        {
          "internalType": "uint256",
          "name": "tokenAmount",
          "type": "uint256"
        },
        {
          "internalType": "uint256",
          "name": "timeLimit",
          "type": "uint256"
        }
      ],
      "name": "createTournament",
      "outputs": [
        {
          "internalType": "uint256",
          "name": "",
          "type": "uint256"
        }
      ],
      "stateMutability": "nonpayable",
      "type": "function"
    },
    {
      "inputs": [
        {
          "internalType": "address[]",
          "name": "specificPlayers",
          "type": "address[]"
        },
        {
          "internalType": "uint256",
          "name": "numberOfGames",
          "type": "uint256"
        },
        {
          "internalType": "address",
          "name": "token",
          "type": "address"
        },
        {
          "internalType": "uint256",
          "name": "tokenAmount",
          "type": "uint256"
        },
        {
          "internalType": "uint256",
          "name": "timeLimit",
          "type": "uint256"
        },
        {
          "internalType": "bool",
          "name": "shouldJoin",
          "type": "bool"
        }
      ],
      "name": "createTournamentWithSpecificPlayers",
      "outputs": [
        {
          "internalType": "uint256",
          "name": "",
          "type": "uint256"
        }
      ],
      "stateMutability": "nonpayable",
      "type": "function"
    },
    {
      "inputs": [
        {
          "internalType": "uint256",
          "name": "tournamentID",
          "type": "uint256"
        },
        {
          "internalType": "uint256",
          "name": "amount",
          "type": "uint256"
        }
      ],
      "name": "depositToTournament",
      "outputs": [],
      "stateMutability": "nonpayable",
      "type": "function"
    },
    {
      "inputs": [
        {
          "internalType": "uint256",
          "name": "tournamentID",
          "type": "uint256"
        }
      ],
      "name": "exitTournament",
      "outputs": [],
      "stateMutability": "nonpayable",
      "type": "function"
    },
    {
      "inputs": [
        {
          "internalType": "uint256",
          "name": "tournamentID",
          "type": "uint256"
        }
      ],
      "name": "getAuthorizedPlayers",
      "outputs": [
        {
          "internalType": "address[]",
          "name": "",
          "type": "address[]"
        }
      ],
      "stateMutability": "view",
      "type": "function"
    },
    {
      "inputs": [
        {
          "internalType": "uint256",
          "name": "tournamentID",
          "type": "uint256"
        }
      ],
      "name": "getPlayersSortedByWins",
      "outputs": [
        {
          "internalType": "address[]",
          "name": "",
          "type": "address[]"
        }
      ],
      "stateMutability": "view",
      "type": "function"
    },
    {
      "inputs": [
        {
          "internalType": "uint256",
          "name": "tournamentID",
          "type": "uint256"
        }
      ],
      "name": "getTournamentPlayers",
      "outputs": [
        {
          "internalType": "address[]",
          "name": "",
          "type": "address[]"
        }
      ],
      "stateMutability": "view",
      "type": "function"
    },
    {
      "inputs": [
        {
          "internalType": "uint256",
          "name": "tournamentID",
          "type": "uint256"
        }
      ],
      "name": "getTournamentWagerAddresses",
      "outputs": [
        {
          "internalType": "address[]",
          "name": "",
          "type": "address[]"
        }
      ],
      "stateMutability": "view",
      "type": "function"
    },
    {
      "inputs": [
        {
          "internalType": "uint256",
          "name": "tournamentID",
          "type": "uint256"
        }
      ],
      "name": "joinTournament",
      "outputs": [],
      "stateMutability": "nonpayable",
      "type": "function"
    },
    {
      "inputs": [
        {
          "internalType": "uint256",
          "name": "",
          "type": "uint256"
        }
      ],
      "name": "payoutProfile10_25",
      "outputs": [
        {
          "internalType": "uint256",
          "name": "",
          "type": "uint256"
        }
      ],
      "stateMutability": "view",
      "type": "function"
    },
    {
      "inputs": [
        {
          "internalType": "uint256",
          "name": "",
          "type": "uint256"
        }
      ],
      "name": "payoutProfile3",
      "outputs": [
        {
          "internalType": "uint256",
          "name": "",
          "type": "uint256"
        }
      ],
      "stateMutability": "view",
      "type": "function"
    },
    {
      "inputs": [
        {
          "internalType": "uint256",
          "name": "",
          "type": "uint256"
        }
      ],
      "name": "payoutProfile4_9",
      "outputs": [
        {
          "internalType": "uint256",
          "name": "",
          "type": "uint256"
        }
      ],
      "stateMutability": "view",
      "type": "function"
    },
    {
      "inputs": [
        {
          "internalType": "uint256",
          "name": "tournamentID",
          "type": "uint256"
        }
      ],
      "name": "payoutTournament",
      "outputs": [],
      "stateMutability": "nonpayable",
      "type": "function"
    },
    {
      "inputs": [
        {
          "internalType": "uint256",
          "name": "tournamentID",
          "type": "uint256"
        }
      ],
      "name": "startTournament",
      "outputs": [],
      "stateMutability": "nonpayable",
      "type": "function"
    },
    {
      "inputs": [],
      "name": "tournamentNonce",
      "outputs": [
        {
          "internalType": "uint256",
          "name": "",
          "type": "uint256"
        }
      ],
      "stateMutability": "view",
      "type": "function"
    },
    {
      "inputs": [
        {
          "internalType": "uint256",
          "name": "",
          "type": "uint256"
        },
        {
          "internalType": "address",
          "name": "",
          "type": "address"
        }
      ],
      "name": "tournamentWins",
      "outputs": [
        {
          "internalType": "uint256",
          "name": "",
          "type": "uint256"
        }
      ],
      "stateMutability": "view",
      "type": "function"
    },
    {
      "inputs": [
        {
          "internalType": "uint256",
          "name": "",
          "type": "uint256"
        }
      ],
      "name": "tournaments",
      "outputs": [
        {
          "internalType": "uint256",
          "name": "numberOfPlayers",
          "type": "uint256"
        },
        {
          "internalType": "bool",
          "name": "isByInvite",
          "type": "bool"
        },
        {
          "internalType": "uint256",
          "name": "numberOfGames",
          "type": "uint256"
        },
        {
          "internalType": "address",
          "name": "token",
          "type": "address"
        },
        {
          "internalType": "uint256",
          "name": "tokenAmount",
          "type": "uint256"
        },
        {
          "internalType": "uint256",
          "name": "prizePool",
          "type": "uint256"
        },
        {
          "internalType": "bool",
          "name": "isInProgress",
          "type": "bool"
        },
        {
          "internalType": "uint256",
          "name": "startTime",
          "type": "uint256"
        },
        {
          "internalType": "uint256",
          "name": "timeLimit",
          "type": "uint256"
        },
        {
          "internalType": "bool",
          "name": "isComplete",
          "type": "bool"
        }
      ],
      "stateMutability": "view",
      "type": "function"
    },
    {
      "inputs": [
        {
          "internalType": "uint256",
          "name": "tournamentID",
          "type": "uint256"
        }
      ],
      "name": "viewTournamentScore",
      "outputs": [
        {
          "internalType": "address[]",
          "name": "",
          "type": "address[]"
        },
        {
          "internalType": "uint256[]",
          "name": "",
          "type": "uint256[]"
        }
      ],
      "stateMutability": "view",
      "type": "function"
    }
  ],
  "bytecode": "0x604660005561010060405261023060c090815261017260e05262000028906001906002620000f4565b506040805160808101825261014a8152610122602082015260b491810191909152608260608201526200005f90600490816200013d565b506040805160e08101825261016d815260e660208201526087918101919091526064606082015260326080820152601960a0820181905260c0820152620000ab90600890600762000173565b50348015620000b957600080fd5b506040516200336538038062003365833981016040819052620000dc91620001dd565b6001600160a01b039182166080521660a05262000215565b82600381019282156200012b579160200282015b828111156200012b578251829061ffff1690559160200191906001019062000108565b5062000139929150620001a9565b5090565b82600481019282156200012b57916020028201828111156200012b578251829061ffff1690559160200191906001019062000108565b82600781019282156200012b57916020028201828111156200012b578251829061ffff1690559160200191906001019062000108565b5b80821115620001395760008155600101620001aa565b80516001600160a01b0381168114620001d857600080fd5b919050565b60008060408385031215620001f157600080fd5b620001fc83620001c0565b91506200020c60208401620001c0565b90509250929050565b60805160a0516131076200025e6000396000818161024e01526109c00152600081816101fc01528181610bfe0152818161184401528181612084015261232501526131076000f3fe608060405234801561001057600080fd5b506004361061016c5760003560e01c80637cddfa81116100cd578063b8a8de4811610081578063ccaeb84b11610066578063ccaeb84b146103e7578063d115cac6146103fa578063f5ed83de1461040d57600080fd5b8063b8a8de48146103c1578063c0dcf330146103d457600080fd5b80639a79ecf0116100b25780639a79ecf01461037a5780639f829fdd1461038d578063b849ffc3146103a057600080fd5b80637cddfa811461035e578063945aff341461037157600080fd5b80633dea815e11610124578063651ea94311610109578063651ea943146102705780637503e1b7146102835780637509a43c1461034b57600080fd5b80633dea815e146102365780634d7ae7a81461024957600080fd5b80632d822f7a116101555780632d822f7a146101b75780633a9cc8ee146101e25780633b8e67d8146101f757600080fd5b80631f22d9c01461017157806326f7519a14610197575b600080fd5b61018461017f366004612bbb565b610420565b6040519081526020015b60405180910390f35b6101aa6101a5366004612bbb565b610437565b60405161018e9190612c19565b6101846101c5366004612c5b565b601260209081526000928352604080842090915290825290205481565b6101f56101f0366004612c8b565b6104a6565b005b61021e7f000000000000000000000000000000000000000000000000000000000000000081565b6040516001600160a01b03909116815260200161018e565b6101f5610244366004612bbb565b61055e565b61021e7f000000000000000000000000000000000000000000000000000000000000000081565b6101f561027e366004612bbb565b610a46565b6102f5610291366004612bbb565b601060205260009081526040902080546003820154600483015460058401546006850154600786015460088701546009880154600a890154600b90990154979860ff9788169896976001600160a01b0390961696949593949284169391929091168a565b604080519a8b5298151560208b0152978901969096526001600160a01b039094166060880152608087019290925260a0860152151560c085015260e084015261010083015215156101208201526101400161018e565b6101aa610359366004612bbb565b610cc2565b6101f561036c366004612bbb565b6110a1565b610184600f5481565b610184610388366004612cc6565b6111a1565b6101aa61039b366004612bbb565b6116f7565b6103b36103ae366004612bbb565b611761565b60405161018e929190612d76565b6101846103cf366004612bbb565b611a15565b6101846103e2366004612dcd565b611a25565b6101aa6103f5366004612bbb565b611ce7565b6101f5610408366004612bbb565b611d54565b61018461041b366004612bbb565b6121a8565b6004816004811061043057600080fd5b0154905081565b60008181526010602090815260409182902060020180548351818402810184019094528084526060939283018282801561049a57602002820191906000526020600020905b81546001600160a01b0316815260019091019060200180831161047c575b50505050509050919050565b6000828152601060205260409020600b015460ff161561050d5760405162461bcd60e51b815260206004820152601460248201527f746f75726e616d656e7420636f6d706c6574656400000000000000000000000060448201526064015b60405180910390fd5b600082815260106020526040902060050154610534906001600160a01b03163330846121b8565b60008281526010602052604081206007018054839290610555908490612e45565b90915550505050565b60008181526010602052604090206009015461057a9042612e58565b6000828152601060205260409020600a01546105999062015180612e45565b106105e65760405162461bcd60e51b815260206004820152601b60248201527f546f75726e616d656e74206e6f742066696e69736865642079657400000000006044820152606401610504565b6000818152601060205260409020600b015460ff16156106485760405162461bcd60e51b815260206004820152601460248201527f546f75726e616d656e7420636f6d706c657465640000000000000000000000006044820152606401610504565b6106518161228d565b50506000818152601060205260409020600b810180547fffffffffffffffffffffffffffffffffffffffffffffffffffffffffffffff00166001179055600201546060600382900361070a5760408051600380825260808201909252906020820160608036833701905050905060005b600381101561070457600181600381106106dd576106dd612e9a565b01548282815181106106f1576106f1612e9a565b60209081029190910101526001016106c1565b50610807565b60038211801561071b575060098211155b156107875760408051600480825260a08201909252906020820160808036833701905050905060005b6004811015610704576004816004811061076057610760612e9a565b015482828151811061077457610774612e9a565b6020908102919091010152600101610744565b600982118015610798575060198211155b15610807576040805160078082526101008201909252906020820160e08036833701905050905060005b600781101561080557600881600781106107de576107de612e9a565b01548282815181106107f2576107f2612e9a565b60209081029190910101526001016107c2565b505b600061081284610cc2565b60008581526010602052604081206005810154600782015460068301546002909301549495506001600160a01b0390911693909161084f91612ec9565b6108599190612e45565b6040517f70a0823100000000000000000000000000000000000000000000000000000000815230600482015290915081906001600160a01b038416906370a0823190602401602060405180830381865afa1580156108bb573d6000803e3d6000fd5b505050506040513d601f19601f820116820180604052508101906108df9190612ee0565b8210156108ee576108ee612ef9565b60005b85518161ffff16101561098f5760006103e8878361ffff168151811061091957610919612e9a565b60200260200101518561092c9190612ec9565b6109369190612f28565b9050801561098657610979868361ffff168151811061095757610957612e9a565b602002602001015182876001600160a01b03166125549092919063ffffffff16565b6109838184612e58565b92505b506001016108f1565b506040517fa9059cbb0000000000000000000000000000000000000000000000000000000081526001600160a01b037f0000000000000000000000000000000000000000000000000000000000000000811660048301526024820183905284169063a9059cbb906044016020604051808303816000875af1158015610a18573d6000803e3d6000fd5b505050506040513d601f19601f82011682018060405250810190610a3c9190612f63565b5050505050505050565b60008181526010602052604090206008015460ff1615610aa85760405162461bcd60e51b815260206004820152600f60248201527f616c7265616479207374617274656400000000000000000000000000000000006044820152606401610504565b60008181526010602052604090206002015460031115610b0a5760405162461bcd60e51b815260206004820152601260248201527f6e6f7420656e6f75676820706c617965727300000000000000000000000000006044820152606401610504565b6000818152601060205260409020805460029091015414610b93576000818152601060205260409020600901546201518090610b469042612e58565b11610b935760405162461bcd60e51b815260206004820152601e60248201527f6d75737420776169742031646179206265666f7265207374617274696e6700006044820152606401610504565b600081815260106020526040812060080180547fffffffffffffffffffffffffffffffffffffffffffffffffffffffffffffff001660011790555b600082815260116020526040902054811015610cbe57600082815260116020526040902080546001600160a01b037f00000000000000000000000000000000000000000000000000000000000000001691633857eb379184908110610c3557610c35612e9a565b60009182526020909120015460405160e083901b7fffffffff000000000000000000000000000000000000000000000000000000001681526001600160a01b039091166004820152602401600060405180830381600087803b158015610c9a57600080fd5b505af1158015610cae573d6000803e3d6000fd5b505060019092019150610bce9050565b5050565b600081815260106020526040902060090154606090610ce19042612e58565b6000838152601060205260409020600a015410610d405760405162461bcd60e51b815260206004820152601b60248201527f546f75726e616d656e74206e6f742066696e69736865642079657400000000006044820152606401610504565b600082815260106020908152604080832060020180548251818502810185019093528083529192909190830182828015610da357602002820191906000526020600020905b81546001600160a01b03168152600190910190602001808311610d85575b505050505090506000815167ffffffffffffffff811115610dc657610dc6612e6b565b604051908082528060200260200182016040528015610e0b57816020015b6040805180820190915260008082526020820152815260200190600190039081610de45790505b50905060005b8251811015610ec5576040518060400160405280848381518110610e3757610e37612e9a565b60200260200101516001600160a01b03168152602001601260008881526020019081526020016000206000868581518110610e7457610e74612e9a565b60200260200101516001600160a01b03166001600160a01b0316815260200190815260200160002054815250828281518110610eb257610eb2612e9a565b6020908102919091010152600101610e11565b506000805b60018351610ed89190612e58565b811015610ff2576000915060005b6001828551610ef59190612e58565b610eff9190612e58565b811015610fe35783610f12826001612e45565b81518110610f2257610f22612e9a565b602002602001015160200151848281518110610f4057610f40612e9a565b6020026020010151602001511015610fdb5783610f5e826001612e45565b81518110610f6e57610f6e612e9a565b6020026020010151848281518110610f8857610f88612e9a565b6020026020010151858381518110610fa257610fa2612e9a565b6020026020010186846001610fb79190612e45565b81518110610fc757610fc7612e9a565b602002602001018290528290525050600192505b600101610ee6565b508115610ff257600101610eca565b506000835167ffffffffffffffff81111561100f5761100f612e6b565b604051908082528060200260200182016040528015611038578160200160208202803683370190505b50905060005b83518110156110975783818151811061105957611059612e9a565b60200260200101516000015182828151811061107757611077612e9a565b6001600160a01b039092166020928302919091019091015260010161103e565b5095945050505050565b60008181526010602052604090206008015460ff16156111035760405162461bcd60e51b815260206004820152601660248201527f546f75726e616d656e7420696e2070726f6772657373000000000000000000006044820152606401610504565b61110d813361259d565b6111595760405162461bcd60e51b815260206004820152601c60248201527f6d73672e73656e646572206e6f7420696e20746f75726e616d656e74000000006044820152606401610504565b600081815260106020526040902060058101546006909101546001600160a01b03909116906111888333612621565b61119c6001600160a01b0383163383612554565b505050565b60008084116111f25760405162461bcd60e51b815260206004820152601d60248201527f546f6b656e20616d6f756e74206d75737420626520706f7369746976650000006044820152606401610504565b600086116112425760405162461bcd60e51b815260206004820181905260248201527f4e756d626572206f662067616d6573206d75737420626520706f7369746976656044820152606401610504565b6112b56040518061018001604052806000815260200160608152602001606081526020016000151581526020016000815260200160006001600160a01b03168152602001600081526020016000815260200160001515815260200160008152602001600081526020016000151581525090565b8888808060200260200160405190810160405280939291908181526020018383602002808284376000920182905250602086019490945250506001606084015250805b8981101561134b57338b8b8381811061131357611313612e9a565b90506020020160208101906113289190612f80565b6001600160a01b03160361134357600191506001945061134b565b6001016112f8565b50831561150a576113676001600160a01b0388163330896121b8565b80156113c5576040805160018082528183019092526000916020808301908036833701905050905033816000815181106113a3576113a3612e9a565b6001600160a01b0390921660209283029190910190910152604083015261150a565b600082602001515160016113d99190612e45565b67ffffffffffffffff8111156113f1576113f1612e6b565b60405190808252806020026020018201604052801561141a578160200160208202803683370190505b50905060005b83602001515181101561147d578360200151818151811061144357611443612e9a565b602002602001015182828151811061145d5761145d612e9a565b6001600160a01b0390921660209283029190910190910152600101611420565b5033818460200151518151811061149657611496612e9a565b6001600160a01b0392909216602092830291909101820152830181905260408051600180825281830190925260009181602001602082028036833701905050905033816000815181106114eb576114eb612e9a565b6001600160a01b03909216602092830291909101909101526040840152505b601982602001515111156115605760405162461bcd60e51b815260206004820152601060248201527f546f6f206d616e7920706c6179657273000000000000000000000000000000006044820152606401610504565b602080830180515184526001600160a01b03891660a085015260c08401889052608084018a9052600061010085018190524261012086015261014085018890526101608501819052600f5481526010835260409020845181559051805185936115d0926001850192910190612b29565b50604082015180516115ec916002840191602090910190612b29565b5060608201516003820180547fffffffffffffffffffffffffffffffffffffffffffffffffffffffffffffff009081169215159290921790556080830151600483015560a08301516005830180547fffffffffffffffffffffffff0000000000000000000000000000000000000000166001600160a01b0390921691909117905560c0830151600683015560e0830151600783015561010083015160088301805483169115159190911790556101208301516009830155610140830151600a83015561016090920151600b9091018054909216901515179055600f80549060006116d583612f9d565b91905055506001600f546116e99190612e58565b9a9950505050505050505050565b60008181526011602090815260409182902080548351818402810184019094528084526060939283018282801561049a576020028201919060005260206000209081546001600160a01b0316815260019091019060200180831161047c5750505050509050919050565b6060806000601060008581526020019081526020016000206002018054806020026020016040519081016040528092919081815260200182805480156117d057602002820191906000526020600020905b81546001600160a01b031681526001909101906020018083116117b2575b505050600087815260116020526040812054845194955093909250905067ffffffffffffffff81111561180557611805612e6b565b60405190808252806020026020018201604052801561182e578160200160208202803683370190505b50905060005b82811015611a08576000806000807f00000000000000000000000000000000000000000000000000000000000000006001600160a01b031663e9f0dac7601160008e8152602001908152602001600020878154811061189557611895612e9a565b60009182526020909120015460405160e083901b7fffffffff000000000000000000000000000000000000000000000000000000001681526001600160a01b039091166004820152602401608060405180830381865afa1580156118fd573d6000803e3d6000fd5b505050506040513d601f19601f820116820180604052508101906119219190612fd5565b935093509350935060005b88518110156119f757846001600160a01b031689828151811061195157611951612e9a565b60200260200101516001600160a01b031603611992578287828151811061197a5761197a612e9a565b6020026020010181815161198e9190612e45565b9052505b836001600160a01b03168982815181106119ae576119ae612e9a565b60200260200101516001600160a01b0316036119ef57818782815181106119d7576119d7612e9a565b602002602001018181516119eb9190612e45565b9052505b60010161192c565b505060019093019250611834915050565b5091959194509092505050565b6008816007811061043057600080fd5b60006019861115611a785760405162461bcd60e51b815260206004820152601060248201527f546f6f206d616e7920706c6179657273000000000000000000000000000000006044820152606401610504565b611a8d6001600160a01b0385163330866121b8565b611b006040518061018001604052806000815260200160608152602001606081526020016000151581526020016000815260200160006001600160a01b03168152602001600081526020016000815260200160001515815260200160008152602001600081526020016000151581525090565b604080516001808252818301909252600091602080830190803683370190505090503381600081518110611b3657611b36612e9a565b6001600160a01b03928316602091820292909201810191909152898452604080850184905260006060860181905292891660a086015260c08501889052608085018a905261010085018390524261012086015261014085018790526101608501839052600f54835260108252909120835181558382015180518593611bc2926001850192910190612b29565b5060408201518051611bde916002840191602090910190612b29565b5060608201516003820180547fffffffffffffffffffffffffffffffffffffffffffffffffffffffffffffff009081169215159290921790556080830151600483015560a08301516005830180547fffffffffffffffffffffffff0000000000000000000000000000000000000000166001600160a01b0390921691909117905560c0830151600683015560e0830151600783015561010083015160088301805483169115159190911790556101208301516009830155610140830151600a83015561016090920151600b9091018054909216901515179055600f8054906000611cc783612f9d565b91905055506001600f54611cdb9190612e58565b98975050505050505050565b60008181526010602090815260409182902060010180548351818402810184019094528084526060939283018282801561049a576020028201919060005260206000209081546001600160a01b0316815260019091019060200180831161047c5750505050509050919050565b60008181526010602052604090206003015460ff1615611e8257611d7881336127ee565b611dc45760405162461bcd60e51b815260206004820152600e60248201527f6e6f7420617574686f72697a65640000000000000000000000000000000000006044820152606401610504565b611dce813361259d565b15611e1b5760405162461bcd60e51b815260206004820152600e60248201527f616c7265616479204a6f696e65640000000000000000000000000000000000006044820152606401610504565b60008181526010602052604090206008015460ff1615611e7d5760405162461bcd60e51b815260206004820152601660248201527f746f75726e616d656e7420696e2070726f6772657373000000000000000000006044820152606401610504565b611f9e565b6000818152601060205260409020600281015490541015611ee55760405162461bcd60e51b815260206004820152601d60248201527f6d6178206e756d626572206f6620706c617965727320726561636865640000006044820152606401610504565b60008181526010602052604090206008015460ff1615611f475760405162461bcd60e51b815260206004820152601660248201527f746f75726e616d656e7420696e2070726f6772657373000000000000000000006044820152606401610504565b611f51813361259d565b15611f9e5760405162461bcd60e51b815260206004820152600e60248201527f616c7265616479204a6f696e65640000000000000000000000000000000000006044820152606401610504565b6000818152601060205260409020600581015460068201546004830154600a909301546001600160a01b03909216929091611fdb843330866121b8565b60005b60008681526010602052604090206002015481101561215857600086815260106020526040812060020180548390811061201a5761201a612e9a565b60009182526020822001546040517fe3e9956c0000000000000000000000000000000000000000000000000000000081526001600160a01b03918216600482018190523360248301528983166044830152606482018990526084820188905260a4820187905293507f00000000000000000000000000000000000000000000000000000000000000009091169063e3e9956c9060c4016020604051808303816000875af11580156120cf573d6000803e3d6000fd5b505050506040513d601f19601f820116820180604052508101906120f3919061301d565b60008981526011602090815260408220805460018082018355918452919092200180547fffffffffffffffffffffffff0000000000000000000000000000000000000000166001600160a01b039390931692909217909155929092019150611fde9050565b505050600092835250506010602090815260408220600201805460018101825590835291200180547fffffffffffffffffffffffff00000000000000000000000000000000000000001633179055565b6001816003811061043057600080fd5b6040516001600160a01b03808516602483015283166044820152606481018290526122879085907f23b872dd00000000000000000000000000000000000000000000000000000000906084015b604080517fffffffffffffffffffffffffffffffffffffffffffffffffffffffffffffffe08184030181529190526020810180517bffffffffffffffffffffffffffffffffffffffffffffffffffffffff167fffffffff000000000000000000000000000000000000000000000000000000009093169290921790915261289a565b50505050565b6060806000601060008581526020019081526020016000206002018054806020026020016040519081016040528092919081815260200182805480156122fc57602002820191906000526020600020905b81546001600160a01b031681526001909101906020018083116122de575b5050506000878152601160205260408120549394509150505b8181101561248a576000806000807f00000000000000000000000000000000000000000000000000000000000000006001600160a01b031663e9f0dac7601160008d8152602001908152602001600020878154811061237657612376612e9a565b60009182526020909120015460405160e083901b7fffffffff000000000000000000000000000000000000000000000000000000001681526001600160a01b039091166004820152602401608060405180830381865afa1580156123de573d6000803e3d6000fd5b505050506040513d601f19601f820116820180604052508101906124029190612fd5565b60008e81526012602090815260408083206001600160a01b0388168452909152812080549599509397509195509350849261243e908490612e45565b909155505060008a81526012602090815260408083206001600160a01b038716845290915281208054839290612475908490612e45565b90915550506001909401935061231592505050565b506000825167ffffffffffffffff8111156124a7576124a7612e6b565b6040519080825280602002602001820160405280156124d0578160200160208202803683370190505b50905060005b8351811015611a085760126000888152602001908152602001600020600085838151811061250657612506612e9a565b60200260200101516001600160a01b03166001600160a01b031681526020019081526020016000205482828151811061254157612541612e9a565b60209081029190910101526001016124d6565b6040516001600160a01b03831660248201526044810182905261119c9084907fa9059cbb0000000000000000000000000000000000000000000000000000000090606401612205565b6000805b60008481526010602052604090206002015481101561261557600084815260106020526040902060020180546001600160a01b0385169190839081106125e9576125e9612e9a565b6000918252602090912001546001600160a01b03160361260d57600191505061261b565b6001016125a1565b50600090505b92915050565b6000805b60008481526010602052604090206002015481101561269857600084815260106020526040902060020180546001600160a01b03851691908390811061266d5761266d612e9a565b6000918252602090912001546001600160a01b0316036126905760019150612698565b600101612625565b8115156001036122875760008481526010602052604090206002015481106126c2576126c2612ef9565b600084815260106020526040902060020180546126e190600190612e58565b815481106126f1576126f1612e9a565b60009182526020808320909101548683526010909152604090912060020180546001600160a01b03909216918390811061272d5761272d612e9a565b600091825260208083209190910180547fffffffffffffffffffffffff0000000000000000000000000000000000000000166001600160a01b0394909416939093179092558581526010909152604090206002018054806127905761279061303a565b60008281526020902081017fffffffffffffffffffffffffffffffffffffffffffffffffffffffffffffffff90810180547fffffffffffffffffffffffff000000000000000000000000000000000000000016905501905550505050565b60008281526010602052604081206003015460ff1615156001036128895760005b60008481526010602052604090206001015481101561288357600084815260106020526040902060010180546001600160a01b03851691908390811061285757612857612e9a565b6000918252602090912001546001600160a01b03160361287b57600191505061261b565b60010161280f565b50612891565b50600161261b565b50600092915050565b60006128ef826040518060400160405280602081526020017f5361666545524332303a206c6f772d6c6576656c2063616c6c206661696c6564815250856001600160a01b03166129829092919063ffffffff16565b90508051600014806129105750808060200190518101906129109190612f63565b61119c5760405162461bcd60e51b815260206004820152602a60248201527f5361666545524332303a204552433230206f7065726174696f6e20646964206e60448201527f6f742073756363656564000000000000000000000000000000000000000000006064820152608401610504565b60606129918484600085612999565b949350505050565b606082471015612a115760405162461bcd60e51b815260206004820152602660248201527f416464726573733a20696e73756666696369656e742062616c616e636520666f60448201527f722063616c6c00000000000000000000000000000000000000000000000000006064820152608401610504565b600080866001600160a01b03168587604051612a2d919061308d565b60006040518083038185875af1925050503d8060008114612a6a576040519150601f19603f3d011682016040523d82523d6000602084013e612a6f565b606091505b5091509150612a8087838387612a8b565b979650505050505050565b60608315612afa578251600003612af3576001600160a01b0385163b612af35760405162461bcd60e51b815260206004820152601d60248201527f416464726573733a2063616c6c20746f206e6f6e2d636f6e74726163740000006044820152606401610504565b5081612991565b6129918383815115612b0f5781518083602001fd5b8060405162461bcd60e51b815260040161050491906130a9565b828054828255906000526020600020908101928215612b96579160200282015b82811115612b9657825182547fffffffffffffffffffffffff0000000000000000000000000000000000000000166001600160a01b03909116178255602090920191600190910190612b49565b50612ba2929150612ba6565b5090565b5b80821115612ba25760008155600101612ba7565b600060208284031215612bcd57600080fd5b5035919050565b60008151808452602080850194506020840160005b83811015612c0e5781516001600160a01b031687529582019590820190600101612be9565b509495945050505050565b602081526000612c2c6020830184612bd4565b9392505050565b6001600160a01b0381168114612c4857600080fd5b50565b8035612c5681612c33565b919050565b60008060408385031215612c6e57600080fd5b823591506020830135612c8081612c33565b809150509250929050565b60008060408385031215612c9e57600080fd5b50508035926020909101359150565b8015158114612c4857600080fd5b8035612c5681612cad565b600080600080600080600060c0888a031215612ce157600080fd5b873567ffffffffffffffff80821115612cf957600080fd5b818a0191508a601f830112612d0d57600080fd5b813581811115612d1c57600080fd5b8b60208260051b8501011115612d3157600080fd5b602092830199509750508801359450612d4c60408901612c4b565b93506060880135925060808801359150612d6860a08901612cbb565b905092959891949750929550565b604081526000612d896040830185612bd4565b82810360208481019190915284518083528582019282019060005b81811015612dc057845183529383019391830191600101612da4565b5090979650505050505050565b600080600080600060a08688031215612de557600080fd5b85359450602086013593506040860135612dfe81612c33565b94979396509394606081013594506080013592915050565b7f4e487b7100000000000000000000000000000000000000000000000000000000600052601160045260246000fd5b8082018082111561261b5761261b612e16565b8181038181111561261b5761261b612e16565b7f4e487b7100000000000000000000000000000000000000000000000000000000600052604160045260246000fd5b7f4e487b7100000000000000000000000000000000000000000000000000000000600052603260045260246000fd5b808202811582820484141761261b5761261b612e16565b600060208284031215612ef257600080fd5b5051919050565b7f4e487b7100000000000000000000000000000000000000000000000000000000600052600160045260246000fd5b600082612f5e577f4e487b7100000000000000000000000000000000000000000000000000000000600052601260045260246000fd5b500490565b600060208284031215612f7557600080fd5b8151612c2c81612cad565b600060208284031215612f9257600080fd5b8135612c2c81612c33565b60007fffffffffffffffffffffffffffffffffffffffffffffffffffffffffffffffff8203612fce57612fce612e16565b5060010190565b60008060008060808587031215612feb57600080fd5b8451612ff681612c33565b602086015190945061300781612c33565b6040860151606090960151949790965092505050565b60006020828403121561302f57600080fd5b8151612c2c81612c33565b7f4e487b7100000000000000000000000000000000000000000000000000000000600052603160045260246000fd5b60005b8381101561308457818101518382015260200161306c565b50506000910152565b6000825161309f818460208701613069565b9190910192915050565b60208152600082518060208401526130c8816040850160208701613069565b601f017fffffffffffffffffffffffffffffffffffffffffffffffffffffffffffffffe016919091016040019291505056fea164736f6c6343000817000a",
  "linkReferences": {},
  "deployedLinkReferences": {}
}